{
  "contracts/EZIOTAMarketV1.sol": {
    "EZIOTAMarketV1": {
      "abi": [
        {
          "inputs": [
            {
              "internalType": "address",
              "name": "_adminAddress",
              "type": "address"
            },
            {
              "internalType": "address",
              "name": "_treasuryAddress",
              "type": "address"
            },
            {
              "internalType": "address",
              "name": "_FUELAddress",
              "type": "address"
            },
            {
              "internalType": "uint256",
              "name": "_fuelRate",
              "type": "uint256"
            }
          ],
          "stateMutability": "nonpayable",
          "type": "constructor"
        },
        {
          "inputs": [
            {
              "internalType": "address",
              "name": "owner",
              "type": "address"
            }
          ],
          "name": "OwnableInvalidOwner",
          "type": "error"
        },
        {
          "inputs": [
            {
              "internalType": "address",
              "name": "account",
              "type": "address"
            }
          ],
          "name": "OwnableUnauthorizedAccount",
          "type": "error"
        },
        {
          "inputs": [],
          "name": "ReentrancyGuardReentrantCall",
          "type": "error"
        },
        {
          "anonymous": false,
          "inputs": [
            {
              "indexed": true,
              "internalType": "address",
              "name": "collection",
              "type": "address"
            },
            {
              "indexed": true,
              "internalType": "address",
              "name": "seller",
              "type": "address"
            },
            {
              "indexed": true,
              "internalType": "uint256",
              "name": "tokenId",
              "type": "uint256"
            }
          ],
          "name": "AskCancel",
          "type": "event"
        },
        {
          "anonymous": false,
          "inputs": [
            {
              "indexed": true,
              "internalType": "address",
              "name": "collection",
              "type": "address"
            },
            {
              "indexed": true,
              "internalType": "address",
              "name": "seller",
              "type": "address"
            },
            {
              "indexed": true,
              "internalType": "uint256",
              "name": "tokenId",
              "type": "uint256"
            },
            {
              "indexed": false,
              "internalType": "uint256",
              "name": "askPrice",
              "type": "uint256"
            }
          ],
          "name": "AskNew",
          "type": "event"
        },
        {
          "anonymous": false,
          "inputs": [
            {
              "indexed": true,
              "internalType": "address",
              "name": "collection",
              "type": "address"
            },
            {
              "indexed": true,
              "internalType": "address",
              "name": "seller",
              "type": "address"
            },
            {
              "indexed": true,
              "internalType": "uint256",
              "name": "tokenId",
              "type": "uint256"
            },
            {
              "indexed": false,
              "internalType": "uint256",
              "name": "askPrice",
              "type": "uint256"
            }
          ],
          "name": "AskUpdate",
          "type": "event"
        },
        {
          "anonymous": false,
          "inputs": [
            {
              "indexed": true,
              "internalType": "address",
              "name": "collection",
              "type": "address"
            }
          ],
          "name": "CollectionClose",
          "type": "event"
        },
        {
          "anonymous": false,
          "inputs": [
            {
              "indexed": true,
              "internalType": "address",
              "name": "collection",
              "type": "address"
            },
            {
              "indexed": true,
              "internalType": "address",
              "name": "creator",
              "type": "address"
            },
            {
              "indexed": false,
              "internalType": "uint256",
              "name": "tradingFee",
              "type": "uint256"
            },
            {
              "indexed": false,
              "internalType": "uint256",
              "name": "creatorFee",
              "type": "uint256"
            },
            {
              "indexed": false,
              "internalType": "uint256",
              "name": "tradeReward",
              "type": "uint256"
            }
          ],
          "name": "CollectionNew",
          "type": "event"
        },
        {
          "anonymous": false,
          "inputs": [
            {
              "indexed": true,
              "internalType": "address",
              "name": "collection",
              "type": "address"
            }
          ],
          "name": "CollectionOpen",
          "type": "event"
        },
        {
          "anonymous": false,
          "inputs": [
            {
              "indexed": true,
              "internalType": "address",
              "name": "collection",
              "type": "address"
            },
            {
              "indexed": true,
              "internalType": "address",
              "name": "creator",
              "type": "address"
            },
            {
              "indexed": false,
              "internalType": "uint256",
              "name": "tradingFee",
              "type": "uint256"
            },
            {
              "indexed": false,
              "internalType": "uint256",
              "name": "creatorFee",
              "type": "uint256"
            },
            {
              "indexed": false,
              "internalType": "uint256",
              "name": "tradeReward",
              "type": "uint256"
            }
          ],
          "name": "CollectionUpdate",
          "type": "event"
        },
        {
          "anonymous": false,
          "inputs": [
            {
              "indexed": true,
              "internalType": "address",
              "name": "admin",
              "type": "address"
            },
            {
              "indexed": true,
              "internalType": "address",
              "name": "treasury",
              "type": "address"
            }
          ],
          "name": "NewAdminAndTreasuryAddresses",
          "type": "event"
        },
        {
          "anonymous": false,
          "inputs": [
            {
              "indexed": false,
              "internalType": "uint256",
              "name": "fuelRate",
              "type": "uint256"
            }
          ],
          "name": "NewFUELRate",
          "type": "event"
        },
        {
          "anonymous": false,
          "inputs": [
            {
              "indexed": false,
              "internalType": "uint256",
              "name": "minAskPrice",
              "type": "uint256"
            },
            {
              "indexed": false,
              "internalType": "uint256",
              "name": "maxAskPrice",
              "type": "uint256"
            }
          ],
          "name": "NewMinAndMaxAskPrices",
          "type": "event"
        },
        {
          "anonymous": false,
          "inputs": [
            {
              "indexed": true,
              "internalType": "address",
              "name": "token",
              "type": "address"
            },
            {
              "indexed": true,
              "internalType": "uint256",
              "name": "tokenId",
              "type": "uint256"
            }
          ],
          "name": "NonFungibleTokenRecovery",
          "type": "event"
        },
        {
          "anonymous": false,
          "inputs": [
            {
              "indexed": true,
              "internalType": "address",
              "name": "previousOwner",
              "type": "address"
            },
            {
              "indexed": true,
              "internalType": "address",
              "name": "newOwner",
              "type": "address"
            }
          ],
          "name": "OwnershipTransferred",
          "type": "event"
        },
        {
          "anonymous": false,
          "inputs": [
            {
              "indexed": true,
              "internalType": "address",
              "name": "claimer",
              "type": "address"
            },
            {
              "indexed": false,
              "internalType": "uint256",
              "name": "amount",
              "type": "uint256"
            }
          ],
          "name": "RewardsClaim",
          "type": "event"
        },
        {
          "anonymous": false,
          "inputs": [
            {
              "indexed": true,
              "internalType": "address",
              "name": "claimer",
              "type": "address"
            },
            {
              "indexed": false,
              "internalType": "uint256",
              "name": "amount",
              "type": "uint256"
            }
          ],
          "name": "RoyaltyClaim",
          "type": "event"
        },
        {
          "anonymous": false,
          "inputs": [
            {
              "indexed": true,
              "internalType": "address",
              "name": "token",
              "type": "address"
            },
            {
              "indexed": false,
              "internalType": "uint256",
              "name": "amount",
              "type": "uint256"
            }
          ],
          "name": "TokenRecovery",
          "type": "event"
        },
        {
          "anonymous": false,
          "inputs": [
            {
              "indexed": true,
              "internalType": "address",
              "name": "collection",
              "type": "address"
            },
            {
              "indexed": true,
              "internalType": "uint256",
              "name": "tokenId",
              "type": "uint256"
            },
            {
              "indexed": true,
              "internalType": "address",
              "name": "seller",
              "type": "address"
            },
            {
              "indexed": false,
              "internalType": "address",
              "name": "buyer",
              "type": "address"
            },
            {
              "indexed": false,
              "internalType": "uint256",
              "name": "askPrice",
              "type": "uint256"
            },
            {
              "indexed": false,
              "internalType": "uint256",
              "name": "netPrice",
              "type": "uint256"
            },
            {
              "indexed": false,
              "internalType": "bool",
              "name": "withSMR",
              "type": "bool"
            }
          ],
          "name": "Trade",
          "type": "event"
        },
        {
          "inputs": [],
          "name": "FUEL",
          "outputs": [
            {
              "internalType": "address",
              "name": "",
              "type": "address"
            }
          ],
          "stateMutability": "view",
          "type": "function"
        },
        {
          "inputs": [],
          "name": "TOTAL_MAX_FEE",
          "outputs": [
            {
              "internalType": "uint256",
              "name": "",
              "type": "uint256"
            }
          ],
          "stateMutability": "view",
          "type": "function"
        },
        {
          "inputs": [
            {
              "internalType": "address",
              "name": "_collection",
              "type": "address"
            },
            {
              "internalType": "address",
              "name": "_creator",
              "type": "address"
            },
            {
              "internalType": "uint256",
              "name": "_tradingFee",
              "type": "uint256"
            },
            {
              "internalType": "uint256",
              "name": "_creatorFee",
              "type": "uint256"
            },
            {
              "internalType": "uint256",
              "name": "_tradeReward",
              "type": "uint256"
            }
          ],
          "name": "addCollection",
          "outputs": [],
          "stateMutability": "nonpayable",
          "type": "function"
        },
        {
          "inputs": [],
          "name": "adminAddress",
          "outputs": [
            {
              "internalType": "address",
              "name": "",
              "type": "address"
            }
          ],
          "stateMutability": "view",
          "type": "function"
        },
        {
          "inputs": [
            {
              "internalType": "address",
              "name": "_collection",
              "type": "address"
            },
            {
              "internalType": "uint256",
              "name": "_tokenId",
              "type": "uint256"
            }
          ],
          "name": "buyNFTIOTA",
          "outputs": [],
          "stateMutability": "payable",
          "type": "function"
        },
        {
          "inputs": [
            {
              "internalType": "address",
              "name": "collection",
              "type": "address"
            },
            {
              "internalType": "uint256",
              "name": "price",
              "type": "uint256"
            }
          ],
          "name": "calculateNFTDistribution",
          "outputs": [
            {
              "internalType": "uint256",
              "name": "netPrice",
              "type": "uint256"
            },
            {
              "internalType": "uint256",
              "name": "tradingFee",
              "type": "uint256"
            },
            {
              "internalType": "uint256",
              "name": "creatorFee",
              "type": "uint256"
            },
            {
              "internalType": "uint256",
              "name": "tradeReward",
              "type": "uint256"
            }
          ],
          "stateMutability": "view",
          "type": "function"
        },
        {
          "inputs": [
            {
              "internalType": "address",
              "name": "_collection",
              "type": "address"
            },
            {
              "internalType": "uint256",
              "name": "_tokenId",
              "type": "uint256"
            }
          ],
          "name": "cancelAskOrder",
          "outputs": [],
          "stateMutability": "nonpayable",
          "type": "function"
        },
        {
          "inputs": [],
          "name": "claimRewards",
          "outputs": [],
          "stateMutability": "nonpayable",
          "type": "function"
        },
        {
          "inputs": [],
          "name": "claimRoyalties",
          "outputs": [],
          "stateMutability": "nonpayable",
          "type": "function"
        },
        {
          "inputs": [
            {
              "internalType": "address",
              "name": "_collection",
              "type": "address"
            },
            {
              "internalType": "uint256",
              "name": "_tokenId",
              "type": "uint256"
            },
            {
              "internalType": "uint256",
              "name": "_askPrice",
              "type": "uint256"
            }
          ],
          "name": "createAskOrder",
          "outputs": [],
          "stateMutability": "nonpayable",
          "type": "function"
        },
        {
          "inputs": [],
          "name": "fuelRate",
          "outputs": [
            {
              "internalType": "uint256",
              "name": "",
              "type": "uint256"
            }
          ],
          "stateMutability": "view",
          "type": "function"
        },
        {
          "inputs": [],
          "name": "maxAskPrice",
          "outputs": [
            {
              "internalType": "uint256",
              "name": "",
              "type": "uint256"
            }
          ],
          "stateMutability": "view",
          "type": "function"
        },
        {
          "inputs": [],
          "name": "minAskPrice",
          "outputs": [
            {
              "internalType": "uint256",
              "name": "",
              "type": "uint256"
            }
          ],
          "stateMutability": "view",
          "type": "function"
        },
        {
          "inputs": [
            {
              "internalType": "address",
              "name": "_collection",
              "type": "address"
            },
            {
              "internalType": "uint256",
              "name": "_tokenId",
              "type": "uint256"
            },
            {
              "internalType": "uint256",
              "name": "_newPrice",
              "type": "uint256"
            }
          ],
          "name": "modifyAskOrder",
          "outputs": [],
          "stateMutability": "nonpayable",
          "type": "function"
        },
        {
          "inputs": [
            {
              "internalType": "address",
              "name": "_collection",
              "type": "address"
            },
            {
              "internalType": "address",
              "name": "_creator",
              "type": "address"
            },
            {
              "internalType": "uint256",
              "name": "_tradingFee",
              "type": "uint256"
            },
            {
              "internalType": "uint256",
              "name": "_creatorFee",
              "type": "uint256"
            },
            {
              "internalType": "uint256",
              "name": "_tradeReward",
              "type": "uint256"
            }
          ],
          "name": "modifyCollection",
          "outputs": [],
          "stateMutability": "nonpayable",
          "type": "function"
        },
        {
          "inputs": [
            {
              "internalType": "address",
              "name": "",
              "type": "address"
            },
            {
              "internalType": "address",
              "name": "",
              "type": "address"
            },
            {
              "internalType": "uint256",
              "name": "",
              "type": "uint256"
            },
            {
              "internalType": "bytes",
              "name": "",
              "type": "bytes"
            }
          ],
          "name": "onERC721Received",
          "outputs": [
            {
              "internalType": "bytes4",
              "name": "",
              "type": "bytes4"
            }
          ],
          "stateMutability": "nonpayable",
          "type": "function"
        },
        {
          "inputs": [
            {
              "internalType": "address",
              "name": "_collection",
              "type": "address"
            }
          ],
          "name": "openCollection",
          "outputs": [],
          "stateMutability": "nonpayable",
          "type": "function"
        },
        {
          "inputs": [],
          "name": "owner",
          "outputs": [
            {
              "internalType": "address",
              "name": "",
              "type": "address"
            }
          ],
          "stateMutability": "view",
          "type": "function"
        },
        {
          "inputs": [
            {
              "internalType": "address",
              "name": "_collection",
              "type": "address"
            }
          ],
          "name": "pauseCollection",
          "outputs": [],
          "stateMutability": "nonpayable",
          "type": "function"
        },
        {
          "inputs": [
            {
              "internalType": "address",
              "name": "",
              "type": "address"
            }
          ],
          "name": "pendingRewards",
          "outputs": [
            {
              "internalType": "uint256",
              "name": "",
              "type": "uint256"
            }
          ],
          "stateMutability": "view",
          "type": "function"
        },
        {
          "inputs": [
            {
              "internalType": "address",
              "name": "",
              "type": "address"
            }
          ],
          "name": "pendingRoyalties",
          "outputs": [
            {
              "internalType": "uint256",
              "name": "",
              "type": "uint256"
            }
          ],
          "stateMutability": "view",
          "type": "function"
        },
        {
          "inputs": [],
          "name": "renounceOwnership",
          "outputs": [],
          "stateMutability": "nonpayable",
          "type": "function"
        },
        {
          "inputs": [
            {
              "internalType": "address",
              "name": "newOwner",
              "type": "address"
            }
          ],
          "name": "transferOwnership",
          "outputs": [],
          "stateMutability": "nonpayable",
          "type": "function"
        },
        {
          "inputs": [],
          "name": "treasuryAddress",
          "outputs": [
            {
              "internalType": "address",
              "name": "",
              "type": "address"
            }
          ],
          "stateMutability": "view",
          "type": "function"
        },
        {
          "inputs": [
            {
              "internalType": "uint256",
              "name": "_fuelRate",
              "type": "uint256"
            }
          ],
          "name": "updateFuelRate",
          "outputs": [],
          "stateMutability": "nonpayable",
          "type": "function"
        },
        {
          "inputs": [
            {
              "internalType": "uint256",
              "name": "_minAskPrice",
              "type": "uint256"
            },
            {
              "internalType": "uint256",
              "name": "_maxAskPrice",
              "type": "uint256"
            }
          ],
          "name": "updateMinMax",
          "outputs": [],
          "stateMutability": "nonpayable",
          "type": "function"
        },
        {
          "inputs": [
            {
              "internalType": "address",
              "name": "collection",
              "type": "address"
            },
            {
              "internalType": "uint256",
              "name": "cursor",
              "type": "uint256"
            },
            {
              "internalType": "uint256",
              "name": "size",
              "type": "uint256"
            }
          ],
          "name": "viewAsksByCollection",
          "outputs": [
            {
              "internalType": "uint256[]",
              "name": "tokenIds",
              "type": "uint256[]"
            },
            {
              "components": [
                {
                  "internalType": "address",
                  "name": "seller",
                  "type": "address"
                },
                {
                  "internalType": "uint256",
                  "name": "price",
                  "type": "uint256"
                }
              ],
              "internalType": "struct EZIOTAMarketV1.Ask[]",
              "name": "askInfo",
              "type": "tuple[]"
            },
            {
              "internalType": "uint256",
              "name": "",
              "type": "uint256"
            }
          ],
          "stateMutability": "view",
          "type": "function"
        },
        {
          "inputs": [
            {
              "internalType": "address",
              "name": "collection",
              "type": "address"
            },
            {
              "internalType": "address",
              "name": "seller",
              "type": "address"
            },
            {
              "internalType": "uint256",
              "name": "cursor",
              "type": "uint256"
            },
            {
              "internalType": "uint256",
              "name": "size",
              "type": "uint256"
            }
          ],
          "name": "viewAsksByCollectionSeller",
          "outputs": [
            {
              "internalType": "uint256[]",
              "name": "tokenIds",
              "type": "uint256[]"
            },
            {
              "components": [
                {
                  "internalType": "address",
                  "name": "seller",
                  "type": "address"
                },
                {
                  "internalType": "uint256",
                  "name": "price",
                  "type": "uint256"
                }
              ],
              "internalType": "struct EZIOTAMarketV1.Ask[]",
              "name": "askInfo",
              "type": "tuple[]"
            },
            {
              "internalType": "uint256",
              "name": "",
              "type": "uint256"
            }
          ],
          "stateMutability": "view",
          "type": "function"
        },
        {
          "inputs": [
            {
              "internalType": "address",
              "name": "collection",
              "type": "address"
            },
            {
              "internalType": "uint256[]",
              "name": "tokenIds",
              "type": "uint256[]"
            }
          ],
          "name": "viewAsksByTokenIds",
          "outputs": [
            {
              "internalType": "bool[]",
              "name": "statuses",
              "type": "bool[]"
            },
            {
              "components": [
                {
                  "internalType": "address",
                  "name": "seller",
                  "type": "address"
                },
                {
                  "internalType": "uint256",
                  "name": "price",
                  "type": "uint256"
                }
              ],
              "internalType": "struct EZIOTAMarketV1.Ask[]",
              "name": "askInfo",
              "type": "tuple[]"
            }
          ],
          "stateMutability": "view",
          "type": "function"
        },
        {
          "inputs": [
            {
              "internalType": "uint256",
              "name": "cursor",
              "type": "uint256"
            },
            {
              "internalType": "uint256",
              "name": "size",
              "type": "uint256"
            }
          ],
          "name": "viewCollections",
          "outputs": [
            {
              "internalType": "address[]",
              "name": "collectionAddresses",
              "type": "address[]"
            },
            {
              "components": [
                {
                  "internalType": "enum EZIOTAMarketV1.CollectionStatus",
                  "name": "status",
                  "type": "uint8"
                },
                {
                  "internalType": "address",
                  "name": "creatorAddress",
                  "type": "address"
                },
                {
                  "internalType": "uint256",
                  "name": "tradingFee",
                  "type": "uint256"
                },
                {
                  "internalType": "uint256",
                  "name": "creatorFee",
                  "type": "uint256"
                },
                {
                  "internalType": "uint256",
                  "name": "tradeReward",
                  "type": "uint256"
                }
              ],
              "internalType": "struct EZIOTAMarketV1.Collection[]",
              "name": "collectionDetails",
              "type": "tuple[]"
            },
            {
              "internalType": "uint256",
              "name": "",
              "type": "uint256"
            }
          ],
          "stateMutability": "view",
          "type": "function"
        }
      ],
      "evm": {
        "bytecode": {
          "linkReferences": {},
          "object": "60a06040523480156200001157600080fd5b50604051620055f2380380620055f283398181016040528101906200003791906200044c565b83600073ffffffffffffffffffffffffffffffffffffffff168173ffffffffffffffffffffffffffffffffffffffff1603620000ad5760006040517f1e4fbdf7000000000000000000000000000000000000000000000000000000008152600401620000a49190620004cf565b60405180910390fd5b620000be81620002e360201b60201c565b5060018081905550600073ffffffffffffffffffffffffffffffffffffffff168473ffffffffffffffffffffffffffffffffffffffff160362000138576040517f08c379a00000000000000000000000000000000000000000000000000000000081526004016200012f9062000573565b60405180910390fd5b600073ffffffffffffffffffffffffffffffffffffffff168373ffffffffffffffffffffffffffffffffffffffff1603620001aa576040517f08c379a0000000000000000000000000000000000000000000000000000000008152600401620001a1906200060b565b60405180910390fd5b600073ffffffffffffffffffffffffffffffffffffffff168273ffffffffffffffffffffffffffffffffffffffff16036200021c576040517f08c379a00000000000000000000000000000000000000000000000000000000081526004016200021390620006a3565b60405180910390fd5b83600260006101000a81548173ffffffffffffffffffffffffffffffffffffffff021916908373ffffffffffffffffffffffffffffffffffffffff16021790555082600360006101000a81548173ffffffffffffffffffffffffffffffffffffffff021916908373ffffffffffffffffffffffffffffffffffffffff1602179055508173ffffffffffffffffffffffffffffffffffffffff1660808173ffffffffffffffffffffffffffffffffffffffff16815250508060068190555050505050620006c5565b60008060009054906101000a900473ffffffffffffffffffffffffffffffffffffffff169050816000806101000a81548173ffffffffffffffffffffffffffffffffffffffff021916908373ffffffffffffffffffffffffffffffffffffffff1602179055508173ffffffffffffffffffffffffffffffffffffffff168173ffffffffffffffffffffffffffffffffffffffff167f8be0079c531659141344cd1fd0a4f28419497f9722a3daafe3b4186f6b6457e060405160405180910390a35050565b600080fd5b600073ffffffffffffffffffffffffffffffffffffffff82169050919050565b6000620003d982620003ac565b9050919050565b620003eb81620003cc565b8114620003f757600080fd5b50565b6000815190506200040b81620003e0565b92915050565b6000819050919050565b620004268162000411565b81146200043257600080fd5b50565b60008151905062000446816200041b565b92915050565b60008060008060808587031215620004695762000468620003a7565b5b60006200047987828801620003fa565b94505060206200048c87828801620003fa565b93505060406200049f87828801620003fa565b9250506060620004b28782880162000435565b91505092959194509250565b620004c981620003cc565b82525050565b6000602082019050620004e66000830184620004be565b92915050565b600082825260208201905092915050565b7f4f7065726174696f6e733a2041646d696e20616464726573732063616e6e6f7460008201527f206265207a65726f000000000000000000000000000000000000000000000000602082015250565b60006200055b602883620004ec565b91506200056882620004fd565b604082019050919050565b600060208201905081810360008301526200058e816200054c565b9050919050565b7f4f7065726174696f6e733a20547265617375727920616464726573732063616e60008201527f6e6f74206265207a65726f000000000000000000000000000000000000000000602082015250565b6000620005f3602b83620004ec565b9150620006008262000595565b604082019050919050565b600060208201905081810360008301526200062681620005e4565b9050919050565b7f4f7065726174696f6e733a204655454c20616464726573732063616e6e6f742060008201527f6265207a65726f00000000000000000000000000000000000000000000000000602082015250565b60006200068b602783620004ec565b915062000698826200062d565b604082019050919050565b60006020820190508181036000830152620006be816200067c565b9050919050565b608051614f0a620006e8600039600081816109060152611d5a0152614f0a6000f3fe6080604052600436106101cd5760003560e01c806384a40864116100f7578063a3606f8911610095578063dff5f08c11610064578063dff5f08c1461065a578063ea7f47c814610685578063f2fde38b146106c3578063fc6f9468146106ec576101cd565b8063a3606f891461059c578063c5f956af146105db578063c8eba03e14610606578063d9cc6c0c1461062f576101cd565b806395f42098116100d157806395f42098146104e257806398351f3a1461050b5780639a2fa9bb146105365780639b2adcdc14610573576101cd565b806384a408641461044f5780638da5cb5b1461048e57806394b1a70f146104b9576101cd565b8063503fc5cb1161016f5780636df8cd131161013e5780636df8cd13146103a4578063715018a6146103cf5780637a62defd146103e6578063803b64a114610426576101cd565b8063503fc5cb146102f757806351c383ea146103135780635dce1e7614610352578063683514d91461037b576101cd565b8063286df8b1116101ab578063286df8b11461025157806331d7a2621461027a578063372500ab146102b75780633bbd391e146102ce576101cd565b8063069b7820146101d2578063150b7a02146101e9578063209cbe7e14610226575b600080fd5b3480156101de57600080fd5b506101e7610717565b005b3480156101f557600080fd5b50610210600480360381019061020b9190613a00565b610881565b60405161021d9190613abe565b60405180910390f35b34801561023257600080fd5b5061023b610895565b6040516102489190613ae8565b60405180910390f35b34801561025d57600080fd5b5061027860048036038101906102739190613b03565b61089b565b005b34801561028657600080fd5b506102a1600480360381019061029c9190613b30565b6108e4565b6040516102ae9190613ae8565b60405180910390f35b3480156102c357600080fd5b506102cc6108fc565b005b3480156102da57600080fd5b506102f560048036038101906102f09190613b5d565b610abe565b005b610311600480360381019061030c9190613b9d565b610b53565b005b34801561031f57600080fd5b5061033a60048036038101906103359190613b5d565b610b74565b60405161034993929190613e38565b60405180910390f35b34801561035e57600080fd5b5061037960048036038101906103749190613b30565b610e24565b005b34801561038757600080fd5b506103a2600480360381019061039d9190613b30565b610f30565b005b3480156103b057600080fd5b506103b961103c565b6040516103c69190613ae8565b60405180910390f35b3480156103db57600080fd5b506103e4611042565b005b3480156103f257600080fd5b5061040d60048036038101906104089190613b9d565b611056565b60405161041d9493929190613e7d565b60405180910390f35b34801561043257600080fd5b5061044d60048036038101906104489190613ec2565b611077565b005b34801561045b57600080fd5b5061047660048036038101906104719190613ec2565b61141a565b604051610485939291906140a2565b60405180910390f35b34801561049a57600080fd5b506104a3611717565b6040516104b091906140f6565b60405180910390f35b3480156104c557600080fd5b506104e060048036038101906104db9190614111565b611740565b005b3480156104ee57600080fd5b5061050960048036038101906105049190613b9d565b611a4a565b005b34801561051757600080fd5b50610520611d58565b60405161052d91906140f6565b60405180910390f35b34801561054257600080fd5b5061055d60048036038101906105589190613b30565b611d7c565b60405161056a9190613ae8565b60405180910390f35b34801561057f57600080fd5b5061059a60048036038101906105959190613ec2565b611d94565b005b3480156105a857600080fd5b506105c360048036038101906105be919061418c565b61203d565b6040516105d2939291906140a2565b60405180910390f35b3480156105e757600080fd5b506105f06123f2565b6040516105fd91906140f6565b60405180910390f35b34801561061257600080fd5b5061062d60048036038101906106289190614111565b612418565b005b34801561063b57600080fd5b5061064461270c565b6040516106519190613ae8565b60405180910390f35b34801561066657600080fd5b5061066f612712565b60405161067c9190613ae8565b60405180910390f35b34801561069157600080fd5b506106ac60048036038101906106a79190614253565b612718565b6040516106ba92919061437d565b60405180910390f35b3480156106cf57600080fd5b506106ea60048036038101906106e59190613b30565b61299b565b005b3480156106f857600080fd5b50610701612a21565b60405161070e91906140f6565b60405180910390f35b61071f612a47565b3373ffffffffffffffffffffffffffffffffffffffff166108fc600760003373ffffffffffffffffffffffffffffffffffffffff1673ffffffffffffffffffffffffffffffffffffffff168152602001908152602001600020549081150290604051600060405180830381858888f193505050501580156107a4573d6000803e3d6000fd5b503373ffffffffffffffffffffffffffffffffffffffff167fb8179b03c7934f30968ac9a02b224c0554c475e358d19b8e1a299d7f29fe4e12600760003373ffffffffffffffffffffffffffffffffffffffff1673ffffffffffffffffffffffffffffffffffffffff1681526020019081526020016000205460405161082a9190613ae8565b60405180910390a26000600760003373ffffffffffffffffffffffffffffffffffffffff1673ffffffffffffffffffffffffffffffffffffffff1681526020019081526020016000208190555061087f612a8d565b565b600063150b7a0260e01b9050949350505050565b610bb881565b6108a3612a96565b806006819055507f14f85022c6c3f8388a9826681ad16713dd725c53965e52844cfd110e6bb465c2816040516108d99190613ae8565b60405180910390a150565b60086020528060005260406000206000915090505481565b610904612a47565b7f000000000000000000000000000000000000000000000000000000000000000073ffffffffffffffffffffffffffffffffffffffff1663a9059cbb33600860003373ffffffffffffffffffffffffffffffffffffffff1673ffffffffffffffffffffffffffffffffffffffff168152602001908152602001600020546040518363ffffffff1660e01b815260040161099e9291906143b4565b6020604051808303816000875af11580156109bd573d6000803e3d6000fd5b505050506040513d601f19601f820116820180604052508101906109e19190614409565b503373ffffffffffffffffffffffffffffffffffffffff167ff0193af62631cc04f42841d590c093e885b44520cbb14dc573193023f80cb284600860003373ffffffffffffffffffffffffffffffffffffffff1673ffffffffffffffffffffffffffffffffffffffff16815260200190815260200160002054604051610a679190613ae8565b60405180910390a26000600860003373ffffffffffffffffffffffffffffffffffffffff1673ffffffffffffffffffffffffffffffffffffffff16815260200190815260200160002081905550610abc612a8d565b565b610ac6612a96565b808210610b08576040517f08c379a0000000000000000000000000000000000000000000000000000000008152600401610aff906144b9565b60405180910390fd5b81600481905550806005819055507fc0f43814d5418eabe550e8a5e620534a153d7b795dcf2e69d6bfa943c0df16bf8282604051610b479291906144d9565b60405180910390a15050565b610b5b612a47565b610b688282346001612b1d565b610b70612a8d565b5050565b60608060008084905085610b886009613239565b610b929190614531565b811115610bb15785610ba46009613239565b610bae9190614531565b90505b8067ffffffffffffffff811115610bcb57610bca6138d5565b5b604051908082528060200260200182016040528015610bf95781602001602082028036833780820191505090505b5093508067ffffffffffffffff811115610c1657610c156138d5565b5b604051908082528060200260200182016040528015610c4f57816020015b610c3c61378b565b815260200190600190039081610c345790505b50925060005b81811015610e0757610c7c8188610c6c9190614565565b600961324e90919063ffffffff16565b858281518110610c8f57610c8e614599565b5b602002602001019073ffffffffffffffffffffffffffffffffffffffff16908173ffffffffffffffffffffffffffffffffffffffff1681525050600d6000868381518110610ce057610cdf614599565b5b602002602001015173ffffffffffffffffffffffffffffffffffffffff1673ffffffffffffffffffffffffffffffffffffffff1681526020019081526020016000206040518060a00160405290816000820160009054906101000a900460ff166002811115610d5257610d51613cc7565b5b6002811115610d6457610d63613cc7565b5b81526020016000820160019054906101000a900473ffffffffffffffffffffffffffffffffffffffff1673ffffffffffffffffffffffffffffffffffffffff1673ffffffffffffffffffffffffffffffffffffffff1681526020016001820154815260200160028201548152602001600382015481525050848281518110610def57610dee614599565b5b60200260200101819052508080600101915050610c55565b5083838288610e169190614565565b935093509350509250925092565b610e2c612a96565b610e4081600961326890919063ffffffff16565b610e7f576040517f08c379a0000000000000000000000000000000000000000000000000000000008152600401610e769061463a565b60405180910390fd5b6001600d60008373ffffffffffffffffffffffffffffffffffffffff1673ffffffffffffffffffffffffffffffffffffffff16815260200190815260200160002060000160006101000a81548160ff02191690836002811115610ee557610ee4613cc7565b5b02179055508073ffffffffffffffffffffffffffffffffffffffff167f8aa6bc9d3dfafa0d1ec07c445e64c83d39e5947d50be0418a9b164a721ffc39360405160405180910390a250565b610f38612a96565b610f4c81600961326890919063ffffffff16565b610f8b576040517f08c379a0000000000000000000000000000000000000000000000000000000008152600401610f829061463a565b60405180910390fd5b6002600d60008373ffffffffffffffffffffffffffffffffffffffff1673ffffffffffffffffffffffffffffffffffffffff16815260200190815260200160002060000160006101000a81548160ff02191690836002811115610ff157610ff0613cc7565b5b02179055508073ffffffffffffffffffffffffffffffffffffffff167ff6df65a3d7d931af345d93f0420a22e8910de36c0d027c1d1ac93d5be509f5a960405160405180910390a250565b60055481565b61104a612a96565b6110546000613298565b565b600080600080611066868661335c565b935093509350935092959194509250565b61107f612a47565b600454811015801561109357506005548111155b6110d2576040517f08c379a00000000000000000000000000000000000000000000000000000000081526004016110c9906146a6565b60405180910390fd5b600160028111156110e6576110e5613cc7565b5b600d60008573ffffffffffffffffffffffffffffffffffffffff1673ffffffffffffffffffffffffffffffffffffffff16815260200190815260200160002060000160009054906101000a900460ff16600281111561114857611147613cc7565b5b14611188576040517f08c379a000000000000000000000000000000000000000000000000000000000815260040161117f90614712565b60405180910390fd5b8273ffffffffffffffffffffffffffffffffffffffff166342842e0e3330856040518463ffffffff1660e01b81526004016111c593929190614732565b600060405180830381600087803b1580156111df57600080fd5b505af11580156111f3573d6000803e3d6000fd5b5050505061128582600e60003373ffffffffffffffffffffffffffffffffffffffff1673ffffffffffffffffffffffffffffffffffffffff16815260200190815260200160002060008673ffffffffffffffffffffffffffffffffffffffff1673ffffffffffffffffffffffffffffffffffffffff1681526020019081526020016000206134f390919063ffffffff16565b5060405180604001604052803373ffffffffffffffffffffffffffffffffffffffff16815260200182815250600b60008573ffffffffffffffffffffffffffffffffffffffff1673ffffffffffffffffffffffffffffffffffffffff168152602001908152602001600020600084815260200190815260200160002060008201518160000160006101000a81548173ffffffffffffffffffffffffffffffffffffffff021916908373ffffffffffffffffffffffffffffffffffffffff160217905550602082015181600101559050506113a682600c60008673ffffffffffffffffffffffffffffffffffffffff1673ffffffffffffffffffffffffffffffffffffffff1681526020019081526020016000206134f390919063ffffffff16565b50813373ffffffffffffffffffffffffffffffffffffffff168473ffffffffffffffffffffffffffffffffffffffff167faa0431463bb62c812c04a1e5310cf43dd9baedc7a8eab71e02f572c741467e8c846040516114059190613ae8565b60405180910390a4611415612a8d565b505050565b6060806000808490508561146b600c60008a73ffffffffffffffffffffffffffffffffffffffff1673ffffffffffffffffffffffffffffffffffffffff16815260200190815260200160002061350d565b6114759190614531565b8111156114d157856114c4600c60008a73ffffffffffffffffffffffffffffffffffffffff1673ffffffffffffffffffffffffffffffffffffffff16815260200190815260200160002061350d565b6114ce9190614531565b90505b8067ffffffffffffffff8111156114eb576114ea6138d5565b5b6040519080825280602002602001820160405280156115195781602001602082028036833780820191505090505b5093508067ffffffffffffffff811115611536576115356138d5565b5b60405190808252806020026020018201604052801561156f57816020015b61155c6137e2565b8152602001906001900390816115545790505b50925060005b818110156116f8576115d9818861158c9190614565565b600c60008b73ffffffffffffffffffffffffffffffffffffffff1673ffffffffffffffffffffffffffffffffffffffff16815260200190815260200160002061352290919063ffffffff16565b8582815181106115ec576115eb614599565b5b602002602001018181525050600b60008973ffffffffffffffffffffffffffffffffffffffff1673ffffffffffffffffffffffffffffffffffffffff168152602001908152602001600020600086838151811061164c5761164b614599565b5b602002602001015181526020019081526020016000206040518060400160405290816000820160009054906101000a900473ffffffffffffffffffffffffffffffffffffffff1673ffffffffffffffffffffffffffffffffffffffff1673ffffffffffffffffffffffffffffffffffffffff1681526020016001820154815250508482815181106116e0576116df614599565b5b60200260200101819052508080600101915050611575565b50838382886117079190614565565b9350935093505093509350939050565b60008060009054906101000a900473ffffffffffffffffffffffffffffffffffffffff16905090565b611748612a96565b61175c85600961326890919063ffffffff16565b1561179c576040517f08c379a0000000000000000000000000000000000000000000000000000000008152600401611793906147db565b60405180910390fd5b818111156117df576040517f08c379a00000000000000000000000000000000000000000000000000000000081526004016117d690614847565b60405180910390fd5b600073ffffffffffffffffffffffffffffffffffffffff168473ffffffffffffffffffffffffffffffffffffffff160361184e576040517f08c379a0000000000000000000000000000000000000000000000000000000008152600401611845906148b3565b60405180910390fd5b610bb8828461185d9190614565565b111561189e576040517f08c379a000000000000000000000000000000000000000000000000000000000815260040161189590614945565b60405180910390fd5b6118b285600961353c90919063ffffffff16565b506040518060a00160405280600160028111156118d2576118d1613cc7565b5b81526020018573ffffffffffffffffffffffffffffffffffffffff16815260200184815260200183815260200182815250600d60008773ffffffffffffffffffffffffffffffffffffffff1673ffffffffffffffffffffffffffffffffffffffff16815260200190815260200160002060008201518160000160006101000a81548160ff0219169083600281111561196d5761196c613cc7565b5b021790555060208201518160000160016101000a81548173ffffffffffffffffffffffffffffffffffffffff021916908373ffffffffffffffffffffffffffffffffffffffff1602179055506040820151816001015560608201518160020155608082015181600301559050508373ffffffffffffffffffffffffffffffffffffffff168573ffffffffffffffffffffffffffffffffffffffff167ff11390a65c0fbc9ceb5cd5107627689a9aef8f91abaf3d88a19205e37779e820858585604051611a3b93929190614965565b60405180910390a35050505050565b611a52612a47565b611ae081600e60003373ffffffffffffffffffffffffffffffffffffffff1673ffffffffffffffffffffffffffffffffffffffff16815260200190815260200160002060008573ffffffffffffffffffffffffffffffffffffffff1673ffffffffffffffffffffffffffffffffffffffff16815260200190815260200160002061356c90919063ffffffff16565b611b1f576040517f08c379a0000000000000000000000000000000000000000000000000000000008152600401611b16906149e8565b60405180910390fd5b611bad81600e60003373ffffffffffffffffffffffffffffffffffffffff1673ffffffffffffffffffffffffffffffffffffffff16815260200190815260200160002060008573ffffffffffffffffffffffffffffffffffffffff1673ffffffffffffffffffffffffffffffffffffffff16815260200190815260200160002061358690919063ffffffff16565b50600b60008373ffffffffffffffffffffffffffffffffffffffff1673ffffffffffffffffffffffffffffffffffffffff1681526020019081526020016000206000828152602001908152602001600020600080820160006101000a81549073ffffffffffffffffffffffffffffffffffffffff021916905560018201600090555050611c8181600c60008573ffffffffffffffffffffffffffffffffffffffff1673ffffffffffffffffffffffffffffffffffffffff16815260200190815260200160002061358690919063ffffffff16565b508173ffffffffffffffffffffffffffffffffffffffff166323b872dd3033846040518463ffffffff1660e01b8152600401611cbf93929190614732565b600060405180830381600087803b158015611cd957600080fd5b505af1158015611ced573d6000803e3d6000fd5b50505050803373ffffffffffffffffffffffffffffffffffffffff168373ffffffffffffffffffffffffffffffffffffffff167fa5764ea233325154a6388255c54b9f302ec2ed8586af0a9a606cd64e88298eb760405160405180910390a4611d54612a8d565b5050565b7f000000000000000000000000000000000000000000000000000000000000000081565b60076020528060005260406000206000915090505481565b611d9c612a47565b6004548110158015611db057506005548111155b611def576040517f08c379a0000000000000000000000000000000000000000000000000000000008152600401611de6906146a6565b60405180910390fd5b60016002811115611e0357611e02613cc7565b5b600d60008573ffffffffffffffffffffffffffffffffffffffff1673ffffffffffffffffffffffffffffffffffffffff16815260200190815260200160002060000160009054906101000a900460ff166002811115611e6557611e64613cc7565b5b14611ea5576040517f08c379a0000000000000000000000000000000000000000000000000000000008152600401611e9c90614712565b60405180910390fd5b611f3382600e60003373ffffffffffffffffffffffffffffffffffffffff1673ffffffffffffffffffffffffffffffffffffffff16815260200190815260200160002060008673ffffffffffffffffffffffffffffffffffffffff1673ffffffffffffffffffffffffffffffffffffffff16815260200190815260200160002061356c90919063ffffffff16565b611f72576040517f08c379a0000000000000000000000000000000000000000000000000000000008152600401611f69906149e8565b60405180910390fd5b80600b60008573ffffffffffffffffffffffffffffffffffffffff1673ffffffffffffffffffffffffffffffffffffffff168152602001908152602001600020600084815260200190815260200160002060010181905550813373ffffffffffffffffffffffffffffffffffffffff168473ffffffffffffffffffffffffffffffffffffffff167f492437c0ade072acdf12e63a19d8df68bb5e414e2098dc470239df87702343ea846040516120289190613ae8565b60405180910390a4612038612a8d565b505050565b606080600080849050856120cb600e60008a73ffffffffffffffffffffffffffffffffffffffff1673ffffffffffffffffffffffffffffffffffffffff16815260200190815260200160002060008b73ffffffffffffffffffffffffffffffffffffffff1673ffffffffffffffffffffffffffffffffffffffff16815260200190815260200160002061350d565b6120d59190614531565b81111561216e5785612161600e60008a73ffffffffffffffffffffffffffffffffffffffff1673ffffffffffffffffffffffffffffffffffffffff16815260200190815260200160002060008b73ffffffffffffffffffffffffffffffffffffffff1673ffffffffffffffffffffffffffffffffffffffff16815260200190815260200160002061350d565b61216b9190614531565b90505b8067ffffffffffffffff811115612188576121876138d5565b5b6040519080825280602002602001820160405280156121b65781602001602082028036833780820191505090505b5093508067ffffffffffffffff8111156121d3576121d26138d5565b5b60405190808252806020026020018201604052801561220c57816020015b6121f96137e2565b8152602001906001900390816121f15790505b50925060005b818110156123d2576122b381886122299190614565565b600e60008b73ffffffffffffffffffffffffffffffffffffffff1673ffffffffffffffffffffffffffffffffffffffff16815260200190815260200160002060008c73ffffffffffffffffffffffffffffffffffffffff1673ffffffffffffffffffffffffffffffffffffffff16815260200190815260200160002061352290919063ffffffff16565b8582815181106122c6576122c5614599565b5b602002602001018181525050600b60008a73ffffffffffffffffffffffffffffffffffffffff1673ffffffffffffffffffffffffffffffffffffffff168152602001908152602001600020600086838151811061232657612325614599565b5b602002602001015181526020019081526020016000206040518060400160405290816000820160009054906101000a900473ffffffffffffffffffffffffffffffffffffffff1673ffffffffffffffffffffffffffffffffffffffff1673ffffffffffffffffffffffffffffffffffffffff1681526020016001820154815250508482815181106123ba576123b9614599565b5b60200260200101819052508080600101915050612212565b50838382886123e19190614565565b935093509350509450945094915050565b600360009054906101000a900473ffffffffffffffffffffffffffffffffffffffff1681565b612420612a96565b61243485600961326890919063ffffffff16565b612473576040517f08c379a000000000000000000000000000000000000000000000000000000000815260040161246a9061463a565b60405180910390fd5b818111156124b6576040517f08c379a00000000000000000000000000000000000000000000000000000000081526004016124ad90614847565b60405180910390fd5b600073ffffffffffffffffffffffffffffffffffffffff168473ffffffffffffffffffffffffffffffffffffffff1603612525576040517f08c379a000000000000000000000000000000000000000000000000000000000815260040161251c90614a54565b60405180910390fd5b610bb882846125349190614565565b1115612575576040517f08c379a000000000000000000000000000000000000000000000000000000000815260040161256c90614945565b60405180910390fd5b6040518060a001604052806001600281111561259457612593613cc7565b5b81526020018573ffffffffffffffffffffffffffffffffffffffff16815260200184815260200183815260200182815250600d60008773ffffffffffffffffffffffffffffffffffffffff1673ffffffffffffffffffffffffffffffffffffffff16815260200190815260200160002060008201518160000160006101000a81548160ff0219169083600281111561262f5761262e613cc7565b5b021790555060208201518160000160016101000a81548173ffffffffffffffffffffffffffffffffffffffff021916908373ffffffffffffffffffffffffffffffffffffffff1602179055506040820151816001015560608201518160020155608082015181600301559050508373ffffffffffffffffffffffffffffffffffffffff168573ffffffffffffffffffffffffffffffffffffffff167f0895422eb4a796b08d7cae4b36cce484ec608964bb6fa3edeaa1b68baab1b26d8585856040516126fd93929190614965565b60405180910390a35050505050565b60045481565b60065481565b60608060008484905090508067ffffffffffffffff81111561273d5761273c6138d5565b5b60405190808252806020026020018201604052801561276b5781602001602082028036833780820191505090505b5092508067ffffffffffffffff811115612788576127876138d5565b5b6040519080825280602002602001820160405280156127c157816020015b6127ae6137e2565b8152602001906001900390816127a65790505b50915060005b81811015612991576128398686838181106127e5576127e4614599565b5b90506020020135600c60008a73ffffffffffffffffffffffffffffffffffffffff1673ffffffffffffffffffffffffffffffffffffffff16815260200190815260200160002061356c90919063ffffffff16565b1561286a57600184828151811061285357612852614599565b5b602002602001019015159081151581525050612892565b600084828151811061287f5761287e614599565b5b6020026020010190151590811515815250505b600b60008873ffffffffffffffffffffffffffffffffffffffff1673ffffffffffffffffffffffffffffffffffffffff16815260200190815260200160002060008787848181106128e6576128e5614599565b5b9050602002013581526020019081526020016000206040518060400160405290816000820160009054906101000a900473ffffffffffffffffffffffffffffffffffffffff1673ffffffffffffffffffffffffffffffffffffffff1673ffffffffffffffffffffffffffffffffffffffff16815260200160018201548152505083828151811061297957612978614599565b5b602002602001018190525080806001019150506127c7565b5050935093915050565b6129a3612a96565b600073ffffffffffffffffffffffffffffffffffffffff168173ffffffffffffffffffffffffffffffffffffffff1603612a155760006040517f1e4fbdf7000000000000000000000000000000000000000000000000000000008152600401612a0c91906140f6565b60405180910390fd5b612a1e81613298565b50565b600260009054906101000a900473ffffffffffffffffffffffffffffffffffffffff1681565b600260015403612a83576040517f3ee5aeb500000000000000000000000000000000000000000000000000000000815260040160405180910390fd5b6002600181905550565b60018081905550565b612a9e6135a0565b73ffffffffffffffffffffffffffffffffffffffff16612abc611717565b73ffffffffffffffffffffffffffffffffffffffff1614612b1b57612adf6135a0565b6040517f118cdaa7000000000000000000000000000000000000000000000000000000008152600401612b1291906140f6565b60405180910390fd5b565b60016002811115612b3157612b30613cc7565b5b600d60008673ffffffffffffffffffffffffffffffffffffffff1673ffffffffffffffffffffffffffffffffffffffff16815260200190815260200160002060000160009054906101000a900460ff166002811115612b9357612b92613cc7565b5b14612bd3576040517f08c379a0000000000000000000000000000000000000000000000000000000008152600401612bca90614ac0565b60405180910390fd5b612c2483600c60008773ffffffffffffffffffffffffffffffffffffffff1673ffffffffffffffffffffffffffffffffffffffff16815260200190815260200160002061356c90919063ffffffff16565b612c63576040517f08c379a0000000000000000000000000000000000000000000000000000000008152600401612c5a90614b2c565b60405180910390fd5b6000600b60008673ffffffffffffffffffffffffffffffffffffffff1673ffffffffffffffffffffffffffffffffffffffff16815260200190815260200160002060008581526020019081526020016000206040518060400160405290816000820160009054906101000a900473ffffffffffffffffffffffffffffffffffffffff1673ffffffffffffffffffffffffffffffffffffffff1673ffffffffffffffffffffffffffffffffffffffff168152602001600182015481525050905080602001518314612d68576040517f08c379a0000000000000000000000000000000000000000000000000000000008152600401612d5f90614b98565b60405180910390fd5b806000015173ffffffffffffffffffffffffffffffffffffffff163373ffffffffffffffffffffffffffffffffffffffff1603612dda576040517f08c379a0000000000000000000000000000000000000000000000000000000008152600401612dd190614c04565b60405180910390fd5b600080600080612dea898861335c565b9350935093509350612e8488600e6000886000015173ffffffffffffffffffffffffffffffffffffffff1673ffffffffffffffffffffffffffffffffffffffff16815260200190815260200160002060008c73ffffffffffffffffffffffffffffffffffffffff1673ffffffffffffffffffffffffffffffffffffffff16815260200190815260200160002061358690919063ffffffff16565b50600b60008a73ffffffffffffffffffffffffffffffffffffffff1673ffffffffffffffffffffffffffffffffffffffff1681526020019081526020016000206000898152602001908152602001600020600080820160006101000a81549073ffffffffffffffffffffffffffffffffffffffff021916905560018201600090555050612f5888600c60008c73ffffffffffffffffffffffffffffffffffffffff1673ffffffffffffffffffffffffffffffffffffffff16815260200190815260200160002061358690919063ffffffff16565b50846000015173ffffffffffffffffffffffffffffffffffffffff166108fc859081150290604051600060405180830381858888f19350505050158015612fa3573d6000803e3d6000fd5b508160076000600d60008d73ffffffffffffffffffffffffffffffffffffffff1673ffffffffffffffffffffffffffffffffffffffff16815260200190815260200160002060000160019054906101000a900473ffffffffffffffffffffffffffffffffffffffff1673ffffffffffffffffffffffffffffffffffffffff1673ffffffffffffffffffffffffffffffffffffffff16815260200190815260200160002060008282546130559190614565565b925050819055506006600a61306a9190614d64565b600654826130789190614dde565b6130829190614e0f565b600860003373ffffffffffffffffffffffffffffffffffffffff1673ffffffffffffffffffffffffffffffffffffffff16815260200190815260200160002060008282546130d09190614565565b925050819055508260076000600360009054906101000a900473ffffffffffffffffffffffffffffffffffffffff1673ffffffffffffffffffffffffffffffffffffffff1673ffffffffffffffffffffffffffffffffffffffff16815260200190815260200160002060008282546131489190614565565b925050819055508873ffffffffffffffffffffffffffffffffffffffff166342842e0e30338b6040518463ffffffff1660e01b815260040161318c93929190614732565b600060405180830381600087803b1580156131a657600080fd5b505af11580156131ba573d6000803e3d6000fd5b50505050846000015173ffffffffffffffffffffffffffffffffffffffff16888a73ffffffffffffffffffffffffffffffffffffffff167fdaac0e40b8f01e970d08d4e8ae57ac31a5845fffde104c43f05e19bbec78491e338b898c6040516132269493929190614e60565b60405180910390a4505050505050505050565b6000613247826000016135a8565b9050919050565b600061325d83600001836135b9565b60001c905092915050565b6000613290836000018373ffffffffffffffffffffffffffffffffffffffff1660001b6135e4565b905092915050565b60008060009054906101000a900473ffffffffffffffffffffffffffffffffffffffff169050816000806101000a81548173ffffffffffffffffffffffffffffffffffffffff021916908373ffffffffffffffffffffffffffffffffffffffff1602179055508173ffffffffffffffffffffffffffffffffffffffff168173ffffffffffffffffffffffffffffffffffffffff167f8be0079c531659141344cd1fd0a4f28419497f9722a3daafe3b4186f6b6457e060405160405180910390a35050565b600080600080612710600d60008873ffffffffffffffffffffffffffffffffffffffff1673ffffffffffffffffffffffffffffffffffffffff16815260200190815260200160002060010154866133b39190614e0f565b6133bd9190614dde565b9250612710600d60008873ffffffffffffffffffffffffffffffffffffffff1673ffffffffffffffffffffffffffffffffffffffff16815260200190815260200160002060030154600d60008973ffffffffffffffffffffffffffffffffffffffff1673ffffffffffffffffffffffffffffffffffffffff168152602001908152602001600020600201546134529190614531565b8661345d9190614e0f565b6134679190614dde565b9150612710600d60008873ffffffffffffffffffffffffffffffffffffffff1673ffffffffffffffffffffffffffffffffffffffff16815260200190815260200160002060030154866134ba9190614e0f565b6134c49190614dde565b9050808284876134d49190614531565b6134de9190614531565b6134e89190614531565b935092959194509250565b6000613505836000018360001b613607565b905092915050565b600061351b826000016135a8565b9050919050565b600061353183600001836135b9565b60001c905092915050565b6000613564836000018373ffffffffffffffffffffffffffffffffffffffff1660001b613607565b905092915050565b600061357e836000018360001b6135e4565b905092915050565b6000613598836000018360001b613677565b905092915050565b600033905090565b600081600001805490509050919050565b60008260000182815481106135d1576135d0614599565b5b9060005260206000200154905092915050565b600080836001016000848152602001908152602001600020541415905092915050565b600061361383836135e4565b61366c578260000182908060018154018082558091505060019003906000526020600020016000909190919091505582600001805490508360010160008481526020019081526020016000208190555060019050613671565b600090505b92915050565b6000808360010160008481526020019081526020016000205490506000811461377f5760006001826136a99190614531565b90506000600186600001805490506136c19190614531565b90508082146137305760008660000182815481106136e2576136e1614599565b5b906000526020600020015490508087600001848154811061370657613705614599565b5b90600052602060002001819055508387600101600083815260200190815260200160002081905550505b8560000180548061374457613743614ea5565b5b600190038181906000526020600020016000905590558560010160008681526020019081526020016000206000905560019350505050613785565b60009150505b92915050565b6040518060a00160405280600060028111156137aa576137a9613cc7565b5b8152602001600073ffffffffffffffffffffffffffffffffffffffff1681526020016000815260200160008152602001600081525090565b6040518060400160405280600073ffffffffffffffffffffffffffffffffffffffff168152602001600081525090565b6000604051905090565b600080fd5b600080fd5b600073ffffffffffffffffffffffffffffffffffffffff82169050919050565b600061385182613826565b9050919050565b61386181613846565b811461386c57600080fd5b50565b60008135905061387e81613858565b92915050565b6000819050919050565b61389781613884565b81146138a257600080fd5b50565b6000813590506138b48161388e565b92915050565b600080fd5b600080fd5b6000601f19601f8301169050919050565b7f4e487b7100000000000000000000000000000000000000000000000000000000600052604160045260246000fd5b61390d826138c4565b810181811067ffffffffffffffff8211171561392c5761392b6138d5565b5b80604052505050565b600061393f613812565b905061394b8282613904565b919050565b600067ffffffffffffffff82111561396b5761396a6138d5565b5b613974826138c4565b9050602081019050919050565b82818337600083830152505050565b60006139a361399e84613950565b613935565b9050828152602081018484840111156139bf576139be6138bf565b5b6139ca848285613981565b509392505050565b600082601f8301126139e7576139e66138ba565b5b81356139f7848260208601613990565b91505092915050565b60008060008060808587031215613a1a57613a1961381c565b5b6000613a288782880161386f565b9450506020613a398782880161386f565b9350506040613a4a878288016138a5565b925050606085013567ffffffffffffffff811115613a6b57613a6a613821565b5b613a77878288016139d2565b91505092959194509250565b60007fffffffff0000000000000000000000000000000000000000000000000000000082169050919050565b613ab881613a83565b82525050565b6000602082019050613ad36000830184613aaf565b92915050565b613ae281613884565b82525050565b6000602082019050613afd6000830184613ad9565b92915050565b600060208284031215613b1957613b1861381c565b5b6000613b27848285016138a5565b91505092915050565b600060208284031215613b4657613b4561381c565b5b6000613b548482850161386f565b91505092915050565b60008060408385031215613b7457613b7361381c565b5b6000613b82858286016138a5565b9250506020613b93858286016138a5565b9150509250929050565b60008060408385031215613bb457613bb361381c565b5b6000613bc28582860161386f565b9250506020613bd3858286016138a5565b9150509250929050565b600081519050919050565b600082825260208201905092915050565b6000819050602082019050919050565b613c1281613846565b82525050565b6000613c248383613c09565b60208301905092915050565b6000602082019050919050565b6000613c4882613bdd565b613c528185613be8565b9350613c5d83613bf9565b8060005b83811015613c8e578151613c758882613c18565b9750613c8083613c30565b925050600181019050613c61565b5085935050505092915050565b600081519050919050565b600082825260208201905092915050565b6000819050602082019050919050565b7f4e487b7100000000000000000000000000000000000000000000000000000000600052602160045260246000fd5b60038110613d0757613d06613cc7565b5b50565b6000819050613d1882613cf6565b919050565b6000613d2882613d0a565b9050919050565b613d3881613d1d565b82525050565b613d4781613884565b82525050565b60a082016000820151613d636000850182613d2f565b506020820151613d766020850182613c09565b506040820151613d896040850182613d3e565b506060820151613d9c6060850182613d3e565b506080820151613daf6080850182613d3e565b50505050565b6000613dc18383613d4d565b60a08301905092915050565b6000602082019050919050565b6000613de582613c9b565b613def8185613ca6565b9350613dfa83613cb7565b8060005b83811015613e2b578151613e128882613db5565b9750613e1d83613dcd565b925050600181019050613dfe565b5085935050505092915050565b60006060820190508181036000830152613e528186613c3d565b90508181036020830152613e668185613dda565b9050613e756040830184613ad9565b949350505050565b6000608082019050613e926000830187613ad9565b613e9f6020830186613ad9565b613eac6040830185613ad9565b613eb96060830184613ad9565b95945050505050565b600080600060608486031215613edb57613eda61381c565b5b6000613ee98682870161386f565b9350506020613efa868287016138a5565b9250506040613f0b868287016138a5565b9150509250925092565b600081519050919050565b600082825260208201905092915050565b6000819050602082019050919050565b6000613f4d8383613d3e565b60208301905092915050565b6000602082019050919050565b6000613f7182613f15565b613f7b8185613f20565b9350613f8683613f31565b8060005b83811015613fb7578151613f9e8882613f41565b9750613fa983613f59565b925050600181019050613f8a565b5085935050505092915050565b600081519050919050565b600082825260208201905092915050565b6000819050602082019050919050565b6040820160008201516140066000850182613c09565b5060208201516140196020850182613d3e565b50505050565b600061402b8383613ff0565b60408301905092915050565b6000602082019050919050565b600061404f82613fc4565b6140598185613fcf565b935061406483613fe0565b8060005b8381101561409557815161407c888261401f565b975061408783614037565b925050600181019050614068565b5085935050505092915050565b600060608201905081810360008301526140bc8186613f66565b905081810360208301526140d08185614044565b90506140df6040830184613ad9565b949350505050565b6140f081613846565b82525050565b600060208201905061410b60008301846140e7565b92915050565b600080600080600060a0868803121561412d5761412c61381c565b5b600061413b8882890161386f565b955050602061414c8882890161386f565b945050604061415d888289016138a5565b935050606061416e888289016138a5565b925050608061417f888289016138a5565b9150509295509295909350565b600080600080608085870312156141a6576141a561381c565b5b60006141b48782880161386f565b94505060206141c58782880161386f565b93505060406141d6878288016138a5565b92505060606141e7878288016138a5565b91505092959194509250565b600080fd5b600080fd5b60008083601f840112614213576142126138ba565b5b8235905067ffffffffffffffff8111156142305761422f6141f3565b5b60208301915083602082028301111561424c5761424b6141f8565b5b9250929050565b60008060006040848603121561426c5761426b61381c565b5b600061427a8682870161386f565b935050602084013567ffffffffffffffff81111561429b5761429a613821565b5b6142a7868287016141fd565b92509250509250925092565b600081519050919050565b600082825260208201905092915050565b6000819050602082019050919050565b60008115159050919050565b6142f4816142df565b82525050565b600061430683836142eb565b60208301905092915050565b6000602082019050919050565b600061432a826142b3565b61433481856142be565b935061433f836142cf565b8060005b8381101561437057815161435788826142fa565b975061436283614312565b925050600181019050614343565b5085935050505092915050565b60006040820190508181036000830152614397818561431f565b905081810360208301526143ab8184614044565b90509392505050565b60006040820190506143c960008301856140e7565b6143d66020830184613ad9565b9392505050565b6143e6816142df565b81146143f157600080fd5b50565b600081519050614403816143dd565b92915050565b60006020828403121561441f5761441e61381c565b5b600061442d848285016143f4565b91505092915050565b600082825260208201905092915050565b7f4f7065726174696f6e733a205f6d696e41736b5072696365203c205f6d61784160008201527f736b507269636500000000000000000000000000000000000000000000000000602082015250565b60006144a3602783614436565b91506144ae82614447565b604082019050919050565b600060208201905081810360008301526144d281614496565b9050919050565b60006040820190506144ee6000830185613ad9565b6144fb6020830184613ad9565b9392505050565b7f4e487b7100000000000000000000000000000000000000000000000000000000600052601160045260246000fd5b600061453c82613884565b915061454783613884565b925082820390508181111561455f5761455e614502565b5b92915050565b600061457082613884565b915061457b83613884565b925082820190508082111561459357614592614502565b5b92915050565b7f4e487b7100000000000000000000000000000000000000000000000000000000600052603260045260246000fd5b7f4f7065726174696f6e733a20436f6c6c656374696f6e206e6f74206c6973746560008201527f6400000000000000000000000000000000000000000000000000000000000000602082015250565b6000614624602183614436565b915061462f826145c8565b604082019050919050565b6000602082019050818103600083015261465381614617565b9050919050565b7f4f726465723a205072696365206e6f742077697468696e2072616e6765000000600082015250565b6000614690601d83614436565b915061469b8261465a565b602082019050919050565b600060208201905081810360008301526146bf81614683565b9050919050565b7f436f6c6c656374696f6e3a204e6f7420666f72206c697374696e670000000000600082015250565b60006146fc601b83614436565b9150614707826146c6565b602082019050919050565b6000602082019050818103600083015261472b816146ef565b9050919050565b600060608201905061474760008301866140e7565b61475460208301856140e7565b6147616040830184613ad9565b949350505050565b7f4f7065726174696f6e733a20436f6c6c656374696f6e20616c7265616479206c60008201527f6973746564000000000000000000000000000000000000000000000000000000602082015250565b60006147c5602583614436565b91506147d082614769565b604082019050919050565b600060208201905081810360008301526147f4816147b8565b9050919050565b7f54726164652072657761726420657863656564732063726561746f7220666565600082015250565b6000614831602083614436565b915061483c826147fb565b602082019050919050565b6000602082019050818103600083015261486081614824565b9050919050565b7f4164647265737320307830300000000000000000000000000000000000000000600082015250565b600061489d600c83614436565b91506148a882614867565b602082019050919050565b600060208201905081810360008301526148cc81614890565b9050919050565b7f4f7065726174696f6e733a2053756d206f6620666565206d75737420696e666560008201527f72696f7220746f20544f54414c5f4d41585f4645450000000000000000000000602082015250565b600061492f603583614436565b915061493a826148d3565b604082019050919050565b6000602082019050818103600083015261495e81614922565b9050919050565b600060608201905061497a6000830186613ad9565b6149876020830185613ad9565b6149946040830184613ad9565b949350505050565b7f4f726465723a20546f6b656e206e6f74206c6973746564000000000000000000600082015250565b60006149d2601783614436565b91506149dd8261499c565b602082019050919050565b60006020820190508181036000830152614a01816149c5565b9050919050565b7f43726561746f72206e756c6c2061646472657373000000000000000000000000600082015250565b6000614a3e601483614436565b9150614a4982614a08565b602082019050919050565b60006020820190508181036000830152614a6d81614a31565b9050919050565b7f436f6c6c656374696f6e3a204e6f7420666f722074726164696e670000000000600082015250565b6000614aaa601b83614436565b9150614ab582614a74565b602082019050919050565b60006020820190508181036000830152614ad981614a9d565b9050919050565b7f4275793a204e6f7420666f722073616c65000000000000000000000000000000600082015250565b6000614b16601183614436565b9150614b2182614ae0565b602082019050919050565b60006020820190508181036000830152614b4581614b09565b9050919050565b7f4275793a20496e636f7272656374207072696365000000000000000000000000600082015250565b6000614b82601483614436565b9150614b8d82614b4c565b602082019050919050565b60006020820190508181036000830152614bb181614b75565b9050919050565b7f4275793a2042757965722063616e6e6f742062652073656c6c65720000000000600082015250565b6000614bee601b83614436565b9150614bf982614bb8565b602082019050919050565b60006020820190508181036000830152614c1d81614be1565b9050919050565b60008160011c9050919050565b6000808291508390505b6001851115614c7b57808604811115614c5757614c56614502565b5b6001851615614c665780820291505b8081029050614c7485614c24565b9450614c3b565b94509492505050565b600082614c945760019050614d50565b81614ca25760009050614d50565b8160018114614cb85760028114614cc257614cf1565b6001915050614d50565b60ff841115614cd457614cd3614502565b5b8360020a915084821115614ceb57614cea614502565b5b50614d50565b5060208310610133831016604e8410600b8410161715614d265782820a905083811115614d2157614d20614502565b5b614d50565b614d338484846001614c31565b92509050818404811115614d4a57614d49614502565b5b81810290505b9392505050565b600060ff82169050919050565b6000614d6f82613884565b9150614d7a83614d57565b9250614da77fffffffffffffffffffffffffffffffffffffffffffffffffffffffffffffffff8484614c84565b905092915050565b7f4e487b7100000000000000000000000000000000000000000000000000000000600052601260045260246000fd5b6000614de982613884565b9150614df483613884565b925082614e0457614e03614daf565b5b828204905092915050565b6000614e1a82613884565b9150614e2583613884565b9250828202614e3381613884565b91508282048414831517614e4a57614e49614502565b5b5092915050565b614e5a816142df565b82525050565b6000608082019050614e7560008301876140e7565b614e826020830186613ad9565b614e8f6040830185613ad9565b614e9c6060830184614e51565b95945050505050565b7f4e487b7100000000000000000000000000000000000000000000000000000000600052603160045260246000fdfea264697066735822122064ecb2fa32707011acdf638c2697c8bbee26341b971da4fe13572049808570b464736f6c63430008180033",
          "opcodes": "PUSH1 0xA0 PUSH1 0x40 MSTORE CALLVALUE DUP1 ISZERO PUSH3 0x11 JUMPI PUSH1 0x0 DUP1 REVERT JUMPDEST POP PUSH1 0x40 MLOAD PUSH3 0x55F2 CODESIZE SUB DUP1 PUSH3 0x55F2 DUP4 CODECOPY DUP2 DUP2 ADD PUSH1 0x40 MSTORE DUP2 ADD SWAP1 PUSH3 0x37 SWAP2 SWAP1 PUSH3 0x44C JUMP JUMPDEST DUP4 PUSH1 0x0 PUSH20 0xFFFFFFFFFFFFFFFFFFFFFFFFFFFFFFFFFFFFFFFF AND DUP2 PUSH20 0xFFFFFFFFFFFFFFFFFFFFFFFFFFFFFFFFFFFFFFFF AND SUB PUSH3 0xAD JUMPI PUSH1 0x0 PUSH1 0x40 MLOAD PUSH32 0x1E4FBDF700000000000000000000000000000000000000000000000000000000 DUP2 MSTORE PUSH1 0x4 ADD PUSH3 0xA4 SWAP2 SWAP1 PUSH3 0x4CF JUMP JUMPDEST PUSH1 0x40 MLOAD DUP1 SWAP2 SUB SWAP1 REVERT JUMPDEST PUSH3 0xBE DUP2 PUSH3 0x2E3 PUSH1 0x20 SHL PUSH1 0x20 SHR JUMP JUMPDEST POP PUSH1 0x1 DUP1 DUP2 SWAP1 SSTORE POP PUSH1 0x0 PUSH20 0xFFFFFFFFFFFFFFFFFFFFFFFFFFFFFFFFFFFFFFFF AND DUP5 PUSH20 0xFFFFFFFFFFFFFFFFFFFFFFFFFFFFFFFFFFFFFFFF AND SUB PUSH3 0x138 JUMPI PUSH1 0x40 MLOAD PUSH32 0x8C379A000000000000000000000000000000000000000000000000000000000 DUP2 MSTORE PUSH1 0x4 ADD PUSH3 0x12F SWAP1 PUSH3 0x573 JUMP JUMPDEST PUSH1 0x40 MLOAD DUP1 SWAP2 SUB SWAP1 REVERT JUMPDEST PUSH1 0x0 PUSH20 0xFFFFFFFFFFFFFFFFFFFFFFFFFFFFFFFFFFFFFFFF AND DUP4 PUSH20 0xFFFFFFFFFFFFFFFFFFFFFFFFFFFFFFFFFFFFFFFF AND SUB PUSH3 0x1AA JUMPI PUSH1 0x40 MLOAD PUSH32 0x8C379A000000000000000000000000000000000000000000000000000000000 DUP2 MSTORE PUSH1 0x4 ADD PUSH3 0x1A1 SWAP1 PUSH3 0x60B JUMP JUMPDEST PUSH1 0x40 MLOAD DUP1 SWAP2 SUB SWAP1 REVERT JUMPDEST PUSH1 0x0 PUSH20 0xFFFFFFFFFFFFFFFFFFFFFFFFFFFFFFFFFFFFFFFF AND DUP3 PUSH20 0xFFFFFFFFFFFFFFFFFFFFFFFFFFFFFFFFFFFFFFFF AND SUB PUSH3 0x21C JUMPI PUSH1 0x40 MLOAD PUSH32 0x8C379A000000000000000000000000000000000000000000000000000000000 DUP2 MSTORE PUSH1 0x4 ADD PUSH3 0x213 SWAP1 PUSH3 0x6A3 JUMP JUMPDEST PUSH1 0x40 MLOAD DUP1 SWAP2 SUB SWAP1 REVERT JUMPDEST DUP4 PUSH1 0x2 PUSH1 0x0 PUSH2 0x100 EXP DUP2 SLOAD DUP2 PUSH20 0xFFFFFFFFFFFFFFFFFFFFFFFFFFFFFFFFFFFFFFFF MUL NOT AND SWAP1 DUP4 PUSH20 0xFFFFFFFFFFFFFFFFFFFFFFFFFFFFFFFFFFFFFFFF AND MUL OR SWAP1 SSTORE POP DUP3 PUSH1 0x3 PUSH1 0x0 PUSH2 0x100 EXP DUP2 SLOAD DUP2 PUSH20 0xFFFFFFFFFFFFFFFFFFFFFFFFFFFFFFFFFFFFFFFF MUL NOT AND SWAP1 DUP4 PUSH20 0xFFFFFFFFFFFFFFFFFFFFFFFFFFFFFFFFFFFFFFFF AND MUL OR SWAP1 SSTORE POP DUP2 PUSH20 0xFFFFFFFFFFFFFFFFFFFFFFFFFFFFFFFFFFFFFFFF AND PUSH1 0x80 DUP2 PUSH20 0xFFFFFFFFFFFFFFFFFFFFFFFFFFFFFFFFFFFFFFFF AND DUP2 MSTORE POP POP DUP1 PUSH1 0x6 DUP2 SWAP1 SSTORE POP POP POP POP POP PUSH3 0x6C5 JUMP JUMPDEST PUSH1 0x0 DUP1 PUSH1 0x0 SWAP1 SLOAD SWAP1 PUSH2 0x100 EXP SWAP1 DIV PUSH20 0xFFFFFFFFFFFFFFFFFFFFFFFFFFFFFFFFFFFFFFFF AND SWAP1 POP DUP2 PUSH1 0x0 DUP1 PUSH2 0x100 EXP DUP2 SLOAD DUP2 PUSH20 0xFFFFFFFFFFFFFFFFFFFFFFFFFFFFFFFFFFFFFFFF MUL NOT AND SWAP1 DUP4 PUSH20 0xFFFFFFFFFFFFFFFFFFFFFFFFFFFFFFFFFFFFFFFF AND MUL OR SWAP1 SSTORE POP DUP2 PUSH20 0xFFFFFFFFFFFFFFFFFFFFFFFFFFFFFFFFFFFFFFFF AND DUP2 PUSH20 0xFFFFFFFFFFFFFFFFFFFFFFFFFFFFFFFFFFFFFFFF AND PUSH32 0x8BE0079C531659141344CD1FD0A4F28419497F9722A3DAAFE3B4186F6B6457E0 PUSH1 0x40 MLOAD PUSH1 0x40 MLOAD DUP1 SWAP2 SUB SWAP1 LOG3 POP POP JUMP JUMPDEST PUSH1 0x0 DUP1 REVERT JUMPDEST PUSH1 0x0 PUSH20 0xFFFFFFFFFFFFFFFFFFFFFFFFFFFFFFFFFFFFFFFF DUP3 AND SWAP1 POP SWAP2 SWAP1 POP JUMP JUMPDEST PUSH1 0x0 PUSH3 0x3D9 DUP3 PUSH3 0x3AC JUMP JUMPDEST SWAP1 POP SWAP2 SWAP1 POP JUMP JUMPDEST PUSH3 0x3EB DUP2 PUSH3 0x3CC JUMP JUMPDEST DUP2 EQ PUSH3 0x3F7 JUMPI PUSH1 0x0 DUP1 REVERT JUMPDEST POP JUMP JUMPDEST PUSH1 0x0 DUP2 MLOAD SWAP1 POP PUSH3 0x40B DUP2 PUSH3 0x3E0 JUMP JUMPDEST SWAP3 SWAP2 POP POP JUMP JUMPDEST PUSH1 0x0 DUP2 SWAP1 POP SWAP2 SWAP1 POP JUMP JUMPDEST PUSH3 0x426 DUP2 PUSH3 0x411 JUMP JUMPDEST DUP2 EQ PUSH3 0x432 JUMPI PUSH1 0x0 DUP1 REVERT JUMPDEST POP JUMP JUMPDEST PUSH1 0x0 DUP2 MLOAD SWAP1 POP PUSH3 0x446 DUP2 PUSH3 0x41B JUMP JUMPDEST SWAP3 SWAP2 POP POP JUMP JUMPDEST PUSH1 0x0 DUP1 PUSH1 0x0 DUP1 PUSH1 0x80 DUP6 DUP8 SUB SLT ISZERO PUSH3 0x469 JUMPI PUSH3 0x468 PUSH3 0x3A7 JUMP JUMPDEST JUMPDEST PUSH1 0x0 PUSH3 0x479 DUP8 DUP3 DUP9 ADD PUSH3 0x3FA JUMP JUMPDEST SWAP5 POP POP PUSH1 0x20 PUSH3 0x48C DUP8 DUP3 DUP9 ADD PUSH3 0x3FA JUMP JUMPDEST SWAP4 POP POP PUSH1 0x40 PUSH3 0x49F DUP8 DUP3 DUP9 ADD PUSH3 0x3FA JUMP JUMPDEST SWAP3 POP POP PUSH1 0x60 PUSH3 0x4B2 DUP8 DUP3 DUP9 ADD PUSH3 0x435 JUMP JUMPDEST SWAP2 POP POP SWAP3 SWAP6 SWAP2 SWAP5 POP SWAP3 POP JUMP JUMPDEST PUSH3 0x4C9 DUP2 PUSH3 0x3CC JUMP JUMPDEST DUP3 MSTORE POP POP JUMP JUMPDEST PUSH1 0x0 PUSH1 0x20 DUP3 ADD SWAP1 POP PUSH3 0x4E6 PUSH1 0x0 DUP4 ADD DUP5 PUSH3 0x4BE JUMP JUMPDEST SWAP3 SWAP2 POP POP JUMP JUMPDEST PUSH1 0x0 DUP3 DUP3 MSTORE PUSH1 0x20 DUP3 ADD SWAP1 POP SWAP3 SWAP2 POP POP JUMP JUMPDEST PUSH32 0x4F7065726174696F6E733A2041646D696E20616464726573732063616E6E6F74 PUSH1 0x0 DUP3 ADD MSTORE PUSH32 0x206265207A65726F000000000000000000000000000000000000000000000000 PUSH1 0x20 DUP3 ADD MSTORE POP JUMP JUMPDEST PUSH1 0x0 PUSH3 0x55B PUSH1 0x28 DUP4 PUSH3 0x4EC JUMP JUMPDEST SWAP2 POP PUSH3 0x568 DUP3 PUSH3 0x4FD JUMP JUMPDEST PUSH1 0x40 DUP3 ADD SWAP1 POP SWAP2 SWAP1 POP JUMP JUMPDEST PUSH1 0x0 PUSH1 0x20 DUP3 ADD SWAP1 POP DUP2 DUP2 SUB PUSH1 0x0 DUP4 ADD MSTORE PUSH3 0x58E DUP2 PUSH3 0x54C JUMP JUMPDEST SWAP1 POP SWAP2 SWAP1 POP JUMP JUMPDEST PUSH32 0x4F7065726174696F6E733A20547265617375727920616464726573732063616E PUSH1 0x0 DUP3 ADD MSTORE PUSH32 0x6E6F74206265207A65726F000000000000000000000000000000000000000000 PUSH1 0x20 DUP3 ADD MSTORE POP JUMP JUMPDEST PUSH1 0x0 PUSH3 0x5F3 PUSH1 0x2B DUP4 PUSH3 0x4EC JUMP JUMPDEST SWAP2 POP PUSH3 0x600 DUP3 PUSH3 0x595 JUMP JUMPDEST PUSH1 0x40 DUP3 ADD SWAP1 POP SWAP2 SWAP1 POP JUMP JUMPDEST PUSH1 0x0 PUSH1 0x20 DUP3 ADD SWAP1 POP DUP2 DUP2 SUB PUSH1 0x0 DUP4 ADD MSTORE PUSH3 0x626 DUP2 PUSH3 0x5E4 JUMP JUMPDEST SWAP1 POP SWAP2 SWAP1 POP JUMP JUMPDEST PUSH32 0x4F7065726174696F6E733A204655454C20616464726573732063616E6E6F7420 PUSH1 0x0 DUP3 ADD MSTORE PUSH32 0x6265207A65726F00000000000000000000000000000000000000000000000000 PUSH1 0x20 DUP3 ADD MSTORE POP JUMP JUMPDEST PUSH1 0x0 PUSH3 0x68B PUSH1 0x27 DUP4 PUSH3 0x4EC JUMP JUMPDEST SWAP2 POP PUSH3 0x698 DUP3 PUSH3 0x62D JUMP JUMPDEST PUSH1 0x40 DUP3 ADD SWAP1 POP SWAP2 SWAP1 POP JUMP JUMPDEST PUSH1 0x0 PUSH1 0x20 DUP3 ADD SWAP1 POP DUP2 DUP2 SUB PUSH1 0x0 DUP4 ADD MSTORE PUSH3 0x6BE DUP2 PUSH3 0x67C JUMP JUMPDEST SWAP1 POP SWAP2 SWAP1 POP JUMP JUMPDEST PUSH1 0x80 MLOAD PUSH2 0x4F0A PUSH3 0x6E8 PUSH1 0x0 CODECOPY PUSH1 0x0 DUP2 DUP2 PUSH2 0x906 ADD MSTORE PUSH2 0x1D5A ADD MSTORE PUSH2 0x4F0A PUSH1 0x0 RETURN INVALID PUSH1 0x80 PUSH1 0x40 MSTORE PUSH1 0x4 CALLDATASIZE LT PUSH2 0x1CD JUMPI PUSH1 0x0 CALLDATALOAD PUSH1 0xE0 SHR DUP1 PUSH4 0x84A40864 GT PUSH2 0xF7 JUMPI DUP1 PUSH4 0xA3606F89 GT PUSH2 0x95 JUMPI DUP1 PUSH4 0xDFF5F08C GT PUSH2 0x64 JUMPI DUP1 PUSH4 0xDFF5F08C EQ PUSH2 0x65A JUMPI DUP1 PUSH4 0xEA7F47C8 EQ PUSH2 0x685 JUMPI DUP1 PUSH4 0xF2FDE38B EQ PUSH2 0x6C3 JUMPI DUP1 PUSH4 0xFC6F9468 EQ PUSH2 0x6EC JUMPI PUSH2 0x1CD JUMP JUMPDEST DUP1 PUSH4 0xA3606F89 EQ PUSH2 0x59C JUMPI DUP1 PUSH4 0xC5F956AF EQ PUSH2 0x5DB JUMPI DUP1 PUSH4 0xC8EBA03E EQ PUSH2 0x606 JUMPI DUP1 PUSH4 0xD9CC6C0C EQ PUSH2 0x62F JUMPI PUSH2 0x1CD JUMP JUMPDEST DUP1 PUSH4 0x95F42098 GT PUSH2 0xD1 JUMPI DUP1 PUSH4 0x95F42098 EQ PUSH2 0x4E2 JUMPI DUP1 PUSH4 0x98351F3A EQ PUSH2 0x50B JUMPI DUP1 PUSH4 0x9A2FA9BB EQ PUSH2 0x536 JUMPI DUP1 PUSH4 0x9B2ADCDC EQ PUSH2 0x573 JUMPI PUSH2 0x1CD JUMP JUMPDEST DUP1 PUSH4 0x84A40864 EQ PUSH2 0x44F JUMPI DUP1 PUSH4 0x8DA5CB5B EQ PUSH2 0x48E JUMPI DUP1 PUSH4 0x94B1A70F EQ PUSH2 0x4B9 JUMPI PUSH2 0x1CD JUMP JUMPDEST DUP1 PUSH4 0x503FC5CB GT PUSH2 0x16F JUMPI DUP1 PUSH4 0x6DF8CD13 GT PUSH2 0x13E JUMPI DUP1 PUSH4 0x6DF8CD13 EQ PUSH2 0x3A4 JUMPI DUP1 PUSH4 0x715018A6 EQ PUSH2 0x3CF JUMPI DUP1 PUSH4 0x7A62DEFD EQ PUSH2 0x3E6 JUMPI DUP1 PUSH4 0x803B64A1 EQ PUSH2 0x426 JUMPI PUSH2 0x1CD JUMP JUMPDEST DUP1 PUSH4 0x503FC5CB EQ PUSH2 0x2F7 JUMPI DUP1 PUSH4 0x51C383EA EQ PUSH2 0x313 JUMPI DUP1 PUSH4 0x5DCE1E76 EQ PUSH2 0x352 JUMPI DUP1 PUSH4 0x683514D9 EQ PUSH2 0x37B JUMPI PUSH2 0x1CD JUMP JUMPDEST DUP1 PUSH4 0x286DF8B1 GT PUSH2 0x1AB JUMPI DUP1 PUSH4 0x286DF8B1 EQ PUSH2 0x251 JUMPI DUP1 PUSH4 0x31D7A262 EQ PUSH2 0x27A JUMPI DUP1 PUSH4 0x372500AB EQ PUSH2 0x2B7 JUMPI DUP1 PUSH4 0x3BBD391E EQ PUSH2 0x2CE JUMPI PUSH2 0x1CD JUMP JUMPDEST DUP1 PUSH4 0x69B7820 EQ PUSH2 0x1D2 JUMPI DUP1 PUSH4 0x150B7A02 EQ PUSH2 0x1E9 JUMPI DUP1 PUSH4 0x209CBE7E EQ PUSH2 0x226 JUMPI JUMPDEST PUSH1 0x0 DUP1 REVERT JUMPDEST CALLVALUE DUP1 ISZERO PUSH2 0x1DE JUMPI PUSH1 0x0 DUP1 REVERT JUMPDEST POP PUSH2 0x1E7 PUSH2 0x717 JUMP JUMPDEST STOP JUMPDEST CALLVALUE DUP1 ISZERO PUSH2 0x1F5 JUMPI PUSH1 0x0 DUP1 REVERT JUMPDEST POP PUSH2 0x210 PUSH1 0x4 DUP1 CALLDATASIZE SUB DUP2 ADD SWAP1 PUSH2 0x20B SWAP2 SWAP1 PUSH2 0x3A00 JUMP JUMPDEST PUSH2 0x881 JUMP JUMPDEST PUSH1 0x40 MLOAD PUSH2 0x21D SWAP2 SWAP1 PUSH2 0x3ABE JUMP JUMPDEST PUSH1 0x40 MLOAD DUP1 SWAP2 SUB SWAP1 RETURN JUMPDEST CALLVALUE DUP1 ISZERO PUSH2 0x232 JUMPI PUSH1 0x0 DUP1 REVERT JUMPDEST POP PUSH2 0x23B PUSH2 0x895 JUMP JUMPDEST PUSH1 0x40 MLOAD PUSH2 0x248 SWAP2 SWAP1 PUSH2 0x3AE8 JUMP JUMPDEST PUSH1 0x40 MLOAD DUP1 SWAP2 SUB SWAP1 RETURN JUMPDEST CALLVALUE DUP1 ISZERO PUSH2 0x25D JUMPI PUSH1 0x0 DUP1 REVERT JUMPDEST POP PUSH2 0x278 PUSH1 0x4 DUP1 CALLDATASIZE SUB DUP2 ADD SWAP1 PUSH2 0x273 SWAP2 SWAP1 PUSH2 0x3B03 JUMP JUMPDEST PUSH2 0x89B JUMP JUMPDEST STOP JUMPDEST CALLVALUE DUP1 ISZERO PUSH2 0x286 JUMPI PUSH1 0x0 DUP1 REVERT JUMPDEST POP PUSH2 0x2A1 PUSH1 0x4 DUP1 CALLDATASIZE SUB DUP2 ADD SWAP1 PUSH2 0x29C SWAP2 SWAP1 PUSH2 0x3B30 JUMP JUMPDEST PUSH2 0x8E4 JUMP JUMPDEST PUSH1 0x40 MLOAD PUSH2 0x2AE SWAP2 SWAP1 PUSH2 0x3AE8 JUMP JUMPDEST PUSH1 0x40 MLOAD DUP1 SWAP2 SUB SWAP1 RETURN JUMPDEST CALLVALUE DUP1 ISZERO PUSH2 0x2C3 JUMPI PUSH1 0x0 DUP1 REVERT JUMPDEST POP PUSH2 0x2CC PUSH2 0x8FC JUMP JUMPDEST STOP JUMPDEST CALLVALUE DUP1 ISZERO PUSH2 0x2DA JUMPI PUSH1 0x0 DUP1 REVERT JUMPDEST POP PUSH2 0x2F5 PUSH1 0x4 DUP1 CALLDATASIZE SUB DUP2 ADD SWAP1 PUSH2 0x2F0 SWAP2 SWAP1 PUSH2 0x3B5D JUMP JUMPDEST PUSH2 0xABE JUMP JUMPDEST STOP JUMPDEST PUSH2 0x311 PUSH1 0x4 DUP1 CALLDATASIZE SUB DUP2 ADD SWAP1 PUSH2 0x30C SWAP2 SWAP1 PUSH2 0x3B9D JUMP JUMPDEST PUSH2 0xB53 JUMP JUMPDEST STOP JUMPDEST CALLVALUE DUP1 ISZERO PUSH2 0x31F JUMPI PUSH1 0x0 DUP1 REVERT JUMPDEST POP PUSH2 0x33A PUSH1 0x4 DUP1 CALLDATASIZE SUB DUP2 ADD SWAP1 PUSH2 0x335 SWAP2 SWAP1 PUSH2 0x3B5D JUMP JUMPDEST PUSH2 0xB74 JUMP JUMPDEST PUSH1 0x40 MLOAD PUSH2 0x349 SWAP4 SWAP3 SWAP2 SWAP1 PUSH2 0x3E38 JUMP JUMPDEST PUSH1 0x40 MLOAD DUP1 SWAP2 SUB SWAP1 RETURN JUMPDEST CALLVALUE DUP1 ISZERO PUSH2 0x35E JUMPI PUSH1 0x0 DUP1 REVERT JUMPDEST POP PUSH2 0x379 PUSH1 0x4 DUP1 CALLDATASIZE SUB DUP2 ADD SWAP1 PUSH2 0x374 SWAP2 SWAP1 PUSH2 0x3B30 JUMP JUMPDEST PUSH2 0xE24 JUMP JUMPDEST STOP JUMPDEST CALLVALUE DUP1 ISZERO PUSH2 0x387 JUMPI PUSH1 0x0 DUP1 REVERT JUMPDEST POP PUSH2 0x3A2 PUSH1 0x4 DUP1 CALLDATASIZE SUB DUP2 ADD SWAP1 PUSH2 0x39D SWAP2 SWAP1 PUSH2 0x3B30 JUMP JUMPDEST PUSH2 0xF30 JUMP JUMPDEST STOP JUMPDEST CALLVALUE DUP1 ISZERO PUSH2 0x3B0 JUMPI PUSH1 0x0 DUP1 REVERT JUMPDEST POP PUSH2 0x3B9 PUSH2 0x103C JUMP JUMPDEST PUSH1 0x40 MLOAD PUSH2 0x3C6 SWAP2 SWAP1 PUSH2 0x3AE8 JUMP JUMPDEST PUSH1 0x40 MLOAD DUP1 SWAP2 SUB SWAP1 RETURN JUMPDEST CALLVALUE DUP1 ISZERO PUSH2 0x3DB JUMPI PUSH1 0x0 DUP1 REVERT JUMPDEST POP PUSH2 0x3E4 PUSH2 0x1042 JUMP JUMPDEST STOP JUMPDEST CALLVALUE DUP1 ISZERO PUSH2 0x3F2 JUMPI PUSH1 0x0 DUP1 REVERT JUMPDEST POP PUSH2 0x40D PUSH1 0x4 DUP1 CALLDATASIZE SUB DUP2 ADD SWAP1 PUSH2 0x408 SWAP2 SWAP1 PUSH2 0x3B9D JUMP JUMPDEST PUSH2 0x1056 JUMP JUMPDEST PUSH1 0x40 MLOAD PUSH2 0x41D SWAP5 SWAP4 SWAP3 SWAP2 SWAP1 PUSH2 0x3E7D JUMP JUMPDEST PUSH1 0x40 MLOAD DUP1 SWAP2 SUB SWAP1 RETURN JUMPDEST CALLVALUE DUP1 ISZERO PUSH2 0x432 JUMPI PUSH1 0x0 DUP1 REVERT JUMPDEST POP PUSH2 0x44D PUSH1 0x4 DUP1 CALLDATASIZE SUB DUP2 ADD SWAP1 PUSH2 0x448 SWAP2 SWAP1 PUSH2 0x3EC2 JUMP JUMPDEST PUSH2 0x1077 JUMP JUMPDEST STOP JUMPDEST CALLVALUE DUP1 ISZERO PUSH2 0x45B JUMPI PUSH1 0x0 DUP1 REVERT JUMPDEST POP PUSH2 0x476 PUSH1 0x4 DUP1 CALLDATASIZE SUB DUP2 ADD SWAP1 PUSH2 0x471 SWAP2 SWAP1 PUSH2 0x3EC2 JUMP JUMPDEST PUSH2 0x141A JUMP JUMPDEST PUSH1 0x40 MLOAD PUSH2 0x485 SWAP4 SWAP3 SWAP2 SWAP1 PUSH2 0x40A2 JUMP JUMPDEST PUSH1 0x40 MLOAD DUP1 SWAP2 SUB SWAP1 RETURN JUMPDEST CALLVALUE DUP1 ISZERO PUSH2 0x49A JUMPI PUSH1 0x0 DUP1 REVERT JUMPDEST POP PUSH2 0x4A3 PUSH2 0x1717 JUMP JUMPDEST PUSH1 0x40 MLOAD PUSH2 0x4B0 SWAP2 SWAP1 PUSH2 0x40F6 JUMP JUMPDEST PUSH1 0x40 MLOAD DUP1 SWAP2 SUB SWAP1 RETURN JUMPDEST CALLVALUE DUP1 ISZERO PUSH2 0x4C5 JUMPI PUSH1 0x0 DUP1 REVERT JUMPDEST POP PUSH2 0x4E0 PUSH1 0x4 DUP1 CALLDATASIZE SUB DUP2 ADD SWAP1 PUSH2 0x4DB SWAP2 SWAP1 PUSH2 0x4111 JUMP JUMPDEST PUSH2 0x1740 JUMP JUMPDEST STOP JUMPDEST CALLVALUE DUP1 ISZERO PUSH2 0x4EE JUMPI PUSH1 0x0 DUP1 REVERT JUMPDEST POP PUSH2 0x509 PUSH1 0x4 DUP1 CALLDATASIZE SUB DUP2 ADD SWAP1 PUSH2 0x504 SWAP2 SWAP1 PUSH2 0x3B9D JUMP JUMPDEST PUSH2 0x1A4A JUMP JUMPDEST STOP JUMPDEST CALLVALUE DUP1 ISZERO PUSH2 0x517 JUMPI PUSH1 0x0 DUP1 REVERT JUMPDEST POP PUSH2 0x520 PUSH2 0x1D58 JUMP JUMPDEST PUSH1 0x40 MLOAD PUSH2 0x52D SWAP2 SWAP1 PUSH2 0x40F6 JUMP JUMPDEST PUSH1 0x40 MLOAD DUP1 SWAP2 SUB SWAP1 RETURN JUMPDEST CALLVALUE DUP1 ISZERO PUSH2 0x542 JUMPI PUSH1 0x0 DUP1 REVERT JUMPDEST POP PUSH2 0x55D PUSH1 0x4 DUP1 CALLDATASIZE SUB DUP2 ADD SWAP1 PUSH2 0x558 SWAP2 SWAP1 PUSH2 0x3B30 JUMP JUMPDEST PUSH2 0x1D7C JUMP JUMPDEST PUSH1 0x40 MLOAD PUSH2 0x56A SWAP2 SWAP1 PUSH2 0x3AE8 JUMP JUMPDEST PUSH1 0x40 MLOAD DUP1 SWAP2 SUB SWAP1 RETURN JUMPDEST CALLVALUE DUP1 ISZERO PUSH2 0x57F JUMPI PUSH1 0x0 DUP1 REVERT JUMPDEST POP PUSH2 0x59A PUSH1 0x4 DUP1 CALLDATASIZE SUB DUP2 ADD SWAP1 PUSH2 0x595 SWAP2 SWAP1 PUSH2 0x3EC2 JUMP JUMPDEST PUSH2 0x1D94 JUMP JUMPDEST STOP JUMPDEST CALLVALUE DUP1 ISZERO PUSH2 0x5A8 JUMPI PUSH1 0x0 DUP1 REVERT JUMPDEST POP PUSH2 0x5C3 PUSH1 0x4 DUP1 CALLDATASIZE SUB DUP2 ADD SWAP1 PUSH2 0x5BE SWAP2 SWAP1 PUSH2 0x418C JUMP JUMPDEST PUSH2 0x203D JUMP JUMPDEST PUSH1 0x40 MLOAD PUSH2 0x5D2 SWAP4 SWAP3 SWAP2 SWAP1 PUSH2 0x40A2 JUMP JUMPDEST PUSH1 0x40 MLOAD DUP1 SWAP2 SUB SWAP1 RETURN JUMPDEST CALLVALUE DUP1 ISZERO PUSH2 0x5E7 JUMPI PUSH1 0x0 DUP1 REVERT JUMPDEST POP PUSH2 0x5F0 PUSH2 0x23F2 JUMP JUMPDEST PUSH1 0x40 MLOAD PUSH2 0x5FD SWAP2 SWAP1 PUSH2 0x40F6 JUMP JUMPDEST PUSH1 0x40 MLOAD DUP1 SWAP2 SUB SWAP1 RETURN JUMPDEST CALLVALUE DUP1 ISZERO PUSH2 0x612 JUMPI PUSH1 0x0 DUP1 REVERT JUMPDEST POP PUSH2 0x62D PUSH1 0x4 DUP1 CALLDATASIZE SUB DUP2 ADD SWAP1 PUSH2 0x628 SWAP2 SWAP1 PUSH2 0x4111 JUMP JUMPDEST PUSH2 0x2418 JUMP JUMPDEST STOP JUMPDEST CALLVALUE DUP1 ISZERO PUSH2 0x63B JUMPI PUSH1 0x0 DUP1 REVERT JUMPDEST POP PUSH2 0x644 PUSH2 0x270C JUMP JUMPDEST PUSH1 0x40 MLOAD PUSH2 0x651 SWAP2 SWAP1 PUSH2 0x3AE8 JUMP JUMPDEST PUSH1 0x40 MLOAD DUP1 SWAP2 SUB SWAP1 RETURN JUMPDEST CALLVALUE DUP1 ISZERO PUSH2 0x666 JUMPI PUSH1 0x0 DUP1 REVERT JUMPDEST POP PUSH2 0x66F PUSH2 0x2712 JUMP JUMPDEST PUSH1 0x40 MLOAD PUSH2 0x67C SWAP2 SWAP1 PUSH2 0x3AE8 JUMP JUMPDEST PUSH1 0x40 MLOAD DUP1 SWAP2 SUB SWAP1 RETURN JUMPDEST CALLVALUE DUP1 ISZERO PUSH2 0x691 JUMPI PUSH1 0x0 DUP1 REVERT JUMPDEST POP PUSH2 0x6AC PUSH1 0x4 DUP1 CALLDATASIZE SUB DUP2 ADD SWAP1 PUSH2 0x6A7 SWAP2 SWAP1 PUSH2 0x4253 JUMP JUMPDEST PUSH2 0x2718 JUMP JUMPDEST PUSH1 0x40 MLOAD PUSH2 0x6BA SWAP3 SWAP2 SWAP1 PUSH2 0x437D JUMP JUMPDEST PUSH1 0x40 MLOAD DUP1 SWAP2 SUB SWAP1 RETURN JUMPDEST CALLVALUE DUP1 ISZERO PUSH2 0x6CF JUMPI PUSH1 0x0 DUP1 REVERT JUMPDEST POP PUSH2 0x6EA PUSH1 0x4 DUP1 CALLDATASIZE SUB DUP2 ADD SWAP1 PUSH2 0x6E5 SWAP2 SWAP1 PUSH2 0x3B30 JUMP JUMPDEST PUSH2 0x299B JUMP JUMPDEST STOP JUMPDEST CALLVALUE DUP1 ISZERO PUSH2 0x6F8 JUMPI PUSH1 0x0 DUP1 REVERT JUMPDEST POP PUSH2 0x701 PUSH2 0x2A21 JUMP JUMPDEST PUSH1 0x40 MLOAD PUSH2 0x70E SWAP2 SWAP1 PUSH2 0x40F6 JUMP JUMPDEST PUSH1 0x40 MLOAD DUP1 SWAP2 SUB SWAP1 RETURN JUMPDEST PUSH2 0x71F PUSH2 0x2A47 JUMP JUMPDEST CALLER PUSH20 0xFFFFFFFFFFFFFFFFFFFFFFFFFFFFFFFFFFFFFFFF AND PUSH2 0x8FC PUSH1 0x7 PUSH1 0x0 CALLER PUSH20 0xFFFFFFFFFFFFFFFFFFFFFFFFFFFFFFFFFFFFFFFF AND PUSH20 0xFFFFFFFFFFFFFFFFFFFFFFFFFFFFFFFFFFFFFFFF AND DUP2 MSTORE PUSH1 0x20 ADD SWAP1 DUP2 MSTORE PUSH1 0x20 ADD PUSH1 0x0 KECCAK256 SLOAD SWAP1 DUP2 ISZERO MUL SWAP1 PUSH1 0x40 MLOAD PUSH1 0x0 PUSH1 0x40 MLOAD DUP1 DUP4 SUB DUP2 DUP6 DUP9 DUP9 CALL SWAP4 POP POP POP POP ISZERO DUP1 ISZERO PUSH2 0x7A4 JUMPI RETURNDATASIZE PUSH1 0x0 DUP1 RETURNDATACOPY RETURNDATASIZE PUSH1 0x0 REVERT JUMPDEST POP CALLER PUSH20 0xFFFFFFFFFFFFFFFFFFFFFFFFFFFFFFFFFFFFFFFF AND PUSH32 0xB8179B03C7934F30968AC9A02B224C0554C475E358D19B8E1A299D7F29FE4E12 PUSH1 0x7 PUSH1 0x0 CALLER PUSH20 0xFFFFFFFFFFFFFFFFFFFFFFFFFFFFFFFFFFFFFFFF AND PUSH20 0xFFFFFFFFFFFFFFFFFFFFFFFFFFFFFFFFFFFFFFFF AND DUP2 MSTORE PUSH1 0x20 ADD SWAP1 DUP2 MSTORE PUSH1 0x20 ADD PUSH1 0x0 KECCAK256 SLOAD PUSH1 0x40 MLOAD PUSH2 0x82A SWAP2 SWAP1 PUSH2 0x3AE8 JUMP JUMPDEST PUSH1 0x40 MLOAD DUP1 SWAP2 SUB SWAP1 LOG2 PUSH1 0x0 PUSH1 0x7 PUSH1 0x0 CALLER PUSH20 0xFFFFFFFFFFFFFFFFFFFFFFFFFFFFFFFFFFFFFFFF AND PUSH20 0xFFFFFFFFFFFFFFFFFFFFFFFFFFFFFFFFFFFFFFFF AND DUP2 MSTORE PUSH1 0x20 ADD SWAP1 DUP2 MSTORE PUSH1 0x20 ADD PUSH1 0x0 KECCAK256 DUP2 SWAP1 SSTORE POP PUSH2 0x87F PUSH2 0x2A8D JUMP JUMPDEST JUMP JUMPDEST PUSH1 0x0 PUSH4 0x150B7A02 PUSH1 0xE0 SHL SWAP1 POP SWAP5 SWAP4 POP POP POP POP JUMP JUMPDEST PUSH2 0xBB8 DUP2 JUMP JUMPDEST PUSH2 0x8A3 PUSH2 0x2A96 JUMP JUMPDEST DUP1 PUSH1 0x6 DUP2 SWAP1 SSTORE POP PUSH32 0x14F85022C6C3F8388A9826681AD16713DD725C53965E52844CFD110E6BB465C2 DUP2 PUSH1 0x40 MLOAD PUSH2 0x8D9 SWAP2 SWAP1 PUSH2 0x3AE8 JUMP JUMPDEST PUSH1 0x40 MLOAD DUP1 SWAP2 SUB SWAP1 LOG1 POP JUMP JUMPDEST PUSH1 0x8 PUSH1 0x20 MSTORE DUP1 PUSH1 0x0 MSTORE PUSH1 0x40 PUSH1 0x0 KECCAK256 PUSH1 0x0 SWAP2 POP SWAP1 POP SLOAD DUP2 JUMP JUMPDEST PUSH2 0x904 PUSH2 0x2A47 JUMP JUMPDEST PUSH32 0x0 PUSH20 0xFFFFFFFFFFFFFFFFFFFFFFFFFFFFFFFFFFFFFFFF AND PUSH4 0xA9059CBB CALLER PUSH1 0x8 PUSH1 0x0 CALLER PUSH20 0xFFFFFFFFFFFFFFFFFFFFFFFFFFFFFFFFFFFFFFFF AND PUSH20 0xFFFFFFFFFFFFFFFFFFFFFFFFFFFFFFFFFFFFFFFF AND DUP2 MSTORE PUSH1 0x20 ADD SWAP1 DUP2 MSTORE PUSH1 0x20 ADD PUSH1 0x0 KECCAK256 SLOAD PUSH1 0x40 MLOAD DUP4 PUSH4 0xFFFFFFFF AND PUSH1 0xE0 SHL DUP2 MSTORE PUSH1 0x4 ADD PUSH2 0x99E SWAP3 SWAP2 SWAP1 PUSH2 0x43B4 JUMP JUMPDEST PUSH1 0x20 PUSH1 0x40 MLOAD DUP1 DUP4 SUB DUP2 PUSH1 0x0 DUP8 GAS CALL ISZERO DUP1 ISZERO PUSH2 0x9BD JUMPI RETURNDATASIZE PUSH1 0x0 DUP1 RETURNDATACOPY RETURNDATASIZE PUSH1 0x0 REVERT JUMPDEST POP POP POP POP PUSH1 0x40 MLOAD RETURNDATASIZE PUSH1 0x1F NOT PUSH1 0x1F DUP3 ADD AND DUP3 ADD DUP1 PUSH1 0x40 MSTORE POP DUP2 ADD SWAP1 PUSH2 0x9E1 SWAP2 SWAP1 PUSH2 0x4409 JUMP JUMPDEST POP CALLER PUSH20 0xFFFFFFFFFFFFFFFFFFFFFFFFFFFFFFFFFFFFFFFF AND PUSH32 0xF0193AF62631CC04F42841D590C093E885B44520CBB14DC573193023F80CB284 PUSH1 0x8 PUSH1 0x0 CALLER PUSH20 0xFFFFFFFFFFFFFFFFFFFFFFFFFFFFFFFFFFFFFFFF AND PUSH20 0xFFFFFFFFFFFFFFFFFFFFFFFFFFFFFFFFFFFFFFFF AND DUP2 MSTORE PUSH1 0x20 ADD SWAP1 DUP2 MSTORE PUSH1 0x20 ADD PUSH1 0x0 KECCAK256 SLOAD PUSH1 0x40 MLOAD PUSH2 0xA67 SWAP2 SWAP1 PUSH2 0x3AE8 JUMP JUMPDEST PUSH1 0x40 MLOAD DUP1 SWAP2 SUB SWAP1 LOG2 PUSH1 0x0 PUSH1 0x8 PUSH1 0x0 CALLER PUSH20 0xFFFFFFFFFFFFFFFFFFFFFFFFFFFFFFFFFFFFFFFF AND PUSH20 0xFFFFFFFFFFFFFFFFFFFFFFFFFFFFFFFFFFFFFFFF AND DUP2 MSTORE PUSH1 0x20 ADD SWAP1 DUP2 MSTORE PUSH1 0x20 ADD PUSH1 0x0 KECCAK256 DUP2 SWAP1 SSTORE POP PUSH2 0xABC PUSH2 0x2A8D JUMP JUMPDEST JUMP JUMPDEST PUSH2 0xAC6 PUSH2 0x2A96 JUMP JUMPDEST DUP1 DUP3 LT PUSH2 0xB08 JUMPI PUSH1 0x40 MLOAD PUSH32 0x8C379A000000000000000000000000000000000000000000000000000000000 DUP2 MSTORE PUSH1 0x4 ADD PUSH2 0xAFF SWAP1 PUSH2 0x44B9 JUMP JUMPDEST PUSH1 0x40 MLOAD DUP1 SWAP2 SUB SWAP1 REVERT JUMPDEST DUP2 PUSH1 0x4 DUP2 SWAP1 SSTORE POP DUP1 PUSH1 0x5 DUP2 SWAP1 SSTORE POP PUSH32 0xC0F43814D5418EABE550E8A5E620534A153D7B795DCF2E69D6BFA943C0DF16BF DUP3 DUP3 PUSH1 0x40 MLOAD PUSH2 0xB47 SWAP3 SWAP2 SWAP1 PUSH2 0x44D9 JUMP JUMPDEST PUSH1 0x40 MLOAD DUP1 SWAP2 SUB SWAP1 LOG1 POP POP JUMP JUMPDEST PUSH2 0xB5B PUSH2 0x2A47 JUMP JUMPDEST PUSH2 0xB68 DUP3 DUP3 CALLVALUE PUSH1 0x1 PUSH2 0x2B1D JUMP JUMPDEST PUSH2 0xB70 PUSH2 0x2A8D JUMP JUMPDEST POP POP JUMP JUMPDEST PUSH1 0x60 DUP1 PUSH1 0x0 DUP1 DUP5 SWAP1 POP DUP6 PUSH2 0xB88 PUSH1 0x9 PUSH2 0x3239 JUMP JUMPDEST PUSH2 0xB92 SWAP2 SWAP1 PUSH2 0x4531 JUMP JUMPDEST DUP2 GT ISZERO PUSH2 0xBB1 JUMPI DUP6 PUSH2 0xBA4 PUSH1 0x9 PUSH2 0x3239 JUMP JUMPDEST PUSH2 0xBAE SWAP2 SWAP1 PUSH2 0x4531 JUMP JUMPDEST SWAP1 POP JUMPDEST DUP1 PUSH8 0xFFFFFFFFFFFFFFFF DUP2 GT ISZERO PUSH2 0xBCB JUMPI PUSH2 0xBCA PUSH2 0x38D5 JUMP JUMPDEST JUMPDEST PUSH1 0x40 MLOAD SWAP1 DUP1 DUP3 MSTORE DUP1 PUSH1 0x20 MUL PUSH1 0x20 ADD DUP3 ADD PUSH1 0x40 MSTORE DUP1 ISZERO PUSH2 0xBF9 JUMPI DUP2 PUSH1 0x20 ADD PUSH1 0x20 DUP3 MUL DUP1 CALLDATASIZE DUP4 CALLDATACOPY DUP1 DUP3 ADD SWAP2 POP POP SWAP1 POP JUMPDEST POP SWAP4 POP DUP1 PUSH8 0xFFFFFFFFFFFFFFFF DUP2 GT ISZERO PUSH2 0xC16 JUMPI PUSH2 0xC15 PUSH2 0x38D5 JUMP JUMPDEST JUMPDEST PUSH1 0x40 MLOAD SWAP1 DUP1 DUP3 MSTORE DUP1 PUSH1 0x20 MUL PUSH1 0x20 ADD DUP3 ADD PUSH1 0x40 MSTORE DUP1 ISZERO PUSH2 0xC4F JUMPI DUP2 PUSH1 0x20 ADD JUMPDEST PUSH2 0xC3C PUSH2 0x378B JUMP JUMPDEST DUP2 MSTORE PUSH1 0x20 ADD SWAP1 PUSH1 0x1 SWAP1 SUB SWAP1 DUP2 PUSH2 0xC34 JUMPI SWAP1 POP JUMPDEST POP SWAP3 POP PUSH1 0x0 JUMPDEST DUP2 DUP2 LT ISZERO PUSH2 0xE07 JUMPI PUSH2 0xC7C DUP2 DUP9 PUSH2 0xC6C SWAP2 SWAP1 PUSH2 0x4565 JUMP JUMPDEST PUSH1 0x9 PUSH2 0x324E SWAP1 SWAP2 SWAP1 PUSH4 0xFFFFFFFF AND JUMP JUMPDEST DUP6 DUP3 DUP2 MLOAD DUP2 LT PUSH2 0xC8F JUMPI PUSH2 0xC8E PUSH2 0x4599 JUMP JUMPDEST JUMPDEST PUSH1 0x20 MUL PUSH1 0x20 ADD ADD SWAP1 PUSH20 0xFFFFFFFFFFFFFFFFFFFFFFFFFFFFFFFFFFFFFFFF AND SWAP1 DUP2 PUSH20 0xFFFFFFFFFFFFFFFFFFFFFFFFFFFFFFFFFFFFFFFF AND DUP2 MSTORE POP POP PUSH1 0xD PUSH1 0x0 DUP7 DUP4 DUP2 MLOAD DUP2 LT PUSH2 0xCE0 JUMPI PUSH2 0xCDF PUSH2 0x4599 JUMP JUMPDEST JUMPDEST PUSH1 0x20 MUL PUSH1 0x20 ADD ADD MLOAD PUSH20 0xFFFFFFFFFFFFFFFFFFFFFFFFFFFFFFFFFFFFFFFF AND PUSH20 0xFFFFFFFFFFFFFFFFFFFFFFFFFFFFFFFFFFFFFFFF AND DUP2 MSTORE PUSH1 0x20 ADD SWAP1 DUP2 MSTORE PUSH1 0x20 ADD PUSH1 0x0 KECCAK256 PUSH1 0x40 MLOAD DUP1 PUSH1 0xA0 ADD PUSH1 0x40 MSTORE SWAP1 DUP2 PUSH1 0x0 DUP3 ADD PUSH1 0x0 SWAP1 SLOAD SWAP1 PUSH2 0x100 EXP SWAP1 DIV PUSH1 0xFF AND PUSH1 0x2 DUP2 GT ISZERO PUSH2 0xD52 JUMPI PUSH2 0xD51 PUSH2 0x3CC7 JUMP JUMPDEST JUMPDEST PUSH1 0x2 DUP2 GT ISZERO PUSH2 0xD64 JUMPI PUSH2 0xD63 PUSH2 0x3CC7 JUMP JUMPDEST JUMPDEST DUP2 MSTORE PUSH1 0x20 ADD PUSH1 0x0 DUP3 ADD PUSH1 0x1 SWAP1 SLOAD SWAP1 PUSH2 0x100 EXP SWAP1 DIV PUSH20 0xFFFFFFFFFFFFFFFFFFFFFFFFFFFFFFFFFFFFFFFF AND PUSH20 0xFFFFFFFFFFFFFFFFFFFFFFFFFFFFFFFFFFFFFFFF AND PUSH20 0xFFFFFFFFFFFFFFFFFFFFFFFFFFFFFFFFFFFFFFFF AND DUP2 MSTORE PUSH1 0x20 ADD PUSH1 0x1 DUP3 ADD SLOAD DUP2 MSTORE PUSH1 0x20 ADD PUSH1 0x2 DUP3 ADD SLOAD DUP2 MSTORE PUSH1 0x20 ADD PUSH1 0x3 DUP3 ADD SLOAD DUP2 MSTORE POP POP DUP5 DUP3 DUP2 MLOAD DUP2 LT PUSH2 0xDEF JUMPI PUSH2 0xDEE PUSH2 0x4599 JUMP JUMPDEST JUMPDEST PUSH1 0x20 MUL PUSH1 0x20 ADD ADD DUP2 SWAP1 MSTORE POP DUP1 DUP1 PUSH1 0x1 ADD SWAP2 POP POP PUSH2 0xC55 JUMP JUMPDEST POP DUP4 DUP4 DUP3 DUP9 PUSH2 0xE16 SWAP2 SWAP1 PUSH2 0x4565 JUMP JUMPDEST SWAP4 POP SWAP4 POP SWAP4 POP POP SWAP3 POP SWAP3 POP SWAP3 JUMP JUMPDEST PUSH2 0xE2C PUSH2 0x2A96 JUMP JUMPDEST PUSH2 0xE40 DUP2 PUSH1 0x9 PUSH2 0x3268 SWAP1 SWAP2 SWAP1 PUSH4 0xFFFFFFFF AND JUMP JUMPDEST PUSH2 0xE7F JUMPI PUSH1 0x40 MLOAD PUSH32 0x8C379A000000000000000000000000000000000000000000000000000000000 DUP2 MSTORE PUSH1 0x4 ADD PUSH2 0xE76 SWAP1 PUSH2 0x463A JUMP JUMPDEST PUSH1 0x40 MLOAD DUP1 SWAP2 SUB SWAP1 REVERT JUMPDEST PUSH1 0x1 PUSH1 0xD PUSH1 0x0 DUP4 PUSH20 0xFFFFFFFFFFFFFFFFFFFFFFFFFFFFFFFFFFFFFFFF AND PUSH20 0xFFFFFFFFFFFFFFFFFFFFFFFFFFFFFFFFFFFFFFFF AND DUP2 MSTORE PUSH1 0x20 ADD SWAP1 DUP2 MSTORE PUSH1 0x20 ADD PUSH1 0x0 KECCAK256 PUSH1 0x0 ADD PUSH1 0x0 PUSH2 0x100 EXP DUP2 SLOAD DUP2 PUSH1 0xFF MUL NOT AND SWAP1 DUP4 PUSH1 0x2 DUP2 GT ISZERO PUSH2 0xEE5 JUMPI PUSH2 0xEE4 PUSH2 0x3CC7 JUMP JUMPDEST JUMPDEST MUL OR SWAP1 SSTORE POP DUP1 PUSH20 0xFFFFFFFFFFFFFFFFFFFFFFFFFFFFFFFFFFFFFFFF AND PUSH32 0x8AA6BC9D3DFAFA0D1EC07C445E64C83D39E5947D50BE0418A9B164A721FFC393 PUSH1 0x40 MLOAD PUSH1 0x40 MLOAD DUP1 SWAP2 SUB SWAP1 LOG2 POP JUMP JUMPDEST PUSH2 0xF38 PUSH2 0x2A96 JUMP JUMPDEST PUSH2 0xF4C DUP2 PUSH1 0x9 PUSH2 0x3268 SWAP1 SWAP2 SWAP1 PUSH4 0xFFFFFFFF AND JUMP JUMPDEST PUSH2 0xF8B JUMPI PUSH1 0x40 MLOAD PUSH32 0x8C379A000000000000000000000000000000000000000000000000000000000 DUP2 MSTORE PUSH1 0x4 ADD PUSH2 0xF82 SWAP1 PUSH2 0x463A JUMP JUMPDEST PUSH1 0x40 MLOAD DUP1 SWAP2 SUB SWAP1 REVERT JUMPDEST PUSH1 0x2 PUSH1 0xD PUSH1 0x0 DUP4 PUSH20 0xFFFFFFFFFFFFFFFFFFFFFFFFFFFFFFFFFFFFFFFF AND PUSH20 0xFFFFFFFFFFFFFFFFFFFFFFFFFFFFFFFFFFFFFFFF AND DUP2 MSTORE PUSH1 0x20 ADD SWAP1 DUP2 MSTORE PUSH1 0x20 ADD PUSH1 0x0 KECCAK256 PUSH1 0x0 ADD PUSH1 0x0 PUSH2 0x100 EXP DUP2 SLOAD DUP2 PUSH1 0xFF MUL NOT AND SWAP1 DUP4 PUSH1 0x2 DUP2 GT ISZERO PUSH2 0xFF1 JUMPI PUSH2 0xFF0 PUSH2 0x3CC7 JUMP JUMPDEST JUMPDEST MUL OR SWAP1 SSTORE POP DUP1 PUSH20 0xFFFFFFFFFFFFFFFFFFFFFFFFFFFFFFFFFFFFFFFF AND PUSH32 0xF6DF65A3D7D931AF345D93F0420A22E8910DE36C0D027C1D1AC93D5BE509F5A9 PUSH1 0x40 MLOAD PUSH1 0x40 MLOAD DUP1 SWAP2 SUB SWAP1 LOG2 POP JUMP JUMPDEST PUSH1 0x5 SLOAD DUP2 JUMP JUMPDEST PUSH2 0x104A PUSH2 0x2A96 JUMP JUMPDEST PUSH2 0x1054 PUSH1 0x0 PUSH2 0x3298 JUMP JUMPDEST JUMP JUMPDEST PUSH1 0x0 DUP1 PUSH1 0x0 DUP1 PUSH2 0x1066 DUP7 DUP7 PUSH2 0x335C JUMP JUMPDEST SWAP4 POP SWAP4 POP SWAP4 POP SWAP4 POP SWAP3 SWAP6 SWAP2 SWAP5 POP SWAP3 POP JUMP JUMPDEST PUSH2 0x107F PUSH2 0x2A47 JUMP JUMPDEST PUSH1 0x4 SLOAD DUP2 LT ISZERO DUP1 ISZERO PUSH2 0x1093 JUMPI POP PUSH1 0x5 SLOAD DUP2 GT ISZERO JUMPDEST PUSH2 0x10D2 JUMPI PUSH1 0x40 MLOAD PUSH32 0x8C379A000000000000000000000000000000000000000000000000000000000 DUP2 MSTORE PUSH1 0x4 ADD PUSH2 0x10C9 SWAP1 PUSH2 0x46A6 JUMP JUMPDEST PUSH1 0x40 MLOAD DUP1 SWAP2 SUB SWAP1 REVERT JUMPDEST PUSH1 0x1 PUSH1 0x2 DUP2 GT ISZERO PUSH2 0x10E6 JUMPI PUSH2 0x10E5 PUSH2 0x3CC7 JUMP JUMPDEST JUMPDEST PUSH1 0xD PUSH1 0x0 DUP6 PUSH20 0xFFFFFFFFFFFFFFFFFFFFFFFFFFFFFFFFFFFFFFFF AND PUSH20 0xFFFFFFFFFFFFFFFFFFFFFFFFFFFFFFFFFFFFFFFF AND DUP2 MSTORE PUSH1 0x20 ADD SWAP1 DUP2 MSTORE PUSH1 0x20 ADD PUSH1 0x0 KECCAK256 PUSH1 0x0 ADD PUSH1 0x0 SWAP1 SLOAD SWAP1 PUSH2 0x100 EXP SWAP1 DIV PUSH1 0xFF AND PUSH1 0x2 DUP2 GT ISZERO PUSH2 0x1148 JUMPI PUSH2 0x1147 PUSH2 0x3CC7 JUMP JUMPDEST JUMPDEST EQ PUSH2 0x1188 JUMPI PUSH1 0x40 MLOAD PUSH32 0x8C379A000000000000000000000000000000000000000000000000000000000 DUP2 MSTORE PUSH1 0x4 ADD PUSH2 0x117F SWAP1 PUSH2 0x4712 JUMP JUMPDEST PUSH1 0x40 MLOAD DUP1 SWAP2 SUB SWAP1 REVERT JUMPDEST DUP3 PUSH20 0xFFFFFFFFFFFFFFFFFFFFFFFFFFFFFFFFFFFFFFFF AND PUSH4 0x42842E0E CALLER ADDRESS DUP6 PUSH1 0x40 MLOAD DUP5 PUSH4 0xFFFFFFFF AND PUSH1 0xE0 SHL DUP2 MSTORE PUSH1 0x4 ADD PUSH2 0x11C5 SWAP4 SWAP3 SWAP2 SWAP1 PUSH2 0x4732 JUMP JUMPDEST PUSH1 0x0 PUSH1 0x40 MLOAD DUP1 DUP4 SUB DUP2 PUSH1 0x0 DUP8 DUP1 EXTCODESIZE ISZERO DUP1 ISZERO PUSH2 0x11DF JUMPI PUSH1 0x0 DUP1 REVERT JUMPDEST POP GAS CALL ISZERO DUP1 ISZERO PUSH2 0x11F3 JUMPI RETURNDATASIZE PUSH1 0x0 DUP1 RETURNDATACOPY RETURNDATASIZE PUSH1 0x0 REVERT JUMPDEST POP POP POP POP PUSH2 0x1285 DUP3 PUSH1 0xE PUSH1 0x0 CALLER PUSH20 0xFFFFFFFFFFFFFFFFFFFFFFFFFFFFFFFFFFFFFFFF AND PUSH20 0xFFFFFFFFFFFFFFFFFFFFFFFFFFFFFFFFFFFFFFFF AND DUP2 MSTORE PUSH1 0x20 ADD SWAP1 DUP2 MSTORE PUSH1 0x20 ADD PUSH1 0x0 KECCAK256 PUSH1 0x0 DUP7 PUSH20 0xFFFFFFFFFFFFFFFFFFFFFFFFFFFFFFFFFFFFFFFF AND PUSH20 0xFFFFFFFFFFFFFFFFFFFFFFFFFFFFFFFFFFFFFFFF AND DUP2 MSTORE PUSH1 0x20 ADD SWAP1 DUP2 MSTORE PUSH1 0x20 ADD PUSH1 0x0 KECCAK256 PUSH2 0x34F3 SWAP1 SWAP2 SWAP1 PUSH4 0xFFFFFFFF AND JUMP JUMPDEST POP PUSH1 0x40 MLOAD DUP1 PUSH1 0x40 ADD PUSH1 0x40 MSTORE DUP1 CALLER PUSH20 0xFFFFFFFFFFFFFFFFFFFFFFFFFFFFFFFFFFFFFFFF AND DUP2 MSTORE PUSH1 0x20 ADD DUP3 DUP2 MSTORE POP PUSH1 0xB PUSH1 0x0 DUP6 PUSH20 0xFFFFFFFFFFFFFFFFFFFFFFFFFFFFFFFFFFFFFFFF AND PUSH20 0xFFFFFFFFFFFFFFFFFFFFFFFFFFFFFFFFFFFFFFFF AND DUP2 MSTORE PUSH1 0x20 ADD SWAP1 DUP2 MSTORE PUSH1 0x20 ADD PUSH1 0x0 KECCAK256 PUSH1 0x0 DUP5 DUP2 MSTORE PUSH1 0x20 ADD SWAP1 DUP2 MSTORE PUSH1 0x20 ADD PUSH1 0x0 KECCAK256 PUSH1 0x0 DUP3 ADD MLOAD DUP2 PUSH1 0x0 ADD PUSH1 0x0 PUSH2 0x100 EXP DUP2 SLOAD DUP2 PUSH20 0xFFFFFFFFFFFFFFFFFFFFFFFFFFFFFFFFFFFFFFFF MUL NOT AND SWAP1 DUP4 PUSH20 0xFFFFFFFFFFFFFFFFFFFFFFFFFFFFFFFFFFFFFFFF AND MUL OR SWAP1 SSTORE POP PUSH1 0x20 DUP3 ADD MLOAD DUP2 PUSH1 0x1 ADD SSTORE SWAP1 POP POP PUSH2 0x13A6 DUP3 PUSH1 0xC PUSH1 0x0 DUP7 PUSH20 0xFFFFFFFFFFFFFFFFFFFFFFFFFFFFFFFFFFFFFFFF AND PUSH20 0xFFFFFFFFFFFFFFFFFFFFFFFFFFFFFFFFFFFFFFFF AND DUP2 MSTORE PUSH1 0x20 ADD SWAP1 DUP2 MSTORE PUSH1 0x20 ADD PUSH1 0x0 KECCAK256 PUSH2 0x34F3 SWAP1 SWAP2 SWAP1 PUSH4 0xFFFFFFFF AND JUMP JUMPDEST POP DUP2 CALLER PUSH20 0xFFFFFFFFFFFFFFFFFFFFFFFFFFFFFFFFFFFFFFFF AND DUP5 PUSH20 0xFFFFFFFFFFFFFFFFFFFFFFFFFFFFFFFFFFFFFFFF AND PUSH32 0xAA0431463BB62C812C04A1E5310CF43DD9BAEDC7A8EAB71E02F572C741467E8C DUP5 PUSH1 0x40 MLOAD PUSH2 0x1405 SWAP2 SWAP1 PUSH2 0x3AE8 JUMP JUMPDEST PUSH1 0x40 MLOAD DUP1 SWAP2 SUB SWAP1 LOG4 PUSH2 0x1415 PUSH2 0x2A8D JUMP JUMPDEST POP POP POP JUMP JUMPDEST PUSH1 0x60 DUP1 PUSH1 0x0 DUP1 DUP5 SWAP1 POP DUP6 PUSH2 0x146B PUSH1 0xC PUSH1 0x0 DUP11 PUSH20 0xFFFFFFFFFFFFFFFFFFFFFFFFFFFFFFFFFFFFFFFF AND PUSH20 0xFFFFFFFFFFFFFFFFFFFFFFFFFFFFFFFFFFFFFFFF AND DUP2 MSTORE PUSH1 0x20 ADD SWAP1 DUP2 MSTORE PUSH1 0x20 ADD PUSH1 0x0 KECCAK256 PUSH2 0x350D JUMP JUMPDEST PUSH2 0x1475 SWAP2 SWAP1 PUSH2 0x4531 JUMP JUMPDEST DUP2 GT ISZERO PUSH2 0x14D1 JUMPI DUP6 PUSH2 0x14C4 PUSH1 0xC PUSH1 0x0 DUP11 PUSH20 0xFFFFFFFFFFFFFFFFFFFFFFFFFFFFFFFFFFFFFFFF AND PUSH20 0xFFFFFFFFFFFFFFFFFFFFFFFFFFFFFFFFFFFFFFFF AND DUP2 MSTORE PUSH1 0x20 ADD SWAP1 DUP2 MSTORE PUSH1 0x20 ADD PUSH1 0x0 KECCAK256 PUSH2 0x350D JUMP JUMPDEST PUSH2 0x14CE SWAP2 SWAP1 PUSH2 0x4531 JUMP JUMPDEST SWAP1 POP JUMPDEST DUP1 PUSH8 0xFFFFFFFFFFFFFFFF DUP2 GT ISZERO PUSH2 0x14EB JUMPI PUSH2 0x14EA PUSH2 0x38D5 JUMP JUMPDEST JUMPDEST PUSH1 0x40 MLOAD SWAP1 DUP1 DUP3 MSTORE DUP1 PUSH1 0x20 MUL PUSH1 0x20 ADD DUP3 ADD PUSH1 0x40 MSTORE DUP1 ISZERO PUSH2 0x1519 JUMPI DUP2 PUSH1 0x20 ADD PUSH1 0x20 DUP3 MUL DUP1 CALLDATASIZE DUP4 CALLDATACOPY DUP1 DUP3 ADD SWAP2 POP POP SWAP1 POP JUMPDEST POP SWAP4 POP DUP1 PUSH8 0xFFFFFFFFFFFFFFFF DUP2 GT ISZERO PUSH2 0x1536 JUMPI PUSH2 0x1535 PUSH2 0x38D5 JUMP JUMPDEST JUMPDEST PUSH1 0x40 MLOAD SWAP1 DUP1 DUP3 MSTORE DUP1 PUSH1 0x20 MUL PUSH1 0x20 ADD DUP3 ADD PUSH1 0x40 MSTORE DUP1 ISZERO PUSH2 0x156F JUMPI DUP2 PUSH1 0x20 ADD JUMPDEST PUSH2 0x155C PUSH2 0x37E2 JUMP JUMPDEST DUP2 MSTORE PUSH1 0x20 ADD SWAP1 PUSH1 0x1 SWAP1 SUB SWAP1 DUP2 PUSH2 0x1554 JUMPI SWAP1 POP JUMPDEST POP SWAP3 POP PUSH1 0x0 JUMPDEST DUP2 DUP2 LT ISZERO PUSH2 0x16F8 JUMPI PUSH2 0x15D9 DUP2 DUP9 PUSH2 0x158C SWAP2 SWAP1 PUSH2 0x4565 JUMP JUMPDEST PUSH1 0xC PUSH1 0x0 DUP12 PUSH20 0xFFFFFFFFFFFFFFFFFFFFFFFFFFFFFFFFFFFFFFFF AND PUSH20 0xFFFFFFFFFFFFFFFFFFFFFFFFFFFFFFFFFFFFFFFF AND DUP2 MSTORE PUSH1 0x20 ADD SWAP1 DUP2 MSTORE PUSH1 0x20 ADD PUSH1 0x0 KECCAK256 PUSH2 0x3522 SWAP1 SWAP2 SWAP1 PUSH4 0xFFFFFFFF AND JUMP JUMPDEST DUP6 DUP3 DUP2 MLOAD DUP2 LT PUSH2 0x15EC JUMPI PUSH2 0x15EB PUSH2 0x4599 JUMP JUMPDEST JUMPDEST PUSH1 0x20 MUL PUSH1 0x20 ADD ADD DUP2 DUP2 MSTORE POP POP PUSH1 0xB PUSH1 0x0 DUP10 PUSH20 0xFFFFFFFFFFFFFFFFFFFFFFFFFFFFFFFFFFFFFFFF AND PUSH20 0xFFFFFFFFFFFFFFFFFFFFFFFFFFFFFFFFFFFFFFFF AND DUP2 MSTORE PUSH1 0x20 ADD SWAP1 DUP2 MSTORE PUSH1 0x20 ADD PUSH1 0x0 KECCAK256 PUSH1 0x0 DUP7 DUP4 DUP2 MLOAD DUP2 LT PUSH2 0x164C JUMPI PUSH2 0x164B PUSH2 0x4599 JUMP JUMPDEST JUMPDEST PUSH1 0x20 MUL PUSH1 0x20 ADD ADD MLOAD DUP2 MSTORE PUSH1 0x20 ADD SWAP1 DUP2 MSTORE PUSH1 0x20 ADD PUSH1 0x0 KECCAK256 PUSH1 0x40 MLOAD DUP1 PUSH1 0x40 ADD PUSH1 0x40 MSTORE SWAP1 DUP2 PUSH1 0x0 DUP3 ADD PUSH1 0x0 SWAP1 SLOAD SWAP1 PUSH2 0x100 EXP SWAP1 DIV PUSH20 0xFFFFFFFFFFFFFFFFFFFFFFFFFFFFFFFFFFFFFFFF AND PUSH20 0xFFFFFFFFFFFFFFFFFFFFFFFFFFFFFFFFFFFFFFFF AND PUSH20 0xFFFFFFFFFFFFFFFFFFFFFFFFFFFFFFFFFFFFFFFF AND DUP2 MSTORE PUSH1 0x20 ADD PUSH1 0x1 DUP3 ADD SLOAD DUP2 MSTORE POP POP DUP5 DUP3 DUP2 MLOAD DUP2 LT PUSH2 0x16E0 JUMPI PUSH2 0x16DF PUSH2 0x4599 JUMP JUMPDEST JUMPDEST PUSH1 0x20 MUL PUSH1 0x20 ADD ADD DUP2 SWAP1 MSTORE POP DUP1 DUP1 PUSH1 0x1 ADD SWAP2 POP POP PUSH2 0x1575 JUMP JUMPDEST POP DUP4 DUP4 DUP3 DUP9 PUSH2 0x1707 SWAP2 SWAP1 PUSH2 0x4565 JUMP JUMPDEST SWAP4 POP SWAP4 POP SWAP4 POP POP SWAP4 POP SWAP4 POP SWAP4 SWAP1 POP JUMP JUMPDEST PUSH1 0x0 DUP1 PUSH1 0x0 SWAP1 SLOAD SWAP1 PUSH2 0x100 EXP SWAP1 DIV PUSH20 0xFFFFFFFFFFFFFFFFFFFFFFFFFFFFFFFFFFFFFFFF AND SWAP1 POP SWAP1 JUMP JUMPDEST PUSH2 0x1748 PUSH2 0x2A96 JUMP JUMPDEST PUSH2 0x175C DUP6 PUSH1 0x9 PUSH2 0x3268 SWAP1 SWAP2 SWAP1 PUSH4 0xFFFFFFFF AND JUMP JUMPDEST ISZERO PUSH2 0x179C JUMPI PUSH1 0x40 MLOAD PUSH32 0x8C379A000000000000000000000000000000000000000000000000000000000 DUP2 MSTORE PUSH1 0x4 ADD PUSH2 0x1793 SWAP1 PUSH2 0x47DB JUMP JUMPDEST PUSH1 0x40 MLOAD DUP1 SWAP2 SUB SWAP1 REVERT JUMPDEST DUP2 DUP2 GT ISZERO PUSH2 0x17DF JUMPI PUSH1 0x40 MLOAD PUSH32 0x8C379A000000000000000000000000000000000000000000000000000000000 DUP2 MSTORE PUSH1 0x4 ADD PUSH2 0x17D6 SWAP1 PUSH2 0x4847 JUMP JUMPDEST PUSH1 0x40 MLOAD DUP1 SWAP2 SUB SWAP1 REVERT JUMPDEST PUSH1 0x0 PUSH20 0xFFFFFFFFFFFFFFFFFFFFFFFFFFFFFFFFFFFFFFFF AND DUP5 PUSH20 0xFFFFFFFFFFFFFFFFFFFFFFFFFFFFFFFFFFFFFFFF AND SUB PUSH2 0x184E JUMPI PUSH1 0x40 MLOAD PUSH32 0x8C379A000000000000000000000000000000000000000000000000000000000 DUP2 MSTORE PUSH1 0x4 ADD PUSH2 0x1845 SWAP1 PUSH2 0x48B3 JUMP JUMPDEST PUSH1 0x40 MLOAD DUP1 SWAP2 SUB SWAP1 REVERT JUMPDEST PUSH2 0xBB8 DUP3 DUP5 PUSH2 0x185D SWAP2 SWAP1 PUSH2 0x4565 JUMP JUMPDEST GT ISZERO PUSH2 0x189E JUMPI PUSH1 0x40 MLOAD PUSH32 0x8C379A000000000000000000000000000000000000000000000000000000000 DUP2 MSTORE PUSH1 0x4 ADD PUSH2 0x1895 SWAP1 PUSH2 0x4945 JUMP JUMPDEST PUSH1 0x40 MLOAD DUP1 SWAP2 SUB SWAP1 REVERT JUMPDEST PUSH2 0x18B2 DUP6 PUSH1 0x9 PUSH2 0x353C SWAP1 SWAP2 SWAP1 PUSH4 0xFFFFFFFF AND JUMP JUMPDEST POP PUSH1 0x40 MLOAD DUP1 PUSH1 0xA0 ADD PUSH1 0x40 MSTORE DUP1 PUSH1 0x1 PUSH1 0x2 DUP2 GT ISZERO PUSH2 0x18D2 JUMPI PUSH2 0x18D1 PUSH2 0x3CC7 JUMP JUMPDEST JUMPDEST DUP2 MSTORE PUSH1 0x20 ADD DUP6 PUSH20 0xFFFFFFFFFFFFFFFFFFFFFFFFFFFFFFFFFFFFFFFF AND DUP2 MSTORE PUSH1 0x20 ADD DUP5 DUP2 MSTORE PUSH1 0x20 ADD DUP4 DUP2 MSTORE PUSH1 0x20 ADD DUP3 DUP2 MSTORE POP PUSH1 0xD PUSH1 0x0 DUP8 PUSH20 0xFFFFFFFFFFFFFFFFFFFFFFFFFFFFFFFFFFFFFFFF AND PUSH20 0xFFFFFFFFFFFFFFFFFFFFFFFFFFFFFFFFFFFFFFFF AND DUP2 MSTORE PUSH1 0x20 ADD SWAP1 DUP2 MSTORE PUSH1 0x20 ADD PUSH1 0x0 KECCAK256 PUSH1 0x0 DUP3 ADD MLOAD DUP2 PUSH1 0x0 ADD PUSH1 0x0 PUSH2 0x100 EXP DUP2 SLOAD DUP2 PUSH1 0xFF MUL NOT AND SWAP1 DUP4 PUSH1 0x2 DUP2 GT ISZERO PUSH2 0x196D JUMPI PUSH2 0x196C PUSH2 0x3CC7 JUMP JUMPDEST JUMPDEST MUL OR SWAP1 SSTORE POP PUSH1 0x20 DUP3 ADD MLOAD DUP2 PUSH1 0x0 ADD PUSH1 0x1 PUSH2 0x100 EXP DUP2 SLOAD DUP2 PUSH20 0xFFFFFFFFFFFFFFFFFFFFFFFFFFFFFFFFFFFFFFFF MUL NOT AND SWAP1 DUP4 PUSH20 0xFFFFFFFFFFFFFFFFFFFFFFFFFFFFFFFFFFFFFFFF AND MUL OR SWAP1 SSTORE POP PUSH1 0x40 DUP3 ADD MLOAD DUP2 PUSH1 0x1 ADD SSTORE PUSH1 0x60 DUP3 ADD MLOAD DUP2 PUSH1 0x2 ADD SSTORE PUSH1 0x80 DUP3 ADD MLOAD DUP2 PUSH1 0x3 ADD SSTORE SWAP1 POP POP DUP4 PUSH20 0xFFFFFFFFFFFFFFFFFFFFFFFFFFFFFFFFFFFFFFFF AND DUP6 PUSH20 0xFFFFFFFFFFFFFFFFFFFFFFFFFFFFFFFFFFFFFFFF AND PUSH32 0xF11390A65C0FBC9CEB5CD5107627689A9AEF8F91ABAF3D88A19205E37779E820 DUP6 DUP6 DUP6 PUSH1 0x40 MLOAD PUSH2 0x1A3B SWAP4 SWAP3 SWAP2 SWAP1 PUSH2 0x4965 JUMP JUMPDEST PUSH1 0x40 MLOAD DUP1 SWAP2 SUB SWAP1 LOG3 POP POP POP POP POP JUMP JUMPDEST PUSH2 0x1A52 PUSH2 0x2A47 JUMP JUMPDEST PUSH2 0x1AE0 DUP2 PUSH1 0xE PUSH1 0x0 CALLER PUSH20 0xFFFFFFFFFFFFFFFFFFFFFFFFFFFFFFFFFFFFFFFF AND PUSH20 0xFFFFFFFFFFFFFFFFFFFFFFFFFFFFFFFFFFFFFFFF AND DUP2 MSTORE PUSH1 0x20 ADD SWAP1 DUP2 MSTORE PUSH1 0x20 ADD PUSH1 0x0 KECCAK256 PUSH1 0x0 DUP6 PUSH20 0xFFFFFFFFFFFFFFFFFFFFFFFFFFFFFFFFFFFFFFFF AND PUSH20 0xFFFFFFFFFFFFFFFFFFFFFFFFFFFFFFFFFFFFFFFF AND DUP2 MSTORE PUSH1 0x20 ADD SWAP1 DUP2 MSTORE PUSH1 0x20 ADD PUSH1 0x0 KECCAK256 PUSH2 0x356C SWAP1 SWAP2 SWAP1 PUSH4 0xFFFFFFFF AND JUMP JUMPDEST PUSH2 0x1B1F JUMPI PUSH1 0x40 MLOAD PUSH32 0x8C379A000000000000000000000000000000000000000000000000000000000 DUP2 MSTORE PUSH1 0x4 ADD PUSH2 0x1B16 SWAP1 PUSH2 0x49E8 JUMP JUMPDEST PUSH1 0x40 MLOAD DUP1 SWAP2 SUB SWAP1 REVERT JUMPDEST PUSH2 0x1BAD DUP2 PUSH1 0xE PUSH1 0x0 CALLER PUSH20 0xFFFFFFFFFFFFFFFFFFFFFFFFFFFFFFFFFFFFFFFF AND PUSH20 0xFFFFFFFFFFFFFFFFFFFFFFFFFFFFFFFFFFFFFFFF AND DUP2 MSTORE PUSH1 0x20 ADD SWAP1 DUP2 MSTORE PUSH1 0x20 ADD PUSH1 0x0 KECCAK256 PUSH1 0x0 DUP6 PUSH20 0xFFFFFFFFFFFFFFFFFFFFFFFFFFFFFFFFFFFFFFFF AND PUSH20 0xFFFFFFFFFFFFFFFFFFFFFFFFFFFFFFFFFFFFFFFF AND DUP2 MSTORE PUSH1 0x20 ADD SWAP1 DUP2 MSTORE PUSH1 0x20 ADD PUSH1 0x0 KECCAK256 PUSH2 0x3586 SWAP1 SWAP2 SWAP1 PUSH4 0xFFFFFFFF AND JUMP JUMPDEST POP PUSH1 0xB PUSH1 0x0 DUP4 PUSH20 0xFFFFFFFFFFFFFFFFFFFFFFFFFFFFFFFFFFFFFFFF AND PUSH20 0xFFFFFFFFFFFFFFFFFFFFFFFFFFFFFFFFFFFFFFFF AND DUP2 MSTORE PUSH1 0x20 ADD SWAP1 DUP2 MSTORE PUSH1 0x20 ADD PUSH1 0x0 KECCAK256 PUSH1 0x0 DUP3 DUP2 MSTORE PUSH1 0x20 ADD SWAP1 DUP2 MSTORE PUSH1 0x20 ADD PUSH1 0x0 KECCAK256 PUSH1 0x0 DUP1 DUP3 ADD PUSH1 0x0 PUSH2 0x100 EXP DUP2 SLOAD SWAP1 PUSH20 0xFFFFFFFFFFFFFFFFFFFFFFFFFFFFFFFFFFFFFFFF MUL NOT AND SWAP1 SSTORE PUSH1 0x1 DUP3 ADD PUSH1 0x0 SWAP1 SSTORE POP POP PUSH2 0x1C81 DUP2 PUSH1 0xC PUSH1 0x0 DUP6 PUSH20 0xFFFFFFFFFFFFFFFFFFFFFFFFFFFFFFFFFFFFFFFF AND PUSH20 0xFFFFFFFFFFFFFFFFFFFFFFFFFFFFFFFFFFFFFFFF AND DUP2 MSTORE PUSH1 0x20 ADD SWAP1 DUP2 MSTORE PUSH1 0x20 ADD PUSH1 0x0 KECCAK256 PUSH2 0x3586 SWAP1 SWAP2 SWAP1 PUSH4 0xFFFFFFFF AND JUMP JUMPDEST POP DUP2 PUSH20 0xFFFFFFFFFFFFFFFFFFFFFFFFFFFFFFFFFFFFFFFF AND PUSH4 0x23B872DD ADDRESS CALLER DUP5 PUSH1 0x40 MLOAD DUP5 PUSH4 0xFFFFFFFF AND PUSH1 0xE0 SHL DUP2 MSTORE PUSH1 0x4 ADD PUSH2 0x1CBF SWAP4 SWAP3 SWAP2 SWAP1 PUSH2 0x4732 JUMP JUMPDEST PUSH1 0x0 PUSH1 0x40 MLOAD DUP1 DUP4 SUB DUP2 PUSH1 0x0 DUP8 DUP1 EXTCODESIZE ISZERO DUP1 ISZERO PUSH2 0x1CD9 JUMPI PUSH1 0x0 DUP1 REVERT JUMPDEST POP GAS CALL ISZERO DUP1 ISZERO PUSH2 0x1CED JUMPI RETURNDATASIZE PUSH1 0x0 DUP1 RETURNDATACOPY RETURNDATASIZE PUSH1 0x0 REVERT JUMPDEST POP POP POP POP DUP1 CALLER PUSH20 0xFFFFFFFFFFFFFFFFFFFFFFFFFFFFFFFFFFFFFFFF AND DUP4 PUSH20 0xFFFFFFFFFFFFFFFFFFFFFFFFFFFFFFFFFFFFFFFF AND PUSH32 0xA5764EA233325154A6388255C54B9F302EC2ED8586AF0A9A606CD64E88298EB7 PUSH1 0x40 MLOAD PUSH1 0x40 MLOAD DUP1 SWAP2 SUB SWAP1 LOG4 PUSH2 0x1D54 PUSH2 0x2A8D JUMP JUMPDEST POP POP JUMP JUMPDEST PUSH32 0x0 DUP2 JUMP JUMPDEST PUSH1 0x7 PUSH1 0x20 MSTORE DUP1 PUSH1 0x0 MSTORE PUSH1 0x40 PUSH1 0x0 KECCAK256 PUSH1 0x0 SWAP2 POP SWAP1 POP SLOAD DUP2 JUMP JUMPDEST PUSH2 0x1D9C PUSH2 0x2A47 JUMP JUMPDEST PUSH1 0x4 SLOAD DUP2 LT ISZERO DUP1 ISZERO PUSH2 0x1DB0 JUMPI POP PUSH1 0x5 SLOAD DUP2 GT ISZERO JUMPDEST PUSH2 0x1DEF JUMPI PUSH1 0x40 MLOAD PUSH32 0x8C379A000000000000000000000000000000000000000000000000000000000 DUP2 MSTORE PUSH1 0x4 ADD PUSH2 0x1DE6 SWAP1 PUSH2 0x46A6 JUMP JUMPDEST PUSH1 0x40 MLOAD DUP1 SWAP2 SUB SWAP1 REVERT JUMPDEST PUSH1 0x1 PUSH1 0x2 DUP2 GT ISZERO PUSH2 0x1E03 JUMPI PUSH2 0x1E02 PUSH2 0x3CC7 JUMP JUMPDEST JUMPDEST PUSH1 0xD PUSH1 0x0 DUP6 PUSH20 0xFFFFFFFFFFFFFFFFFFFFFFFFFFFFFFFFFFFFFFFF AND PUSH20 0xFFFFFFFFFFFFFFFFFFFFFFFFFFFFFFFFFFFFFFFF AND DUP2 MSTORE PUSH1 0x20 ADD SWAP1 DUP2 MSTORE PUSH1 0x20 ADD PUSH1 0x0 KECCAK256 PUSH1 0x0 ADD PUSH1 0x0 SWAP1 SLOAD SWAP1 PUSH2 0x100 EXP SWAP1 DIV PUSH1 0xFF AND PUSH1 0x2 DUP2 GT ISZERO PUSH2 0x1E65 JUMPI PUSH2 0x1E64 PUSH2 0x3CC7 JUMP JUMPDEST JUMPDEST EQ PUSH2 0x1EA5 JUMPI PUSH1 0x40 MLOAD PUSH32 0x8C379A000000000000000000000000000000000000000000000000000000000 DUP2 MSTORE PUSH1 0x4 ADD PUSH2 0x1E9C SWAP1 PUSH2 0x4712 JUMP JUMPDEST PUSH1 0x40 MLOAD DUP1 SWAP2 SUB SWAP1 REVERT JUMPDEST PUSH2 0x1F33 DUP3 PUSH1 0xE PUSH1 0x0 CALLER PUSH20 0xFFFFFFFFFFFFFFFFFFFFFFFFFFFFFFFFFFFFFFFF AND PUSH20 0xFFFFFFFFFFFFFFFFFFFFFFFFFFFFFFFFFFFFFFFF AND DUP2 MSTORE PUSH1 0x20 ADD SWAP1 DUP2 MSTORE PUSH1 0x20 ADD PUSH1 0x0 KECCAK256 PUSH1 0x0 DUP7 PUSH20 0xFFFFFFFFFFFFFFFFFFFFFFFFFFFFFFFFFFFFFFFF AND PUSH20 0xFFFFFFFFFFFFFFFFFFFFFFFFFFFFFFFFFFFFFFFF AND DUP2 MSTORE PUSH1 0x20 ADD SWAP1 DUP2 MSTORE PUSH1 0x20 ADD PUSH1 0x0 KECCAK256 PUSH2 0x356C SWAP1 SWAP2 SWAP1 PUSH4 0xFFFFFFFF AND JUMP JUMPDEST PUSH2 0x1F72 JUMPI PUSH1 0x40 MLOAD PUSH32 0x8C379A000000000000000000000000000000000000000000000000000000000 DUP2 MSTORE PUSH1 0x4 ADD PUSH2 0x1F69 SWAP1 PUSH2 0x49E8 JUMP JUMPDEST PUSH1 0x40 MLOAD DUP1 SWAP2 SUB SWAP1 REVERT JUMPDEST DUP1 PUSH1 0xB PUSH1 0x0 DUP6 PUSH20 0xFFFFFFFFFFFFFFFFFFFFFFFFFFFFFFFFFFFFFFFF AND PUSH20 0xFFFFFFFFFFFFFFFFFFFFFFFFFFFFFFFFFFFFFFFF AND DUP2 MSTORE PUSH1 0x20 ADD SWAP1 DUP2 MSTORE PUSH1 0x20 ADD PUSH1 0x0 KECCAK256 PUSH1 0x0 DUP5 DUP2 MSTORE PUSH1 0x20 ADD SWAP1 DUP2 MSTORE PUSH1 0x20 ADD PUSH1 0x0 KECCAK256 PUSH1 0x1 ADD DUP2 SWAP1 SSTORE POP DUP2 CALLER PUSH20 0xFFFFFFFFFFFFFFFFFFFFFFFFFFFFFFFFFFFFFFFF AND DUP5 PUSH20 0xFFFFFFFFFFFFFFFFFFFFFFFFFFFFFFFFFFFFFFFF AND PUSH32 0x492437C0ADE072ACDF12E63A19D8DF68BB5E414E2098DC470239DF87702343EA DUP5 PUSH1 0x40 MLOAD PUSH2 0x2028 SWAP2 SWAP1 PUSH2 0x3AE8 JUMP JUMPDEST PUSH1 0x40 MLOAD DUP1 SWAP2 SUB SWAP1 LOG4 PUSH2 0x2038 PUSH2 0x2A8D JUMP JUMPDEST POP POP POP JUMP JUMPDEST PUSH1 0x60 DUP1 PUSH1 0x0 DUP1 DUP5 SWAP1 POP DUP6 PUSH2 0x20CB PUSH1 0xE PUSH1 0x0 DUP11 PUSH20 0xFFFFFFFFFFFFFFFFFFFFFFFFFFFFFFFFFFFFFFFF AND PUSH20 0xFFFFFFFFFFFFFFFFFFFFFFFFFFFFFFFFFFFFFFFF AND DUP2 MSTORE PUSH1 0x20 ADD SWAP1 DUP2 MSTORE PUSH1 0x20 ADD PUSH1 0x0 KECCAK256 PUSH1 0x0 DUP12 PUSH20 0xFFFFFFFFFFFFFFFFFFFFFFFFFFFFFFFFFFFFFFFF AND PUSH20 0xFFFFFFFFFFFFFFFFFFFFFFFFFFFFFFFFFFFFFFFF AND DUP2 MSTORE PUSH1 0x20 ADD SWAP1 DUP2 MSTORE PUSH1 0x20 ADD PUSH1 0x0 KECCAK256 PUSH2 0x350D JUMP JUMPDEST PUSH2 0x20D5 SWAP2 SWAP1 PUSH2 0x4531 JUMP JUMPDEST DUP2 GT ISZERO PUSH2 0x216E JUMPI DUP6 PUSH2 0x2161 PUSH1 0xE PUSH1 0x0 DUP11 PUSH20 0xFFFFFFFFFFFFFFFFFFFFFFFFFFFFFFFFFFFFFFFF AND PUSH20 0xFFFFFFFFFFFFFFFFFFFFFFFFFFFFFFFFFFFFFFFF AND DUP2 MSTORE PUSH1 0x20 ADD SWAP1 DUP2 MSTORE PUSH1 0x20 ADD PUSH1 0x0 KECCAK256 PUSH1 0x0 DUP12 PUSH20 0xFFFFFFFFFFFFFFFFFFFFFFFFFFFFFFFFFFFFFFFF AND PUSH20 0xFFFFFFFFFFFFFFFFFFFFFFFFFFFFFFFFFFFFFFFF AND DUP2 MSTORE PUSH1 0x20 ADD SWAP1 DUP2 MSTORE PUSH1 0x20 ADD PUSH1 0x0 KECCAK256 PUSH2 0x350D JUMP JUMPDEST PUSH2 0x216B SWAP2 SWAP1 PUSH2 0x4531 JUMP JUMPDEST SWAP1 POP JUMPDEST DUP1 PUSH8 0xFFFFFFFFFFFFFFFF DUP2 GT ISZERO PUSH2 0x2188 JUMPI PUSH2 0x2187 PUSH2 0x38D5 JUMP JUMPDEST JUMPDEST PUSH1 0x40 MLOAD SWAP1 DUP1 DUP3 MSTORE DUP1 PUSH1 0x20 MUL PUSH1 0x20 ADD DUP3 ADD PUSH1 0x40 MSTORE DUP1 ISZERO PUSH2 0x21B6 JUMPI DUP2 PUSH1 0x20 ADD PUSH1 0x20 DUP3 MUL DUP1 CALLDATASIZE DUP4 CALLDATACOPY DUP1 DUP3 ADD SWAP2 POP POP SWAP1 POP JUMPDEST POP SWAP4 POP DUP1 PUSH8 0xFFFFFFFFFFFFFFFF DUP2 GT ISZERO PUSH2 0x21D3 JUMPI PUSH2 0x21D2 PUSH2 0x38D5 JUMP JUMPDEST JUMPDEST PUSH1 0x40 MLOAD SWAP1 DUP1 DUP3 MSTORE DUP1 PUSH1 0x20 MUL PUSH1 0x20 ADD DUP3 ADD PUSH1 0x40 MSTORE DUP1 ISZERO PUSH2 0x220C JUMPI DUP2 PUSH1 0x20 ADD JUMPDEST PUSH2 0x21F9 PUSH2 0x37E2 JUMP JUMPDEST DUP2 MSTORE PUSH1 0x20 ADD SWAP1 PUSH1 0x1 SWAP1 SUB SWAP1 DUP2 PUSH2 0x21F1 JUMPI SWAP1 POP JUMPDEST POP SWAP3 POP PUSH1 0x0 JUMPDEST DUP2 DUP2 LT ISZERO PUSH2 0x23D2 JUMPI PUSH2 0x22B3 DUP2 DUP9 PUSH2 0x2229 SWAP2 SWAP1 PUSH2 0x4565 JUMP JUMPDEST PUSH1 0xE PUSH1 0x0 DUP12 PUSH20 0xFFFFFFFFFFFFFFFFFFFFFFFFFFFFFFFFFFFFFFFF AND PUSH20 0xFFFFFFFFFFFFFFFFFFFFFFFFFFFFFFFFFFFFFFFF AND DUP2 MSTORE PUSH1 0x20 ADD SWAP1 DUP2 MSTORE PUSH1 0x20 ADD PUSH1 0x0 KECCAK256 PUSH1 0x0 DUP13 PUSH20 0xFFFFFFFFFFFFFFFFFFFFFFFFFFFFFFFFFFFFFFFF AND PUSH20 0xFFFFFFFFFFFFFFFFFFFFFFFFFFFFFFFFFFFFFFFF AND DUP2 MSTORE PUSH1 0x20 ADD SWAP1 DUP2 MSTORE PUSH1 0x20 ADD PUSH1 0x0 KECCAK256 PUSH2 0x3522 SWAP1 SWAP2 SWAP1 PUSH4 0xFFFFFFFF AND JUMP JUMPDEST DUP6 DUP3 DUP2 MLOAD DUP2 LT PUSH2 0x22C6 JUMPI PUSH2 0x22C5 PUSH2 0x4599 JUMP JUMPDEST JUMPDEST PUSH1 0x20 MUL PUSH1 0x20 ADD ADD DUP2 DUP2 MSTORE POP POP PUSH1 0xB PUSH1 0x0 DUP11 PUSH20 0xFFFFFFFFFFFFFFFFFFFFFFFFFFFFFFFFFFFFFFFF AND PUSH20 0xFFFFFFFFFFFFFFFFFFFFFFFFFFFFFFFFFFFFFFFF AND DUP2 MSTORE PUSH1 0x20 ADD SWAP1 DUP2 MSTORE PUSH1 0x20 ADD PUSH1 0x0 KECCAK256 PUSH1 0x0 DUP7 DUP4 DUP2 MLOAD DUP2 LT PUSH2 0x2326 JUMPI PUSH2 0x2325 PUSH2 0x4599 JUMP JUMPDEST JUMPDEST PUSH1 0x20 MUL PUSH1 0x20 ADD ADD MLOAD DUP2 MSTORE PUSH1 0x20 ADD SWAP1 DUP2 MSTORE PUSH1 0x20 ADD PUSH1 0x0 KECCAK256 PUSH1 0x40 MLOAD DUP1 PUSH1 0x40 ADD PUSH1 0x40 MSTORE SWAP1 DUP2 PUSH1 0x0 DUP3 ADD PUSH1 0x0 SWAP1 SLOAD SWAP1 PUSH2 0x100 EXP SWAP1 DIV PUSH20 0xFFFFFFFFFFFFFFFFFFFFFFFFFFFFFFFFFFFFFFFF AND PUSH20 0xFFFFFFFFFFFFFFFFFFFFFFFFFFFFFFFFFFFFFFFF AND PUSH20 0xFFFFFFFFFFFFFFFFFFFFFFFFFFFFFFFFFFFFFFFF AND DUP2 MSTORE PUSH1 0x20 ADD PUSH1 0x1 DUP3 ADD SLOAD DUP2 MSTORE POP POP DUP5 DUP3 DUP2 MLOAD DUP2 LT PUSH2 0x23BA JUMPI PUSH2 0x23B9 PUSH2 0x4599 JUMP JUMPDEST JUMPDEST PUSH1 0x20 MUL PUSH1 0x20 ADD ADD DUP2 SWAP1 MSTORE POP DUP1 DUP1 PUSH1 0x1 ADD SWAP2 POP POP PUSH2 0x2212 JUMP JUMPDEST POP DUP4 DUP4 DUP3 DUP9 PUSH2 0x23E1 SWAP2 SWAP1 PUSH2 0x4565 JUMP JUMPDEST SWAP4 POP SWAP4 POP SWAP4 POP POP SWAP5 POP SWAP5 POP SWAP5 SWAP2 POP POP JUMP JUMPDEST PUSH1 0x3 PUSH1 0x0 SWAP1 SLOAD SWAP1 PUSH2 0x100 EXP SWAP1 DIV PUSH20 0xFFFFFFFFFFFFFFFFFFFFFFFFFFFFFFFFFFFFFFFF AND DUP2 JUMP JUMPDEST PUSH2 0x2420 PUSH2 0x2A96 JUMP JUMPDEST PUSH2 0x2434 DUP6 PUSH1 0x9 PUSH2 0x3268 SWAP1 SWAP2 SWAP1 PUSH4 0xFFFFFFFF AND JUMP JUMPDEST PUSH2 0x2473 JUMPI PUSH1 0x40 MLOAD PUSH32 0x8C379A000000000000000000000000000000000000000000000000000000000 DUP2 MSTORE PUSH1 0x4 ADD PUSH2 0x246A SWAP1 PUSH2 0x463A JUMP JUMPDEST PUSH1 0x40 MLOAD DUP1 SWAP2 SUB SWAP1 REVERT JUMPDEST DUP2 DUP2 GT ISZERO PUSH2 0x24B6 JUMPI PUSH1 0x40 MLOAD PUSH32 0x8C379A000000000000000000000000000000000000000000000000000000000 DUP2 MSTORE PUSH1 0x4 ADD PUSH2 0x24AD SWAP1 PUSH2 0x4847 JUMP JUMPDEST PUSH1 0x40 MLOAD DUP1 SWAP2 SUB SWAP1 REVERT JUMPDEST PUSH1 0x0 PUSH20 0xFFFFFFFFFFFFFFFFFFFFFFFFFFFFFFFFFFFFFFFF AND DUP5 PUSH20 0xFFFFFFFFFFFFFFFFFFFFFFFFFFFFFFFFFFFFFFFF AND SUB PUSH2 0x2525 JUMPI PUSH1 0x40 MLOAD PUSH32 0x8C379A000000000000000000000000000000000000000000000000000000000 DUP2 MSTORE PUSH1 0x4 ADD PUSH2 0x251C SWAP1 PUSH2 0x4A54 JUMP JUMPDEST PUSH1 0x40 MLOAD DUP1 SWAP2 SUB SWAP1 REVERT JUMPDEST PUSH2 0xBB8 DUP3 DUP5 PUSH2 0x2534 SWAP2 SWAP1 PUSH2 0x4565 JUMP JUMPDEST GT ISZERO PUSH2 0x2575 JUMPI PUSH1 0x40 MLOAD PUSH32 0x8C379A000000000000000000000000000000000000000000000000000000000 DUP2 MSTORE PUSH1 0x4 ADD PUSH2 0x256C SWAP1 PUSH2 0x4945 JUMP JUMPDEST PUSH1 0x40 MLOAD DUP1 SWAP2 SUB SWAP1 REVERT JUMPDEST PUSH1 0x40 MLOAD DUP1 PUSH1 0xA0 ADD PUSH1 0x40 MSTORE DUP1 PUSH1 0x1 PUSH1 0x2 DUP2 GT ISZERO PUSH2 0x2594 JUMPI PUSH2 0x2593 PUSH2 0x3CC7 JUMP JUMPDEST JUMPDEST DUP2 MSTORE PUSH1 0x20 ADD DUP6 PUSH20 0xFFFFFFFFFFFFFFFFFFFFFFFFFFFFFFFFFFFFFFFF AND DUP2 MSTORE PUSH1 0x20 ADD DUP5 DUP2 MSTORE PUSH1 0x20 ADD DUP4 DUP2 MSTORE PUSH1 0x20 ADD DUP3 DUP2 MSTORE POP PUSH1 0xD PUSH1 0x0 DUP8 PUSH20 0xFFFFFFFFFFFFFFFFFFFFFFFFFFFFFFFFFFFFFFFF AND PUSH20 0xFFFFFFFFFFFFFFFFFFFFFFFFFFFFFFFFFFFFFFFF AND DUP2 MSTORE PUSH1 0x20 ADD SWAP1 DUP2 MSTORE PUSH1 0x20 ADD PUSH1 0x0 KECCAK256 PUSH1 0x0 DUP3 ADD MLOAD DUP2 PUSH1 0x0 ADD PUSH1 0x0 PUSH2 0x100 EXP DUP2 SLOAD DUP2 PUSH1 0xFF MUL NOT AND SWAP1 DUP4 PUSH1 0x2 DUP2 GT ISZERO PUSH2 0x262F JUMPI PUSH2 0x262E PUSH2 0x3CC7 JUMP JUMPDEST JUMPDEST MUL OR SWAP1 SSTORE POP PUSH1 0x20 DUP3 ADD MLOAD DUP2 PUSH1 0x0 ADD PUSH1 0x1 PUSH2 0x100 EXP DUP2 SLOAD DUP2 PUSH20 0xFFFFFFFFFFFFFFFFFFFFFFFFFFFFFFFFFFFFFFFF MUL NOT AND SWAP1 DUP4 PUSH20 0xFFFFFFFFFFFFFFFFFFFFFFFFFFFFFFFFFFFFFFFF AND MUL OR SWAP1 SSTORE POP PUSH1 0x40 DUP3 ADD MLOAD DUP2 PUSH1 0x1 ADD SSTORE PUSH1 0x60 DUP3 ADD MLOAD DUP2 PUSH1 0x2 ADD SSTORE PUSH1 0x80 DUP3 ADD MLOAD DUP2 PUSH1 0x3 ADD SSTORE SWAP1 POP POP DUP4 PUSH20 0xFFFFFFFFFFFFFFFFFFFFFFFFFFFFFFFFFFFFFFFF AND DUP6 PUSH20 0xFFFFFFFFFFFFFFFFFFFFFFFFFFFFFFFFFFFFFFFF AND PUSH32 0x895422EB4A796B08D7CAE4B36CCE484EC608964BB6FA3EDEAA1B68BAAB1B26D DUP6 DUP6 DUP6 PUSH1 0x40 MLOAD PUSH2 0x26FD SWAP4 SWAP3 SWAP2 SWAP1 PUSH2 0x4965 JUMP JUMPDEST PUSH1 0x40 MLOAD DUP1 SWAP2 SUB SWAP1 LOG3 POP POP POP POP POP JUMP JUMPDEST PUSH1 0x4 SLOAD DUP2 JUMP JUMPDEST PUSH1 0x6 SLOAD DUP2 JUMP JUMPDEST PUSH1 0x60 DUP1 PUSH1 0x0 DUP5 DUP5 SWAP1 POP SWAP1 POP DUP1 PUSH8 0xFFFFFFFFFFFFFFFF DUP2 GT ISZERO PUSH2 0x273D JUMPI PUSH2 0x273C PUSH2 0x38D5 JUMP JUMPDEST JUMPDEST PUSH1 0x40 MLOAD SWAP1 DUP1 DUP3 MSTORE DUP1 PUSH1 0x20 MUL PUSH1 0x20 ADD DUP3 ADD PUSH1 0x40 MSTORE DUP1 ISZERO PUSH2 0x276B JUMPI DUP2 PUSH1 0x20 ADD PUSH1 0x20 DUP3 MUL DUP1 CALLDATASIZE DUP4 CALLDATACOPY DUP1 DUP3 ADD SWAP2 POP POP SWAP1 POP JUMPDEST POP SWAP3 POP DUP1 PUSH8 0xFFFFFFFFFFFFFFFF DUP2 GT ISZERO PUSH2 0x2788 JUMPI PUSH2 0x2787 PUSH2 0x38D5 JUMP JUMPDEST JUMPDEST PUSH1 0x40 MLOAD SWAP1 DUP1 DUP3 MSTORE DUP1 PUSH1 0x20 MUL PUSH1 0x20 ADD DUP3 ADD PUSH1 0x40 MSTORE DUP1 ISZERO PUSH2 0x27C1 JUMPI DUP2 PUSH1 0x20 ADD JUMPDEST PUSH2 0x27AE PUSH2 0x37E2 JUMP JUMPDEST DUP2 MSTORE PUSH1 0x20 ADD SWAP1 PUSH1 0x1 SWAP1 SUB SWAP1 DUP2 PUSH2 0x27A6 JUMPI SWAP1 POP JUMPDEST POP SWAP2 POP PUSH1 0x0 JUMPDEST DUP2 DUP2 LT ISZERO PUSH2 0x2991 JUMPI PUSH2 0x2839 DUP7 DUP7 DUP4 DUP2 DUP2 LT PUSH2 0x27E5 JUMPI PUSH2 0x27E4 PUSH2 0x4599 JUMP JUMPDEST JUMPDEST SWAP1 POP PUSH1 0x20 MUL ADD CALLDATALOAD PUSH1 0xC PUSH1 0x0 DUP11 PUSH20 0xFFFFFFFFFFFFFFFFFFFFFFFFFFFFFFFFFFFFFFFF AND PUSH20 0xFFFFFFFFFFFFFFFFFFFFFFFFFFFFFFFFFFFFFFFF AND DUP2 MSTORE PUSH1 0x20 ADD SWAP1 DUP2 MSTORE PUSH1 0x20 ADD PUSH1 0x0 KECCAK256 PUSH2 0x356C SWAP1 SWAP2 SWAP1 PUSH4 0xFFFFFFFF AND JUMP JUMPDEST ISZERO PUSH2 0x286A JUMPI PUSH1 0x1 DUP5 DUP3 DUP2 MLOAD DUP2 LT PUSH2 0x2853 JUMPI PUSH2 0x2852 PUSH2 0x4599 JUMP JUMPDEST JUMPDEST PUSH1 0x20 MUL PUSH1 0x20 ADD ADD SWAP1 ISZERO ISZERO SWAP1 DUP2 ISZERO ISZERO DUP2 MSTORE POP POP PUSH2 0x2892 JUMP JUMPDEST PUSH1 0x0 DUP5 DUP3 DUP2 MLOAD DUP2 LT PUSH2 0x287F JUMPI PUSH2 0x287E PUSH2 0x4599 JUMP JUMPDEST JUMPDEST PUSH1 0x20 MUL PUSH1 0x20 ADD ADD SWAP1 ISZERO ISZERO SWAP1 DUP2 ISZERO ISZERO DUP2 MSTORE POP POP JUMPDEST PUSH1 0xB PUSH1 0x0 DUP9 PUSH20 0xFFFFFFFFFFFFFFFFFFFFFFFFFFFFFFFFFFFFFFFF AND PUSH20 0xFFFFFFFFFFFFFFFFFFFFFFFFFFFFFFFFFFFFFFFF AND DUP2 MSTORE PUSH1 0x20 ADD SWAP1 DUP2 MSTORE PUSH1 0x20 ADD PUSH1 0x0 KECCAK256 PUSH1 0x0 DUP8 DUP8 DUP5 DUP2 DUP2 LT PUSH2 0x28E6 JUMPI PUSH2 0x28E5 PUSH2 0x4599 JUMP JUMPDEST JUMPDEST SWAP1 POP PUSH1 0x20 MUL ADD CALLDATALOAD DUP2 MSTORE PUSH1 0x20 ADD SWAP1 DUP2 MSTORE PUSH1 0x20 ADD PUSH1 0x0 KECCAK256 PUSH1 0x40 MLOAD DUP1 PUSH1 0x40 ADD PUSH1 0x40 MSTORE SWAP1 DUP2 PUSH1 0x0 DUP3 ADD PUSH1 0x0 SWAP1 SLOAD SWAP1 PUSH2 0x100 EXP SWAP1 DIV PUSH20 0xFFFFFFFFFFFFFFFFFFFFFFFFFFFFFFFFFFFFFFFF AND PUSH20 0xFFFFFFFFFFFFFFFFFFFFFFFFFFFFFFFFFFFFFFFF AND PUSH20 0xFFFFFFFFFFFFFFFFFFFFFFFFFFFFFFFFFFFFFFFF AND DUP2 MSTORE PUSH1 0x20 ADD PUSH1 0x1 DUP3 ADD SLOAD DUP2 MSTORE POP POP DUP4 DUP3 DUP2 MLOAD DUP2 LT PUSH2 0x2979 JUMPI PUSH2 0x2978 PUSH2 0x4599 JUMP JUMPDEST JUMPDEST PUSH1 0x20 MUL PUSH1 0x20 ADD ADD DUP2 SWAP1 MSTORE POP DUP1 DUP1 PUSH1 0x1 ADD SWAP2 POP POP PUSH2 0x27C7 JUMP JUMPDEST POP POP SWAP4 POP SWAP4 SWAP2 POP POP JUMP JUMPDEST PUSH2 0x29A3 PUSH2 0x2A96 JUMP JUMPDEST PUSH1 0x0 PUSH20 0xFFFFFFFFFFFFFFFFFFFFFFFFFFFFFFFFFFFFFFFF AND DUP2 PUSH20 0xFFFFFFFFFFFFFFFFFFFFFFFFFFFFFFFFFFFFFFFF AND SUB PUSH2 0x2A15 JUMPI PUSH1 0x0 PUSH1 0x40 MLOAD PUSH32 0x1E4FBDF700000000000000000000000000000000000000000000000000000000 DUP2 MSTORE PUSH1 0x4 ADD PUSH2 0x2A0C SWAP2 SWAP1 PUSH2 0x40F6 JUMP JUMPDEST PUSH1 0x40 MLOAD DUP1 SWAP2 SUB SWAP1 REVERT JUMPDEST PUSH2 0x2A1E DUP2 PUSH2 0x3298 JUMP JUMPDEST POP JUMP JUMPDEST PUSH1 0x2 PUSH1 0x0 SWAP1 SLOAD SWAP1 PUSH2 0x100 EXP SWAP1 DIV PUSH20 0xFFFFFFFFFFFFFFFFFFFFFFFFFFFFFFFFFFFFFFFF AND DUP2 JUMP JUMPDEST PUSH1 0x2 PUSH1 0x1 SLOAD SUB PUSH2 0x2A83 JUMPI PUSH1 0x40 MLOAD PUSH32 0x3EE5AEB500000000000000000000000000000000000000000000000000000000 DUP2 MSTORE PUSH1 0x4 ADD PUSH1 0x40 MLOAD DUP1 SWAP2 SUB SWAP1 REVERT JUMPDEST PUSH1 0x2 PUSH1 0x1 DUP2 SWAP1 SSTORE POP JUMP JUMPDEST PUSH1 0x1 DUP1 DUP2 SWAP1 SSTORE POP JUMP JUMPDEST PUSH2 0x2A9E PUSH2 0x35A0 JUMP JUMPDEST PUSH20 0xFFFFFFFFFFFFFFFFFFFFFFFFFFFFFFFFFFFFFFFF AND PUSH2 0x2ABC PUSH2 0x1717 JUMP JUMPDEST PUSH20 0xFFFFFFFFFFFFFFFFFFFFFFFFFFFFFFFFFFFFFFFF AND EQ PUSH2 0x2B1B JUMPI PUSH2 0x2ADF PUSH2 0x35A0 JUMP JUMPDEST PUSH1 0x40 MLOAD PUSH32 0x118CDAA700000000000000000000000000000000000000000000000000000000 DUP2 MSTORE PUSH1 0x4 ADD PUSH2 0x2B12 SWAP2 SWAP1 PUSH2 0x40F6 JUMP JUMPDEST PUSH1 0x40 MLOAD DUP1 SWAP2 SUB SWAP1 REVERT JUMPDEST JUMP JUMPDEST PUSH1 0x1 PUSH1 0x2 DUP2 GT ISZERO PUSH2 0x2B31 JUMPI PUSH2 0x2B30 PUSH2 0x3CC7 JUMP JUMPDEST JUMPDEST PUSH1 0xD PUSH1 0x0 DUP7 PUSH20 0xFFFFFFFFFFFFFFFFFFFFFFFFFFFFFFFFFFFFFFFF AND PUSH20 0xFFFFFFFFFFFFFFFFFFFFFFFFFFFFFFFFFFFFFFFF AND DUP2 MSTORE PUSH1 0x20 ADD SWAP1 DUP2 MSTORE PUSH1 0x20 ADD PUSH1 0x0 KECCAK256 PUSH1 0x0 ADD PUSH1 0x0 SWAP1 SLOAD SWAP1 PUSH2 0x100 EXP SWAP1 DIV PUSH1 0xFF AND PUSH1 0x2 DUP2 GT ISZERO PUSH2 0x2B93 JUMPI PUSH2 0x2B92 PUSH2 0x3CC7 JUMP JUMPDEST JUMPDEST EQ PUSH2 0x2BD3 JUMPI PUSH1 0x40 MLOAD PUSH32 0x8C379A000000000000000000000000000000000000000000000000000000000 DUP2 MSTORE PUSH1 0x4 ADD PUSH2 0x2BCA SWAP1 PUSH2 0x4AC0 JUMP JUMPDEST PUSH1 0x40 MLOAD DUP1 SWAP2 SUB SWAP1 REVERT JUMPDEST PUSH2 0x2C24 DUP4 PUSH1 0xC PUSH1 0x0 DUP8 PUSH20 0xFFFFFFFFFFFFFFFFFFFFFFFFFFFFFFFFFFFFFFFF AND PUSH20 0xFFFFFFFFFFFFFFFFFFFFFFFFFFFFFFFFFFFFFFFF AND DUP2 MSTORE PUSH1 0x20 ADD SWAP1 DUP2 MSTORE PUSH1 0x20 ADD PUSH1 0x0 KECCAK256 PUSH2 0x356C SWAP1 SWAP2 SWAP1 PUSH4 0xFFFFFFFF AND JUMP JUMPDEST PUSH2 0x2C63 JUMPI PUSH1 0x40 MLOAD PUSH32 0x8C379A000000000000000000000000000000000000000000000000000000000 DUP2 MSTORE PUSH1 0x4 ADD PUSH2 0x2C5A SWAP1 PUSH2 0x4B2C JUMP JUMPDEST PUSH1 0x40 MLOAD DUP1 SWAP2 SUB SWAP1 REVERT JUMPDEST PUSH1 0x0 PUSH1 0xB PUSH1 0x0 DUP7 PUSH20 0xFFFFFFFFFFFFFFFFFFFFFFFFFFFFFFFFFFFFFFFF AND PUSH20 0xFFFFFFFFFFFFFFFFFFFFFFFFFFFFFFFFFFFFFFFF AND DUP2 MSTORE PUSH1 0x20 ADD SWAP1 DUP2 MSTORE PUSH1 0x20 ADD PUSH1 0x0 KECCAK256 PUSH1 0x0 DUP6 DUP2 MSTORE PUSH1 0x20 ADD SWAP1 DUP2 MSTORE PUSH1 0x20 ADD PUSH1 0x0 KECCAK256 PUSH1 0x40 MLOAD DUP1 PUSH1 0x40 ADD PUSH1 0x40 MSTORE SWAP1 DUP2 PUSH1 0x0 DUP3 ADD PUSH1 0x0 SWAP1 SLOAD SWAP1 PUSH2 0x100 EXP SWAP1 DIV PUSH20 0xFFFFFFFFFFFFFFFFFFFFFFFFFFFFFFFFFFFFFFFF AND PUSH20 0xFFFFFFFFFFFFFFFFFFFFFFFFFFFFFFFFFFFFFFFF AND PUSH20 0xFFFFFFFFFFFFFFFFFFFFFFFFFFFFFFFFFFFFFFFF AND DUP2 MSTORE PUSH1 0x20 ADD PUSH1 0x1 DUP3 ADD SLOAD DUP2 MSTORE POP POP SWAP1 POP DUP1 PUSH1 0x20 ADD MLOAD DUP4 EQ PUSH2 0x2D68 JUMPI PUSH1 0x40 MLOAD PUSH32 0x8C379A000000000000000000000000000000000000000000000000000000000 DUP2 MSTORE PUSH1 0x4 ADD PUSH2 0x2D5F SWAP1 PUSH2 0x4B98 JUMP JUMPDEST PUSH1 0x40 MLOAD DUP1 SWAP2 SUB SWAP1 REVERT JUMPDEST DUP1 PUSH1 0x0 ADD MLOAD PUSH20 0xFFFFFFFFFFFFFFFFFFFFFFFFFFFFFFFFFFFFFFFF AND CALLER PUSH20 0xFFFFFFFFFFFFFFFFFFFFFFFFFFFFFFFFFFFFFFFF AND SUB PUSH2 0x2DDA JUMPI PUSH1 0x40 MLOAD PUSH32 0x8C379A000000000000000000000000000000000000000000000000000000000 DUP2 MSTORE PUSH1 0x4 ADD PUSH2 0x2DD1 SWAP1 PUSH2 0x4C04 JUMP JUMPDEST PUSH1 0x40 MLOAD DUP1 SWAP2 SUB SWAP1 REVERT JUMPDEST PUSH1 0x0 DUP1 PUSH1 0x0 DUP1 PUSH2 0x2DEA DUP10 DUP9 PUSH2 0x335C JUMP JUMPDEST SWAP4 POP SWAP4 POP SWAP4 POP SWAP4 POP PUSH2 0x2E84 DUP9 PUSH1 0xE PUSH1 0x0 DUP9 PUSH1 0x0 ADD MLOAD PUSH20 0xFFFFFFFFFFFFFFFFFFFFFFFFFFFFFFFFFFFFFFFF AND PUSH20 0xFFFFFFFFFFFFFFFFFFFFFFFFFFFFFFFFFFFFFFFF AND DUP2 MSTORE PUSH1 0x20 ADD SWAP1 DUP2 MSTORE PUSH1 0x20 ADD PUSH1 0x0 KECCAK256 PUSH1 0x0 DUP13 PUSH20 0xFFFFFFFFFFFFFFFFFFFFFFFFFFFFFFFFFFFFFFFF AND PUSH20 0xFFFFFFFFFFFFFFFFFFFFFFFFFFFFFFFFFFFFFFFF AND DUP2 MSTORE PUSH1 0x20 ADD SWAP1 DUP2 MSTORE PUSH1 0x20 ADD PUSH1 0x0 KECCAK256 PUSH2 0x3586 SWAP1 SWAP2 SWAP1 PUSH4 0xFFFFFFFF AND JUMP JUMPDEST POP PUSH1 0xB PUSH1 0x0 DUP11 PUSH20 0xFFFFFFFFFFFFFFFFFFFFFFFFFFFFFFFFFFFFFFFF AND PUSH20 0xFFFFFFFFFFFFFFFFFFFFFFFFFFFFFFFFFFFFFFFF AND DUP2 MSTORE PUSH1 0x20 ADD SWAP1 DUP2 MSTORE PUSH1 0x20 ADD PUSH1 0x0 KECCAK256 PUSH1 0x0 DUP10 DUP2 MSTORE PUSH1 0x20 ADD SWAP1 DUP2 MSTORE PUSH1 0x20 ADD PUSH1 0x0 KECCAK256 PUSH1 0x0 DUP1 DUP3 ADD PUSH1 0x0 PUSH2 0x100 EXP DUP2 SLOAD SWAP1 PUSH20 0xFFFFFFFFFFFFFFFFFFFFFFFFFFFFFFFFFFFFFFFF MUL NOT AND SWAP1 SSTORE PUSH1 0x1 DUP3 ADD PUSH1 0x0 SWAP1 SSTORE POP POP PUSH2 0x2F58 DUP9 PUSH1 0xC PUSH1 0x0 DUP13 PUSH20 0xFFFFFFFFFFFFFFFFFFFFFFFFFFFFFFFFFFFFFFFF AND PUSH20 0xFFFFFFFFFFFFFFFFFFFFFFFFFFFFFFFFFFFFFFFF AND DUP2 MSTORE PUSH1 0x20 ADD SWAP1 DUP2 MSTORE PUSH1 0x20 ADD PUSH1 0x0 KECCAK256 PUSH2 0x3586 SWAP1 SWAP2 SWAP1 PUSH4 0xFFFFFFFF AND JUMP JUMPDEST POP DUP5 PUSH1 0x0 ADD MLOAD PUSH20 0xFFFFFFFFFFFFFFFFFFFFFFFFFFFFFFFFFFFFFFFF AND PUSH2 0x8FC DUP6 SWAP1 DUP2 ISZERO MUL SWAP1 PUSH1 0x40 MLOAD PUSH1 0x0 PUSH1 0x40 MLOAD DUP1 DUP4 SUB DUP2 DUP6 DUP9 DUP9 CALL SWAP4 POP POP POP POP ISZERO DUP1 ISZERO PUSH2 0x2FA3 JUMPI RETURNDATASIZE PUSH1 0x0 DUP1 RETURNDATACOPY RETURNDATASIZE PUSH1 0x0 REVERT JUMPDEST POP DUP2 PUSH1 0x7 PUSH1 0x0 PUSH1 0xD PUSH1 0x0 DUP14 PUSH20 0xFFFFFFFFFFFFFFFFFFFFFFFFFFFFFFFFFFFFFFFF AND PUSH20 0xFFFFFFFFFFFFFFFFFFFFFFFFFFFFFFFFFFFFFFFF AND DUP2 MSTORE PUSH1 0x20 ADD SWAP1 DUP2 MSTORE PUSH1 0x20 ADD PUSH1 0x0 KECCAK256 PUSH1 0x0 ADD PUSH1 0x1 SWAP1 SLOAD SWAP1 PUSH2 0x100 EXP SWAP1 DIV PUSH20 0xFFFFFFFFFFFFFFFFFFFFFFFFFFFFFFFFFFFFFFFF AND PUSH20 0xFFFFFFFFFFFFFFFFFFFFFFFFFFFFFFFFFFFFFFFF AND PUSH20 0xFFFFFFFFFFFFFFFFFFFFFFFFFFFFFFFFFFFFFFFF AND DUP2 MSTORE PUSH1 0x20 ADD SWAP1 DUP2 MSTORE PUSH1 0x20 ADD PUSH1 0x0 KECCAK256 PUSH1 0x0 DUP3 DUP3 SLOAD PUSH2 0x3055 SWAP2 SWAP1 PUSH2 0x4565 JUMP JUMPDEST SWAP3 POP POP DUP2 SWAP1 SSTORE POP PUSH1 0x6 PUSH1 0xA PUSH2 0x306A SWAP2 SWAP1 PUSH2 0x4D64 JUMP JUMPDEST PUSH1 0x6 SLOAD DUP3 PUSH2 0x3078 SWAP2 SWAP1 PUSH2 0x4DDE JUMP JUMPDEST PUSH2 0x3082 SWAP2 SWAP1 PUSH2 0x4E0F JUMP JUMPDEST PUSH1 0x8 PUSH1 0x0 CALLER PUSH20 0xFFFFFFFFFFFFFFFFFFFFFFFFFFFFFFFFFFFFFFFF AND PUSH20 0xFFFFFFFFFFFFFFFFFFFFFFFFFFFFFFFFFFFFFFFF AND DUP2 MSTORE PUSH1 0x20 ADD SWAP1 DUP2 MSTORE PUSH1 0x20 ADD PUSH1 0x0 KECCAK256 PUSH1 0x0 DUP3 DUP3 SLOAD PUSH2 0x30D0 SWAP2 SWAP1 PUSH2 0x4565 JUMP JUMPDEST SWAP3 POP POP DUP2 SWAP1 SSTORE POP DUP3 PUSH1 0x7 PUSH1 0x0 PUSH1 0x3 PUSH1 0x0 SWAP1 SLOAD SWAP1 PUSH2 0x100 EXP SWAP1 DIV PUSH20 0xFFFFFFFFFFFFFFFFFFFFFFFFFFFFFFFFFFFFFFFF AND PUSH20 0xFFFFFFFFFFFFFFFFFFFFFFFFFFFFFFFFFFFFFFFF AND PUSH20 0xFFFFFFFFFFFFFFFFFFFFFFFFFFFFFFFFFFFFFFFF AND DUP2 MSTORE PUSH1 0x20 ADD SWAP1 DUP2 MSTORE PUSH1 0x20 ADD PUSH1 0x0 KECCAK256 PUSH1 0x0 DUP3 DUP3 SLOAD PUSH2 0x3148 SWAP2 SWAP1 PUSH2 0x4565 JUMP JUMPDEST SWAP3 POP POP DUP2 SWAP1 SSTORE POP DUP9 PUSH20 0xFFFFFFFFFFFFFFFFFFFFFFFFFFFFFFFFFFFFFFFF AND PUSH4 0x42842E0E ADDRESS CALLER DUP12 PUSH1 0x40 MLOAD DUP5 PUSH4 0xFFFFFFFF AND PUSH1 0xE0 SHL DUP2 MSTORE PUSH1 0x4 ADD PUSH2 0x318C SWAP4 SWAP3 SWAP2 SWAP1 PUSH2 0x4732 JUMP JUMPDEST PUSH1 0x0 PUSH1 0x40 MLOAD DUP1 DUP4 SUB DUP2 PUSH1 0x0 DUP8 DUP1 EXTCODESIZE ISZERO DUP1 ISZERO PUSH2 0x31A6 JUMPI PUSH1 0x0 DUP1 REVERT JUMPDEST POP GAS CALL ISZERO DUP1 ISZERO PUSH2 0x31BA JUMPI RETURNDATASIZE PUSH1 0x0 DUP1 RETURNDATACOPY RETURNDATASIZE PUSH1 0x0 REVERT JUMPDEST POP POP POP POP DUP5 PUSH1 0x0 ADD MLOAD PUSH20 0xFFFFFFFFFFFFFFFFFFFFFFFFFFFFFFFFFFFFFFFF AND DUP9 DUP11 PUSH20 0xFFFFFFFFFFFFFFFFFFFFFFFFFFFFFFFFFFFFFFFF AND PUSH32 0xDAAC0E40B8F01E970D08D4E8AE57AC31A5845FFFDE104C43F05E19BBEC78491E CALLER DUP12 DUP10 DUP13 PUSH1 0x40 MLOAD PUSH2 0x3226 SWAP5 SWAP4 SWAP3 SWAP2 SWAP1 PUSH2 0x4E60 JUMP JUMPDEST PUSH1 0x40 MLOAD DUP1 SWAP2 SUB SWAP1 LOG4 POP POP POP POP POP POP POP POP POP JUMP JUMPDEST PUSH1 0x0 PUSH2 0x3247 DUP3 PUSH1 0x0 ADD PUSH2 0x35A8 JUMP JUMPDEST SWAP1 POP SWAP2 SWAP1 POP JUMP JUMPDEST PUSH1 0x0 PUSH2 0x325D DUP4 PUSH1 0x0 ADD DUP4 PUSH2 0x35B9 JUMP JUMPDEST PUSH1 0x0 SHR SWAP1 POP SWAP3 SWAP2 POP POP JUMP JUMPDEST PUSH1 0x0 PUSH2 0x3290 DUP4 PUSH1 0x0 ADD DUP4 PUSH20 0xFFFFFFFFFFFFFFFFFFFFFFFFFFFFFFFFFFFFFFFF AND PUSH1 0x0 SHL PUSH2 0x35E4 JUMP JUMPDEST SWAP1 POP SWAP3 SWAP2 POP POP JUMP JUMPDEST PUSH1 0x0 DUP1 PUSH1 0x0 SWAP1 SLOAD SWAP1 PUSH2 0x100 EXP SWAP1 DIV PUSH20 0xFFFFFFFFFFFFFFFFFFFFFFFFFFFFFFFFFFFFFFFF AND SWAP1 POP DUP2 PUSH1 0x0 DUP1 PUSH2 0x100 EXP DUP2 SLOAD DUP2 PUSH20 0xFFFFFFFFFFFFFFFFFFFFFFFFFFFFFFFFFFFFFFFF MUL NOT AND SWAP1 DUP4 PUSH20 0xFFFFFFFFFFFFFFFFFFFFFFFFFFFFFFFFFFFFFFFF AND MUL OR SWAP1 SSTORE POP DUP2 PUSH20 0xFFFFFFFFFFFFFFFFFFFFFFFFFFFFFFFFFFFFFFFF AND DUP2 PUSH20 0xFFFFFFFFFFFFFFFFFFFFFFFFFFFFFFFFFFFFFFFF AND PUSH32 0x8BE0079C531659141344CD1FD0A4F28419497F9722A3DAAFE3B4186F6B6457E0 PUSH1 0x40 MLOAD PUSH1 0x40 MLOAD DUP1 SWAP2 SUB SWAP1 LOG3 POP POP JUMP JUMPDEST PUSH1 0x0 DUP1 PUSH1 0x0 DUP1 PUSH2 0x2710 PUSH1 0xD PUSH1 0x0 DUP9 PUSH20 0xFFFFFFFFFFFFFFFFFFFFFFFFFFFFFFFFFFFFFFFF AND PUSH20 0xFFFFFFFFFFFFFFFFFFFFFFFFFFFFFFFFFFFFFFFF AND DUP2 MSTORE PUSH1 0x20 ADD SWAP1 DUP2 MSTORE PUSH1 0x20 ADD PUSH1 0x0 KECCAK256 PUSH1 0x1 ADD SLOAD DUP7 PUSH2 0x33B3 SWAP2 SWAP1 PUSH2 0x4E0F JUMP JUMPDEST PUSH2 0x33BD SWAP2 SWAP1 PUSH2 0x4DDE JUMP JUMPDEST SWAP3 POP PUSH2 0x2710 PUSH1 0xD PUSH1 0x0 DUP9 PUSH20 0xFFFFFFFFFFFFFFFFFFFFFFFFFFFFFFFFFFFFFFFF AND PUSH20 0xFFFFFFFFFFFFFFFFFFFFFFFFFFFFFFFFFFFFFFFF AND DUP2 MSTORE PUSH1 0x20 ADD SWAP1 DUP2 MSTORE PUSH1 0x20 ADD PUSH1 0x0 KECCAK256 PUSH1 0x3 ADD SLOAD PUSH1 0xD PUSH1 0x0 DUP10 PUSH20 0xFFFFFFFFFFFFFFFFFFFFFFFFFFFFFFFFFFFFFFFF AND PUSH20 0xFFFFFFFFFFFFFFFFFFFFFFFFFFFFFFFFFFFFFFFF AND DUP2 MSTORE PUSH1 0x20 ADD SWAP1 DUP2 MSTORE PUSH1 0x20 ADD PUSH1 0x0 KECCAK256 PUSH1 0x2 ADD SLOAD PUSH2 0x3452 SWAP2 SWAP1 PUSH2 0x4531 JUMP JUMPDEST DUP7 PUSH2 0x345D SWAP2 SWAP1 PUSH2 0x4E0F JUMP JUMPDEST PUSH2 0x3467 SWAP2 SWAP1 PUSH2 0x4DDE JUMP JUMPDEST SWAP2 POP PUSH2 0x2710 PUSH1 0xD PUSH1 0x0 DUP9 PUSH20 0xFFFFFFFFFFFFFFFFFFFFFFFFFFFFFFFFFFFFFFFF AND PUSH20 0xFFFFFFFFFFFFFFFFFFFFFFFFFFFFFFFFFFFFFFFF AND DUP2 MSTORE PUSH1 0x20 ADD SWAP1 DUP2 MSTORE PUSH1 0x20 ADD PUSH1 0x0 KECCAK256 PUSH1 0x3 ADD SLOAD DUP7 PUSH2 0x34BA SWAP2 SWAP1 PUSH2 0x4E0F JUMP JUMPDEST PUSH2 0x34C4 SWAP2 SWAP1 PUSH2 0x4DDE JUMP JUMPDEST SWAP1 POP DUP1 DUP3 DUP5 DUP8 PUSH2 0x34D4 SWAP2 SWAP1 PUSH2 0x4531 JUMP JUMPDEST PUSH2 0x34DE SWAP2 SWAP1 PUSH2 0x4531 JUMP JUMPDEST PUSH2 0x34E8 SWAP2 SWAP1 PUSH2 0x4531 JUMP JUMPDEST SWAP4 POP SWAP3 SWAP6 SWAP2 SWAP5 POP SWAP3 POP JUMP JUMPDEST PUSH1 0x0 PUSH2 0x3505 DUP4 PUSH1 0x0 ADD DUP4 PUSH1 0x0 SHL PUSH2 0x3607 JUMP JUMPDEST SWAP1 POP SWAP3 SWAP2 POP POP JUMP JUMPDEST PUSH1 0x0 PUSH2 0x351B DUP3 PUSH1 0x0 ADD PUSH2 0x35A8 JUMP JUMPDEST SWAP1 POP SWAP2 SWAP1 POP JUMP JUMPDEST PUSH1 0x0 PUSH2 0x3531 DUP4 PUSH1 0x0 ADD DUP4 PUSH2 0x35B9 JUMP JUMPDEST PUSH1 0x0 SHR SWAP1 POP SWAP3 SWAP2 POP POP JUMP JUMPDEST PUSH1 0x0 PUSH2 0x3564 DUP4 PUSH1 0x0 ADD DUP4 PUSH20 0xFFFFFFFFFFFFFFFFFFFFFFFFFFFFFFFFFFFFFFFF AND PUSH1 0x0 SHL PUSH2 0x3607 JUMP JUMPDEST SWAP1 POP SWAP3 SWAP2 POP POP JUMP JUMPDEST PUSH1 0x0 PUSH2 0x357E DUP4 PUSH1 0x0 ADD DUP4 PUSH1 0x0 SHL PUSH2 0x35E4 JUMP JUMPDEST SWAP1 POP SWAP3 SWAP2 POP POP JUMP JUMPDEST PUSH1 0x0 PUSH2 0x3598 DUP4 PUSH1 0x0 ADD DUP4 PUSH1 0x0 SHL PUSH2 0x3677 JUMP JUMPDEST SWAP1 POP SWAP3 SWAP2 POP POP JUMP JUMPDEST PUSH1 0x0 CALLER SWAP1 POP SWAP1 JUMP JUMPDEST PUSH1 0x0 DUP2 PUSH1 0x0 ADD DUP1 SLOAD SWAP1 POP SWAP1 POP SWAP2 SWAP1 POP JUMP JUMPDEST PUSH1 0x0 DUP3 PUSH1 0x0 ADD DUP3 DUP2 SLOAD DUP2 LT PUSH2 0x35D1 JUMPI PUSH2 0x35D0 PUSH2 0x4599 JUMP JUMPDEST JUMPDEST SWAP1 PUSH1 0x0 MSTORE PUSH1 0x20 PUSH1 0x0 KECCAK256 ADD SLOAD SWAP1 POP SWAP3 SWAP2 POP POP JUMP JUMPDEST PUSH1 0x0 DUP1 DUP4 PUSH1 0x1 ADD PUSH1 0x0 DUP5 DUP2 MSTORE PUSH1 0x20 ADD SWAP1 DUP2 MSTORE PUSH1 0x20 ADD PUSH1 0x0 KECCAK256 SLOAD EQ ISZERO SWAP1 POP SWAP3 SWAP2 POP POP JUMP JUMPDEST PUSH1 0x0 PUSH2 0x3613 DUP4 DUP4 PUSH2 0x35E4 JUMP JUMPDEST PUSH2 0x366C JUMPI DUP3 PUSH1 0x0 ADD DUP3 SWAP1 DUP1 PUSH1 0x1 DUP2 SLOAD ADD DUP1 DUP3 SSTORE DUP1 SWAP2 POP POP PUSH1 0x1 SWAP1 SUB SWAP1 PUSH1 0x0 MSTORE PUSH1 0x20 PUSH1 0x0 KECCAK256 ADD PUSH1 0x0 SWAP1 SWAP2 SWAP1 SWAP2 SWAP1 SWAP2 POP SSTORE DUP3 PUSH1 0x0 ADD DUP1 SLOAD SWAP1 POP DUP4 PUSH1 0x1 ADD PUSH1 0x0 DUP5 DUP2 MSTORE PUSH1 0x20 ADD SWAP1 DUP2 MSTORE PUSH1 0x20 ADD PUSH1 0x0 KECCAK256 DUP2 SWAP1 SSTORE POP PUSH1 0x1 SWAP1 POP PUSH2 0x3671 JUMP JUMPDEST PUSH1 0x0 SWAP1 POP JUMPDEST SWAP3 SWAP2 POP POP JUMP JUMPDEST PUSH1 0x0 DUP1 DUP4 PUSH1 0x1 ADD PUSH1 0x0 DUP5 DUP2 MSTORE PUSH1 0x20 ADD SWAP1 DUP2 MSTORE PUSH1 0x20 ADD PUSH1 0x0 KECCAK256 SLOAD SWAP1 POP PUSH1 0x0 DUP2 EQ PUSH2 0x377F JUMPI PUSH1 0x0 PUSH1 0x1 DUP3 PUSH2 0x36A9 SWAP2 SWAP1 PUSH2 0x4531 JUMP JUMPDEST SWAP1 POP PUSH1 0x0 PUSH1 0x1 DUP7 PUSH1 0x0 ADD DUP1 SLOAD SWAP1 POP PUSH2 0x36C1 SWAP2 SWAP1 PUSH2 0x4531 JUMP JUMPDEST SWAP1 POP DUP1 DUP3 EQ PUSH2 0x3730 JUMPI PUSH1 0x0 DUP7 PUSH1 0x0 ADD DUP3 DUP2 SLOAD DUP2 LT PUSH2 0x36E2 JUMPI PUSH2 0x36E1 PUSH2 0x4599 JUMP JUMPDEST JUMPDEST SWAP1 PUSH1 0x0 MSTORE PUSH1 0x20 PUSH1 0x0 KECCAK256 ADD SLOAD SWAP1 POP DUP1 DUP8 PUSH1 0x0 ADD DUP5 DUP2 SLOAD DUP2 LT PUSH2 0x3706 JUMPI PUSH2 0x3705 PUSH2 0x4599 JUMP JUMPDEST JUMPDEST SWAP1 PUSH1 0x0 MSTORE PUSH1 0x20 PUSH1 0x0 KECCAK256 ADD DUP2 SWAP1 SSTORE POP DUP4 DUP8 PUSH1 0x1 ADD PUSH1 0x0 DUP4 DUP2 MSTORE PUSH1 0x20 ADD SWAP1 DUP2 MSTORE PUSH1 0x20 ADD PUSH1 0x0 KECCAK256 DUP2 SWAP1 SSTORE POP POP JUMPDEST DUP6 PUSH1 0x0 ADD DUP1 SLOAD DUP1 PUSH2 0x3744 JUMPI PUSH2 0x3743 PUSH2 0x4EA5 JUMP JUMPDEST JUMPDEST PUSH1 0x1 SWAP1 SUB DUP2 DUP2 SWAP1 PUSH1 0x0 MSTORE PUSH1 0x20 PUSH1 0x0 KECCAK256 ADD PUSH1 0x0 SWAP1 SSTORE SWAP1 SSTORE DUP6 PUSH1 0x1 ADD PUSH1 0x0 DUP7 DUP2 MSTORE PUSH1 0x20 ADD SWAP1 DUP2 MSTORE PUSH1 0x20 ADD PUSH1 0x0 KECCAK256 PUSH1 0x0 SWAP1 SSTORE PUSH1 0x1 SWAP4 POP POP POP POP PUSH2 0x3785 JUMP JUMPDEST PUSH1 0x0 SWAP2 POP POP JUMPDEST SWAP3 SWAP2 POP POP JUMP JUMPDEST PUSH1 0x40 MLOAD DUP1 PUSH1 0xA0 ADD PUSH1 0x40 MSTORE DUP1 PUSH1 0x0 PUSH1 0x2 DUP2 GT ISZERO PUSH2 0x37AA JUMPI PUSH2 0x37A9 PUSH2 0x3CC7 JUMP JUMPDEST JUMPDEST DUP2 MSTORE PUSH1 0x20 ADD PUSH1 0x0 PUSH20 0xFFFFFFFFFFFFFFFFFFFFFFFFFFFFFFFFFFFFFFFF AND DUP2 MSTORE PUSH1 0x20 ADD PUSH1 0x0 DUP2 MSTORE PUSH1 0x20 ADD PUSH1 0x0 DUP2 MSTORE PUSH1 0x20 ADD PUSH1 0x0 DUP2 MSTORE POP SWAP1 JUMP JUMPDEST PUSH1 0x40 MLOAD DUP1 PUSH1 0x40 ADD PUSH1 0x40 MSTORE DUP1 PUSH1 0x0 PUSH20 0xFFFFFFFFFFFFFFFFFFFFFFFFFFFFFFFFFFFFFFFF AND DUP2 MSTORE PUSH1 0x20 ADD PUSH1 0x0 DUP2 MSTORE POP SWAP1 JUMP JUMPDEST PUSH1 0x0 PUSH1 0x40 MLOAD SWAP1 POP SWAP1 JUMP JUMPDEST PUSH1 0x0 DUP1 REVERT JUMPDEST PUSH1 0x0 DUP1 REVERT JUMPDEST PUSH1 0x0 PUSH20 0xFFFFFFFFFFFFFFFFFFFFFFFFFFFFFFFFFFFFFFFF DUP3 AND SWAP1 POP SWAP2 SWAP1 POP JUMP JUMPDEST PUSH1 0x0 PUSH2 0x3851 DUP3 PUSH2 0x3826 JUMP JUMPDEST SWAP1 POP SWAP2 SWAP1 POP JUMP JUMPDEST PUSH2 0x3861 DUP2 PUSH2 0x3846 JUMP JUMPDEST DUP2 EQ PUSH2 0x386C JUMPI PUSH1 0x0 DUP1 REVERT JUMPDEST POP JUMP JUMPDEST PUSH1 0x0 DUP2 CALLDATALOAD SWAP1 POP PUSH2 0x387E DUP2 PUSH2 0x3858 JUMP JUMPDEST SWAP3 SWAP2 POP POP JUMP JUMPDEST PUSH1 0x0 DUP2 SWAP1 POP SWAP2 SWAP1 POP JUMP JUMPDEST PUSH2 0x3897 DUP2 PUSH2 0x3884 JUMP JUMPDEST DUP2 EQ PUSH2 0x38A2 JUMPI PUSH1 0x0 DUP1 REVERT JUMPDEST POP JUMP JUMPDEST PUSH1 0x0 DUP2 CALLDATALOAD SWAP1 POP PUSH2 0x38B4 DUP2 PUSH2 0x388E JUMP JUMPDEST SWAP3 SWAP2 POP POP JUMP JUMPDEST PUSH1 0x0 DUP1 REVERT JUMPDEST PUSH1 0x0 DUP1 REVERT JUMPDEST PUSH1 0x0 PUSH1 0x1F NOT PUSH1 0x1F DUP4 ADD AND SWAP1 POP SWAP2 SWAP1 POP JUMP JUMPDEST PUSH32 0x4E487B7100000000000000000000000000000000000000000000000000000000 PUSH1 0x0 MSTORE PUSH1 0x41 PUSH1 0x4 MSTORE PUSH1 0x24 PUSH1 0x0 REVERT JUMPDEST PUSH2 0x390D DUP3 PUSH2 0x38C4 JUMP JUMPDEST DUP2 ADD DUP2 DUP2 LT PUSH8 0xFFFFFFFFFFFFFFFF DUP3 GT OR ISZERO PUSH2 0x392C JUMPI PUSH2 0x392B PUSH2 0x38D5 JUMP JUMPDEST JUMPDEST DUP1 PUSH1 0x40 MSTORE POP POP POP JUMP JUMPDEST PUSH1 0x0 PUSH2 0x393F PUSH2 0x3812 JUMP JUMPDEST SWAP1 POP PUSH2 0x394B DUP3 DUP3 PUSH2 0x3904 JUMP JUMPDEST SWAP2 SWAP1 POP JUMP JUMPDEST PUSH1 0x0 PUSH8 0xFFFFFFFFFFFFFFFF DUP3 GT ISZERO PUSH2 0x396B JUMPI PUSH2 0x396A PUSH2 0x38D5 JUMP JUMPDEST JUMPDEST PUSH2 0x3974 DUP3 PUSH2 0x38C4 JUMP JUMPDEST SWAP1 POP PUSH1 0x20 DUP2 ADD SWAP1 POP SWAP2 SWAP1 POP JUMP JUMPDEST DUP3 DUP2 DUP4 CALLDATACOPY PUSH1 0x0 DUP4 DUP4 ADD MSTORE POP POP POP JUMP JUMPDEST PUSH1 0x0 PUSH2 0x39A3 PUSH2 0x399E DUP5 PUSH2 0x3950 JUMP JUMPDEST PUSH2 0x3935 JUMP JUMPDEST SWAP1 POP DUP3 DUP2 MSTORE PUSH1 0x20 DUP2 ADD DUP5 DUP5 DUP5 ADD GT ISZERO PUSH2 0x39BF JUMPI PUSH2 0x39BE PUSH2 0x38BF JUMP JUMPDEST JUMPDEST PUSH2 0x39CA DUP5 DUP3 DUP6 PUSH2 0x3981 JUMP JUMPDEST POP SWAP4 SWAP3 POP POP POP JUMP JUMPDEST PUSH1 0x0 DUP3 PUSH1 0x1F DUP4 ADD SLT PUSH2 0x39E7 JUMPI PUSH2 0x39E6 PUSH2 0x38BA JUMP JUMPDEST JUMPDEST DUP2 CALLDATALOAD PUSH2 0x39F7 DUP5 DUP3 PUSH1 0x20 DUP7 ADD PUSH2 0x3990 JUMP JUMPDEST SWAP2 POP POP SWAP3 SWAP2 POP POP JUMP JUMPDEST PUSH1 0x0 DUP1 PUSH1 0x0 DUP1 PUSH1 0x80 DUP6 DUP8 SUB SLT ISZERO PUSH2 0x3A1A JUMPI PUSH2 0x3A19 PUSH2 0x381C JUMP JUMPDEST JUMPDEST PUSH1 0x0 PUSH2 0x3A28 DUP8 DUP3 DUP9 ADD PUSH2 0x386F JUMP JUMPDEST SWAP5 POP POP PUSH1 0x20 PUSH2 0x3A39 DUP8 DUP3 DUP9 ADD PUSH2 0x386F JUMP JUMPDEST SWAP4 POP POP PUSH1 0x40 PUSH2 0x3A4A DUP8 DUP3 DUP9 ADD PUSH2 0x38A5 JUMP JUMPDEST SWAP3 POP POP PUSH1 0x60 DUP6 ADD CALLDATALOAD PUSH8 0xFFFFFFFFFFFFFFFF DUP2 GT ISZERO PUSH2 0x3A6B JUMPI PUSH2 0x3A6A PUSH2 0x3821 JUMP JUMPDEST JUMPDEST PUSH2 0x3A77 DUP8 DUP3 DUP9 ADD PUSH2 0x39D2 JUMP JUMPDEST SWAP2 POP POP SWAP3 SWAP6 SWAP2 SWAP5 POP SWAP3 POP JUMP JUMPDEST PUSH1 0x0 PUSH32 0xFFFFFFFF00000000000000000000000000000000000000000000000000000000 DUP3 AND SWAP1 POP SWAP2 SWAP1 POP JUMP JUMPDEST PUSH2 0x3AB8 DUP2 PUSH2 0x3A83 JUMP JUMPDEST DUP3 MSTORE POP POP JUMP JUMPDEST PUSH1 0x0 PUSH1 0x20 DUP3 ADD SWAP1 POP PUSH2 0x3AD3 PUSH1 0x0 DUP4 ADD DUP5 PUSH2 0x3AAF JUMP JUMPDEST SWAP3 SWAP2 POP POP JUMP JUMPDEST PUSH2 0x3AE2 DUP2 PUSH2 0x3884 JUMP JUMPDEST DUP3 MSTORE POP POP JUMP JUMPDEST PUSH1 0x0 PUSH1 0x20 DUP3 ADD SWAP1 POP PUSH2 0x3AFD PUSH1 0x0 DUP4 ADD DUP5 PUSH2 0x3AD9 JUMP JUMPDEST SWAP3 SWAP2 POP POP JUMP JUMPDEST PUSH1 0x0 PUSH1 0x20 DUP3 DUP5 SUB SLT ISZERO PUSH2 0x3B19 JUMPI PUSH2 0x3B18 PUSH2 0x381C JUMP JUMPDEST JUMPDEST PUSH1 0x0 PUSH2 0x3B27 DUP5 DUP3 DUP6 ADD PUSH2 0x38A5 JUMP JUMPDEST SWAP2 POP POP SWAP3 SWAP2 POP POP JUMP JUMPDEST PUSH1 0x0 PUSH1 0x20 DUP3 DUP5 SUB SLT ISZERO PUSH2 0x3B46 JUMPI PUSH2 0x3B45 PUSH2 0x381C JUMP JUMPDEST JUMPDEST PUSH1 0x0 PUSH2 0x3B54 DUP5 DUP3 DUP6 ADD PUSH2 0x386F JUMP JUMPDEST SWAP2 POP POP SWAP3 SWAP2 POP POP JUMP JUMPDEST PUSH1 0x0 DUP1 PUSH1 0x40 DUP4 DUP6 SUB SLT ISZERO PUSH2 0x3B74 JUMPI PUSH2 0x3B73 PUSH2 0x381C JUMP JUMPDEST JUMPDEST PUSH1 0x0 PUSH2 0x3B82 DUP6 DUP3 DUP7 ADD PUSH2 0x38A5 JUMP JUMPDEST SWAP3 POP POP PUSH1 0x20 PUSH2 0x3B93 DUP6 DUP3 DUP7 ADD PUSH2 0x38A5 JUMP JUMPDEST SWAP2 POP POP SWAP3 POP SWAP3 SWAP1 POP JUMP JUMPDEST PUSH1 0x0 DUP1 PUSH1 0x40 DUP4 DUP6 SUB SLT ISZERO PUSH2 0x3BB4 JUMPI PUSH2 0x3BB3 PUSH2 0x381C JUMP JUMPDEST JUMPDEST PUSH1 0x0 PUSH2 0x3BC2 DUP6 DUP3 DUP7 ADD PUSH2 0x386F JUMP JUMPDEST SWAP3 POP POP PUSH1 0x20 PUSH2 0x3BD3 DUP6 DUP3 DUP7 ADD PUSH2 0x38A5 JUMP JUMPDEST SWAP2 POP POP SWAP3 POP SWAP3 SWAP1 POP JUMP JUMPDEST PUSH1 0x0 DUP2 MLOAD SWAP1 POP SWAP2 SWAP1 POP JUMP JUMPDEST PUSH1 0x0 DUP3 DUP3 MSTORE PUSH1 0x20 DUP3 ADD SWAP1 POP SWAP3 SWAP2 POP POP JUMP JUMPDEST PUSH1 0x0 DUP2 SWAP1 POP PUSH1 0x20 DUP3 ADD SWAP1 POP SWAP2 SWAP1 POP JUMP JUMPDEST PUSH2 0x3C12 DUP2 PUSH2 0x3846 JUMP JUMPDEST DUP3 MSTORE POP POP JUMP JUMPDEST PUSH1 0x0 PUSH2 0x3C24 DUP4 DUP4 PUSH2 0x3C09 JUMP JUMPDEST PUSH1 0x20 DUP4 ADD SWAP1 POP SWAP3 SWAP2 POP POP JUMP JUMPDEST PUSH1 0x0 PUSH1 0x20 DUP3 ADD SWAP1 POP SWAP2 SWAP1 POP JUMP JUMPDEST PUSH1 0x0 PUSH2 0x3C48 DUP3 PUSH2 0x3BDD JUMP JUMPDEST PUSH2 0x3C52 DUP2 DUP6 PUSH2 0x3BE8 JUMP JUMPDEST SWAP4 POP PUSH2 0x3C5D DUP4 PUSH2 0x3BF9 JUMP JUMPDEST DUP1 PUSH1 0x0 JUMPDEST DUP4 DUP2 LT ISZERO PUSH2 0x3C8E JUMPI DUP2 MLOAD PUSH2 0x3C75 DUP9 DUP3 PUSH2 0x3C18 JUMP JUMPDEST SWAP8 POP PUSH2 0x3C80 DUP4 PUSH2 0x3C30 JUMP JUMPDEST SWAP3 POP POP PUSH1 0x1 DUP2 ADD SWAP1 POP PUSH2 0x3C61 JUMP JUMPDEST POP DUP6 SWAP4 POP POP POP POP SWAP3 SWAP2 POP POP JUMP JUMPDEST PUSH1 0x0 DUP2 MLOAD SWAP1 POP SWAP2 SWAP1 POP JUMP JUMPDEST PUSH1 0x0 DUP3 DUP3 MSTORE PUSH1 0x20 DUP3 ADD SWAP1 POP SWAP3 SWAP2 POP POP JUMP JUMPDEST PUSH1 0x0 DUP2 SWAP1 POP PUSH1 0x20 DUP3 ADD SWAP1 POP SWAP2 SWAP1 POP JUMP JUMPDEST PUSH32 0x4E487B7100000000000000000000000000000000000000000000000000000000 PUSH1 0x0 MSTORE PUSH1 0x21 PUSH1 0x4 MSTORE PUSH1 0x24 PUSH1 0x0 REVERT JUMPDEST PUSH1 0x3 DUP2 LT PUSH2 0x3D07 JUMPI PUSH2 0x3D06 PUSH2 0x3CC7 JUMP JUMPDEST JUMPDEST POP JUMP JUMPDEST PUSH1 0x0 DUP2 SWAP1 POP PUSH2 0x3D18 DUP3 PUSH2 0x3CF6 JUMP JUMPDEST SWAP2 SWAP1 POP JUMP JUMPDEST PUSH1 0x0 PUSH2 0x3D28 DUP3 PUSH2 0x3D0A JUMP JUMPDEST SWAP1 POP SWAP2 SWAP1 POP JUMP JUMPDEST PUSH2 0x3D38 DUP2 PUSH2 0x3D1D JUMP JUMPDEST DUP3 MSTORE POP POP JUMP JUMPDEST PUSH2 0x3D47 DUP2 PUSH2 0x3884 JUMP JUMPDEST DUP3 MSTORE POP POP JUMP JUMPDEST PUSH1 0xA0 DUP3 ADD PUSH1 0x0 DUP3 ADD MLOAD PUSH2 0x3D63 PUSH1 0x0 DUP6 ADD DUP3 PUSH2 0x3D2F JUMP JUMPDEST POP PUSH1 0x20 DUP3 ADD MLOAD PUSH2 0x3D76 PUSH1 0x20 DUP6 ADD DUP3 PUSH2 0x3C09 JUMP JUMPDEST POP PUSH1 0x40 DUP3 ADD MLOAD PUSH2 0x3D89 PUSH1 0x40 DUP6 ADD DUP3 PUSH2 0x3D3E JUMP JUMPDEST POP PUSH1 0x60 DUP3 ADD MLOAD PUSH2 0x3D9C PUSH1 0x60 DUP6 ADD DUP3 PUSH2 0x3D3E JUMP JUMPDEST POP PUSH1 0x80 DUP3 ADD MLOAD PUSH2 0x3DAF PUSH1 0x80 DUP6 ADD DUP3 PUSH2 0x3D3E JUMP JUMPDEST POP POP POP POP JUMP JUMPDEST PUSH1 0x0 PUSH2 0x3DC1 DUP4 DUP4 PUSH2 0x3D4D JUMP JUMPDEST PUSH1 0xA0 DUP4 ADD SWAP1 POP SWAP3 SWAP2 POP POP JUMP JUMPDEST PUSH1 0x0 PUSH1 0x20 DUP3 ADD SWAP1 POP SWAP2 SWAP1 POP JUMP JUMPDEST PUSH1 0x0 PUSH2 0x3DE5 DUP3 PUSH2 0x3C9B JUMP JUMPDEST PUSH2 0x3DEF DUP2 DUP6 PUSH2 0x3CA6 JUMP JUMPDEST SWAP4 POP PUSH2 0x3DFA DUP4 PUSH2 0x3CB7 JUMP JUMPDEST DUP1 PUSH1 0x0 JUMPDEST DUP4 DUP2 LT ISZERO PUSH2 0x3E2B JUMPI DUP2 MLOAD PUSH2 0x3E12 DUP9 DUP3 PUSH2 0x3DB5 JUMP JUMPDEST SWAP8 POP PUSH2 0x3E1D DUP4 PUSH2 0x3DCD JUMP JUMPDEST SWAP3 POP POP PUSH1 0x1 DUP2 ADD SWAP1 POP PUSH2 0x3DFE JUMP JUMPDEST POP DUP6 SWAP4 POP POP POP POP SWAP3 SWAP2 POP POP JUMP JUMPDEST PUSH1 0x0 PUSH1 0x60 DUP3 ADD SWAP1 POP DUP2 DUP2 SUB PUSH1 0x0 DUP4 ADD MSTORE PUSH2 0x3E52 DUP2 DUP7 PUSH2 0x3C3D JUMP JUMPDEST SWAP1 POP DUP2 DUP2 SUB PUSH1 0x20 DUP4 ADD MSTORE PUSH2 0x3E66 DUP2 DUP6 PUSH2 0x3DDA JUMP JUMPDEST SWAP1 POP PUSH2 0x3E75 PUSH1 0x40 DUP4 ADD DUP5 PUSH2 0x3AD9 JUMP JUMPDEST SWAP5 SWAP4 POP POP POP POP JUMP JUMPDEST PUSH1 0x0 PUSH1 0x80 DUP3 ADD SWAP1 POP PUSH2 0x3E92 PUSH1 0x0 DUP4 ADD DUP8 PUSH2 0x3AD9 JUMP JUMPDEST PUSH2 0x3E9F PUSH1 0x20 DUP4 ADD DUP7 PUSH2 0x3AD9 JUMP JUMPDEST PUSH2 0x3EAC PUSH1 0x40 DUP4 ADD DUP6 PUSH2 0x3AD9 JUMP JUMPDEST PUSH2 0x3EB9 PUSH1 0x60 DUP4 ADD DUP5 PUSH2 0x3AD9 JUMP JUMPDEST SWAP6 SWAP5 POP POP POP POP POP JUMP JUMPDEST PUSH1 0x0 DUP1 PUSH1 0x0 PUSH1 0x60 DUP5 DUP7 SUB SLT ISZERO PUSH2 0x3EDB JUMPI PUSH2 0x3EDA PUSH2 0x381C JUMP JUMPDEST JUMPDEST PUSH1 0x0 PUSH2 0x3EE9 DUP7 DUP3 DUP8 ADD PUSH2 0x386F JUMP JUMPDEST SWAP4 POP POP PUSH1 0x20 PUSH2 0x3EFA DUP7 DUP3 DUP8 ADD PUSH2 0x38A5 JUMP JUMPDEST SWAP3 POP POP PUSH1 0x40 PUSH2 0x3F0B DUP7 DUP3 DUP8 ADD PUSH2 0x38A5 JUMP JUMPDEST SWAP2 POP POP SWAP3 POP SWAP3 POP SWAP3 JUMP JUMPDEST PUSH1 0x0 DUP2 MLOAD SWAP1 POP SWAP2 SWAP1 POP JUMP JUMPDEST PUSH1 0x0 DUP3 DUP3 MSTORE PUSH1 0x20 DUP3 ADD SWAP1 POP SWAP3 SWAP2 POP POP JUMP JUMPDEST PUSH1 0x0 DUP2 SWAP1 POP PUSH1 0x20 DUP3 ADD SWAP1 POP SWAP2 SWAP1 POP JUMP JUMPDEST PUSH1 0x0 PUSH2 0x3F4D DUP4 DUP4 PUSH2 0x3D3E JUMP JUMPDEST PUSH1 0x20 DUP4 ADD SWAP1 POP SWAP3 SWAP2 POP POP JUMP JUMPDEST PUSH1 0x0 PUSH1 0x20 DUP3 ADD SWAP1 POP SWAP2 SWAP1 POP JUMP JUMPDEST PUSH1 0x0 PUSH2 0x3F71 DUP3 PUSH2 0x3F15 JUMP JUMPDEST PUSH2 0x3F7B DUP2 DUP6 PUSH2 0x3F20 JUMP JUMPDEST SWAP4 POP PUSH2 0x3F86 DUP4 PUSH2 0x3F31 JUMP JUMPDEST DUP1 PUSH1 0x0 JUMPDEST DUP4 DUP2 LT ISZERO PUSH2 0x3FB7 JUMPI DUP2 MLOAD PUSH2 0x3F9E DUP9 DUP3 PUSH2 0x3F41 JUMP JUMPDEST SWAP8 POP PUSH2 0x3FA9 DUP4 PUSH2 0x3F59 JUMP JUMPDEST SWAP3 POP POP PUSH1 0x1 DUP2 ADD SWAP1 POP PUSH2 0x3F8A JUMP JUMPDEST POP DUP6 SWAP4 POP POP POP POP SWAP3 SWAP2 POP POP JUMP JUMPDEST PUSH1 0x0 DUP2 MLOAD SWAP1 POP SWAP2 SWAP1 POP JUMP JUMPDEST PUSH1 0x0 DUP3 DUP3 MSTORE PUSH1 0x20 DUP3 ADD SWAP1 POP SWAP3 SWAP2 POP POP JUMP JUMPDEST PUSH1 0x0 DUP2 SWAP1 POP PUSH1 0x20 DUP3 ADD SWAP1 POP SWAP2 SWAP1 POP JUMP JUMPDEST PUSH1 0x40 DUP3 ADD PUSH1 0x0 DUP3 ADD MLOAD PUSH2 0x4006 PUSH1 0x0 DUP6 ADD DUP3 PUSH2 0x3C09 JUMP JUMPDEST POP PUSH1 0x20 DUP3 ADD MLOAD PUSH2 0x4019 PUSH1 0x20 DUP6 ADD DUP3 PUSH2 0x3D3E JUMP JUMPDEST POP POP POP POP JUMP JUMPDEST PUSH1 0x0 PUSH2 0x402B DUP4 DUP4 PUSH2 0x3FF0 JUMP JUMPDEST PUSH1 0x40 DUP4 ADD SWAP1 POP SWAP3 SWAP2 POP POP JUMP JUMPDEST PUSH1 0x0 PUSH1 0x20 DUP3 ADD SWAP1 POP SWAP2 SWAP1 POP JUMP JUMPDEST PUSH1 0x0 PUSH2 0x404F DUP3 PUSH2 0x3FC4 JUMP JUMPDEST PUSH2 0x4059 DUP2 DUP6 PUSH2 0x3FCF JUMP JUMPDEST SWAP4 POP PUSH2 0x4064 DUP4 PUSH2 0x3FE0 JUMP JUMPDEST DUP1 PUSH1 0x0 JUMPDEST DUP4 DUP2 LT ISZERO PUSH2 0x4095 JUMPI DUP2 MLOAD PUSH2 0x407C DUP9 DUP3 PUSH2 0x401F JUMP JUMPDEST SWAP8 POP PUSH2 0x4087 DUP4 PUSH2 0x4037 JUMP JUMPDEST SWAP3 POP POP PUSH1 0x1 DUP2 ADD SWAP1 POP PUSH2 0x4068 JUMP JUMPDEST POP DUP6 SWAP4 POP POP POP POP SWAP3 SWAP2 POP POP JUMP JUMPDEST PUSH1 0x0 PUSH1 0x60 DUP3 ADD SWAP1 POP DUP2 DUP2 SUB PUSH1 0x0 DUP4 ADD MSTORE PUSH2 0x40BC DUP2 DUP7 PUSH2 0x3F66 JUMP JUMPDEST SWAP1 POP DUP2 DUP2 SUB PUSH1 0x20 DUP4 ADD MSTORE PUSH2 0x40D0 DUP2 DUP6 PUSH2 0x4044 JUMP JUMPDEST SWAP1 POP PUSH2 0x40DF PUSH1 0x40 DUP4 ADD DUP5 PUSH2 0x3AD9 JUMP JUMPDEST SWAP5 SWAP4 POP POP POP POP JUMP JUMPDEST PUSH2 0x40F0 DUP2 PUSH2 0x3846 JUMP JUMPDEST DUP3 MSTORE POP POP JUMP JUMPDEST PUSH1 0x0 PUSH1 0x20 DUP3 ADD SWAP1 POP PUSH2 0x410B PUSH1 0x0 DUP4 ADD DUP5 PUSH2 0x40E7 JUMP JUMPDEST SWAP3 SWAP2 POP POP JUMP JUMPDEST PUSH1 0x0 DUP1 PUSH1 0x0 DUP1 PUSH1 0x0 PUSH1 0xA0 DUP7 DUP9 SUB SLT ISZERO PUSH2 0x412D JUMPI PUSH2 0x412C PUSH2 0x381C JUMP JUMPDEST JUMPDEST PUSH1 0x0 PUSH2 0x413B DUP9 DUP3 DUP10 ADD PUSH2 0x386F JUMP JUMPDEST SWAP6 POP POP PUSH1 0x20 PUSH2 0x414C DUP9 DUP3 DUP10 ADD PUSH2 0x386F JUMP JUMPDEST SWAP5 POP POP PUSH1 0x40 PUSH2 0x415D DUP9 DUP3 DUP10 ADD PUSH2 0x38A5 JUMP JUMPDEST SWAP4 POP POP PUSH1 0x60 PUSH2 0x416E DUP9 DUP3 DUP10 ADD PUSH2 0x38A5 JUMP JUMPDEST SWAP3 POP POP PUSH1 0x80 PUSH2 0x417F DUP9 DUP3 DUP10 ADD PUSH2 0x38A5 JUMP JUMPDEST SWAP2 POP POP SWAP3 SWAP6 POP SWAP3 SWAP6 SWAP1 SWAP4 POP JUMP JUMPDEST PUSH1 0x0 DUP1 PUSH1 0x0 DUP1 PUSH1 0x80 DUP6 DUP8 SUB SLT ISZERO PUSH2 0x41A6 JUMPI PUSH2 0x41A5 PUSH2 0x381C JUMP JUMPDEST JUMPDEST PUSH1 0x0 PUSH2 0x41B4 DUP8 DUP3 DUP9 ADD PUSH2 0x386F JUMP JUMPDEST SWAP5 POP POP PUSH1 0x20 PUSH2 0x41C5 DUP8 DUP3 DUP9 ADD PUSH2 0x386F JUMP JUMPDEST SWAP4 POP POP PUSH1 0x40 PUSH2 0x41D6 DUP8 DUP3 DUP9 ADD PUSH2 0x38A5 JUMP JUMPDEST SWAP3 POP POP PUSH1 0x60 PUSH2 0x41E7 DUP8 DUP3 DUP9 ADD PUSH2 0x38A5 JUMP JUMPDEST SWAP2 POP POP SWAP3 SWAP6 SWAP2 SWAP5 POP SWAP3 POP JUMP JUMPDEST PUSH1 0x0 DUP1 REVERT JUMPDEST PUSH1 0x0 DUP1 REVERT JUMPDEST PUSH1 0x0 DUP1 DUP4 PUSH1 0x1F DUP5 ADD SLT PUSH2 0x4213 JUMPI PUSH2 0x4212 PUSH2 0x38BA JUMP JUMPDEST JUMPDEST DUP3 CALLDATALOAD SWAP1 POP PUSH8 0xFFFFFFFFFFFFFFFF DUP2 GT ISZERO PUSH2 0x4230 JUMPI PUSH2 0x422F PUSH2 0x41F3 JUMP JUMPDEST JUMPDEST PUSH1 0x20 DUP4 ADD SWAP2 POP DUP4 PUSH1 0x20 DUP3 MUL DUP4 ADD GT ISZERO PUSH2 0x424C JUMPI PUSH2 0x424B PUSH2 0x41F8 JUMP JUMPDEST JUMPDEST SWAP3 POP SWAP3 SWAP1 POP JUMP JUMPDEST PUSH1 0x0 DUP1 PUSH1 0x0 PUSH1 0x40 DUP5 DUP7 SUB SLT ISZERO PUSH2 0x426C JUMPI PUSH2 0x426B PUSH2 0x381C JUMP JUMPDEST JUMPDEST PUSH1 0x0 PUSH2 0x427A DUP7 DUP3 DUP8 ADD PUSH2 0x386F JUMP JUMPDEST SWAP4 POP POP PUSH1 0x20 DUP5 ADD CALLDATALOAD PUSH8 0xFFFFFFFFFFFFFFFF DUP2 GT ISZERO PUSH2 0x429B JUMPI PUSH2 0x429A PUSH2 0x3821 JUMP JUMPDEST JUMPDEST PUSH2 0x42A7 DUP7 DUP3 DUP8 ADD PUSH2 0x41FD JUMP JUMPDEST SWAP3 POP SWAP3 POP POP SWAP3 POP SWAP3 POP SWAP3 JUMP JUMPDEST PUSH1 0x0 DUP2 MLOAD SWAP1 POP SWAP2 SWAP1 POP JUMP JUMPDEST PUSH1 0x0 DUP3 DUP3 MSTORE PUSH1 0x20 DUP3 ADD SWAP1 POP SWAP3 SWAP2 POP POP JUMP JUMPDEST PUSH1 0x0 DUP2 SWAP1 POP PUSH1 0x20 DUP3 ADD SWAP1 POP SWAP2 SWAP1 POP JUMP JUMPDEST PUSH1 0x0 DUP2 ISZERO ISZERO SWAP1 POP SWAP2 SWAP1 POP JUMP JUMPDEST PUSH2 0x42F4 DUP2 PUSH2 0x42DF JUMP JUMPDEST DUP3 MSTORE POP POP JUMP JUMPDEST PUSH1 0x0 PUSH2 0x4306 DUP4 DUP4 PUSH2 0x42EB JUMP JUMPDEST PUSH1 0x20 DUP4 ADD SWAP1 POP SWAP3 SWAP2 POP POP JUMP JUMPDEST PUSH1 0x0 PUSH1 0x20 DUP3 ADD SWAP1 POP SWAP2 SWAP1 POP JUMP JUMPDEST PUSH1 0x0 PUSH2 0x432A DUP3 PUSH2 0x42B3 JUMP JUMPDEST PUSH2 0x4334 DUP2 DUP6 PUSH2 0x42BE JUMP JUMPDEST SWAP4 POP PUSH2 0x433F DUP4 PUSH2 0x42CF JUMP JUMPDEST DUP1 PUSH1 0x0 JUMPDEST DUP4 DUP2 LT ISZERO PUSH2 0x4370 JUMPI DUP2 MLOAD PUSH2 0x4357 DUP9 DUP3 PUSH2 0x42FA JUMP JUMPDEST SWAP8 POP PUSH2 0x4362 DUP4 PUSH2 0x4312 JUMP JUMPDEST SWAP3 POP POP PUSH1 0x1 DUP2 ADD SWAP1 POP PUSH2 0x4343 JUMP JUMPDEST POP DUP6 SWAP4 POP POP POP POP SWAP3 SWAP2 POP POP JUMP JUMPDEST PUSH1 0x0 PUSH1 0x40 DUP3 ADD SWAP1 POP DUP2 DUP2 SUB PUSH1 0x0 DUP4 ADD MSTORE PUSH2 0x4397 DUP2 DUP6 PUSH2 0x431F JUMP JUMPDEST SWAP1 POP DUP2 DUP2 SUB PUSH1 0x20 DUP4 ADD MSTORE PUSH2 0x43AB DUP2 DUP5 PUSH2 0x4044 JUMP JUMPDEST SWAP1 POP SWAP4 SWAP3 POP POP POP JUMP JUMPDEST PUSH1 0x0 PUSH1 0x40 DUP3 ADD SWAP1 POP PUSH2 0x43C9 PUSH1 0x0 DUP4 ADD DUP6 PUSH2 0x40E7 JUMP JUMPDEST PUSH2 0x43D6 PUSH1 0x20 DUP4 ADD DUP5 PUSH2 0x3AD9 JUMP JUMPDEST SWAP4 SWAP3 POP POP POP JUMP JUMPDEST PUSH2 0x43E6 DUP2 PUSH2 0x42DF JUMP JUMPDEST DUP2 EQ PUSH2 0x43F1 JUMPI PUSH1 0x0 DUP1 REVERT JUMPDEST POP JUMP JUMPDEST PUSH1 0x0 DUP2 MLOAD SWAP1 POP PUSH2 0x4403 DUP2 PUSH2 0x43DD JUMP JUMPDEST SWAP3 SWAP2 POP POP JUMP JUMPDEST PUSH1 0x0 PUSH1 0x20 DUP3 DUP5 SUB SLT ISZERO PUSH2 0x441F JUMPI PUSH2 0x441E PUSH2 0x381C JUMP JUMPDEST JUMPDEST PUSH1 0x0 PUSH2 0x442D DUP5 DUP3 DUP6 ADD PUSH2 0x43F4 JUMP JUMPDEST SWAP2 POP POP SWAP3 SWAP2 POP POP JUMP JUMPDEST PUSH1 0x0 DUP3 DUP3 MSTORE PUSH1 0x20 DUP3 ADD SWAP1 POP SWAP3 SWAP2 POP POP JUMP JUMPDEST PUSH32 0x4F7065726174696F6E733A205F6D696E41736B5072696365203C205F6D617841 PUSH1 0x0 DUP3 ADD MSTORE PUSH32 0x736B507269636500000000000000000000000000000000000000000000000000 PUSH1 0x20 DUP3 ADD MSTORE POP JUMP JUMPDEST PUSH1 0x0 PUSH2 0x44A3 PUSH1 0x27 DUP4 PUSH2 0x4436 JUMP JUMPDEST SWAP2 POP PUSH2 0x44AE DUP3 PUSH2 0x4447 JUMP JUMPDEST PUSH1 0x40 DUP3 ADD SWAP1 POP SWAP2 SWAP1 POP JUMP JUMPDEST PUSH1 0x0 PUSH1 0x20 DUP3 ADD SWAP1 POP DUP2 DUP2 SUB PUSH1 0x0 DUP4 ADD MSTORE PUSH2 0x44D2 DUP2 PUSH2 0x4496 JUMP JUMPDEST SWAP1 POP SWAP2 SWAP1 POP JUMP JUMPDEST PUSH1 0x0 PUSH1 0x40 DUP3 ADD SWAP1 POP PUSH2 0x44EE PUSH1 0x0 DUP4 ADD DUP6 PUSH2 0x3AD9 JUMP JUMPDEST PUSH2 0x44FB PUSH1 0x20 DUP4 ADD DUP5 PUSH2 0x3AD9 JUMP JUMPDEST SWAP4 SWAP3 POP POP POP JUMP JUMPDEST PUSH32 0x4E487B7100000000000000000000000000000000000000000000000000000000 PUSH1 0x0 MSTORE PUSH1 0x11 PUSH1 0x4 MSTORE PUSH1 0x24 PUSH1 0x0 REVERT JUMPDEST PUSH1 0x0 PUSH2 0x453C DUP3 PUSH2 0x3884 JUMP JUMPDEST SWAP2 POP PUSH2 0x4547 DUP4 PUSH2 0x3884 JUMP JUMPDEST SWAP3 POP DUP3 DUP3 SUB SWAP1 POP DUP2 DUP2 GT ISZERO PUSH2 0x455F JUMPI PUSH2 0x455E PUSH2 0x4502 JUMP JUMPDEST JUMPDEST SWAP3 SWAP2 POP POP JUMP JUMPDEST PUSH1 0x0 PUSH2 0x4570 DUP3 PUSH2 0x3884 JUMP JUMPDEST SWAP2 POP PUSH2 0x457B DUP4 PUSH2 0x3884 JUMP JUMPDEST SWAP3 POP DUP3 DUP3 ADD SWAP1 POP DUP1 DUP3 GT ISZERO PUSH2 0x4593 JUMPI PUSH2 0x4592 PUSH2 0x4502 JUMP JUMPDEST JUMPDEST SWAP3 SWAP2 POP POP JUMP JUMPDEST PUSH32 0x4E487B7100000000000000000000000000000000000000000000000000000000 PUSH1 0x0 MSTORE PUSH1 0x32 PUSH1 0x4 MSTORE PUSH1 0x24 PUSH1 0x0 REVERT JUMPDEST PUSH32 0x4F7065726174696F6E733A20436F6C6C656374696F6E206E6F74206C69737465 PUSH1 0x0 DUP3 ADD MSTORE PUSH32 0x6400000000000000000000000000000000000000000000000000000000000000 PUSH1 0x20 DUP3 ADD MSTORE POP JUMP JUMPDEST PUSH1 0x0 PUSH2 0x4624 PUSH1 0x21 DUP4 PUSH2 0x4436 JUMP JUMPDEST SWAP2 POP PUSH2 0x462F DUP3 PUSH2 0x45C8 JUMP JUMPDEST PUSH1 0x40 DUP3 ADD SWAP1 POP SWAP2 SWAP1 POP JUMP JUMPDEST PUSH1 0x0 PUSH1 0x20 DUP3 ADD SWAP1 POP DUP2 DUP2 SUB PUSH1 0x0 DUP4 ADD MSTORE PUSH2 0x4653 DUP2 PUSH2 0x4617 JUMP JUMPDEST SWAP1 POP SWAP2 SWAP1 POP JUMP JUMPDEST PUSH32 0x4F726465723A205072696365206E6F742077697468696E2072616E6765000000 PUSH1 0x0 DUP3 ADD MSTORE POP JUMP JUMPDEST PUSH1 0x0 PUSH2 0x4690 PUSH1 0x1D DUP4 PUSH2 0x4436 JUMP JUMPDEST SWAP2 POP PUSH2 0x469B DUP3 PUSH2 0x465A JUMP JUMPDEST PUSH1 0x20 DUP3 ADD SWAP1 POP SWAP2 SWAP1 POP JUMP JUMPDEST PUSH1 0x0 PUSH1 0x20 DUP3 ADD SWAP1 POP DUP2 DUP2 SUB PUSH1 0x0 DUP4 ADD MSTORE PUSH2 0x46BF DUP2 PUSH2 0x4683 JUMP JUMPDEST SWAP1 POP SWAP2 SWAP1 POP JUMP JUMPDEST PUSH32 0x436F6C6C656374696F6E3A204E6F7420666F72206C697374696E670000000000 PUSH1 0x0 DUP3 ADD MSTORE POP JUMP JUMPDEST PUSH1 0x0 PUSH2 0x46FC PUSH1 0x1B DUP4 PUSH2 0x4436 JUMP JUMPDEST SWAP2 POP PUSH2 0x4707 DUP3 PUSH2 0x46C6 JUMP JUMPDEST PUSH1 0x20 DUP3 ADD SWAP1 POP SWAP2 SWAP1 POP JUMP JUMPDEST PUSH1 0x0 PUSH1 0x20 DUP3 ADD SWAP1 POP DUP2 DUP2 SUB PUSH1 0x0 DUP4 ADD MSTORE PUSH2 0x472B DUP2 PUSH2 0x46EF JUMP JUMPDEST SWAP1 POP SWAP2 SWAP1 POP JUMP JUMPDEST PUSH1 0x0 PUSH1 0x60 DUP3 ADD SWAP1 POP PUSH2 0x4747 PUSH1 0x0 DUP4 ADD DUP7 PUSH2 0x40E7 JUMP JUMPDEST PUSH2 0x4754 PUSH1 0x20 DUP4 ADD DUP6 PUSH2 0x40E7 JUMP JUMPDEST PUSH2 0x4761 PUSH1 0x40 DUP4 ADD DUP5 PUSH2 0x3AD9 JUMP JUMPDEST SWAP5 SWAP4 POP POP POP POP JUMP JUMPDEST PUSH32 0x4F7065726174696F6E733A20436F6C6C656374696F6E20616C7265616479206C PUSH1 0x0 DUP3 ADD MSTORE PUSH32 0x6973746564000000000000000000000000000000000000000000000000000000 PUSH1 0x20 DUP3 ADD MSTORE POP JUMP JUMPDEST PUSH1 0x0 PUSH2 0x47C5 PUSH1 0x25 DUP4 PUSH2 0x4436 JUMP JUMPDEST SWAP2 POP PUSH2 0x47D0 DUP3 PUSH2 0x4769 JUMP JUMPDEST PUSH1 0x40 DUP3 ADD SWAP1 POP SWAP2 SWAP1 POP JUMP JUMPDEST PUSH1 0x0 PUSH1 0x20 DUP3 ADD SWAP1 POP DUP2 DUP2 SUB PUSH1 0x0 DUP4 ADD MSTORE PUSH2 0x47F4 DUP2 PUSH2 0x47B8 JUMP JUMPDEST SWAP1 POP SWAP2 SWAP1 POP JUMP JUMPDEST PUSH32 0x54726164652072657761726420657863656564732063726561746F7220666565 PUSH1 0x0 DUP3 ADD MSTORE POP JUMP JUMPDEST PUSH1 0x0 PUSH2 0x4831 PUSH1 0x20 DUP4 PUSH2 0x4436 JUMP JUMPDEST SWAP2 POP PUSH2 0x483C DUP3 PUSH2 0x47FB JUMP JUMPDEST PUSH1 0x20 DUP3 ADD SWAP1 POP SWAP2 SWAP1 POP JUMP JUMPDEST PUSH1 0x0 PUSH1 0x20 DUP3 ADD SWAP1 POP DUP2 DUP2 SUB PUSH1 0x0 DUP4 ADD MSTORE PUSH2 0x4860 DUP2 PUSH2 0x4824 JUMP JUMPDEST SWAP1 POP SWAP2 SWAP1 POP JUMP JUMPDEST PUSH32 0x4164647265737320307830300000000000000000000000000000000000000000 PUSH1 0x0 DUP3 ADD MSTORE POP JUMP JUMPDEST PUSH1 0x0 PUSH2 0x489D PUSH1 0xC DUP4 PUSH2 0x4436 JUMP JUMPDEST SWAP2 POP PUSH2 0x48A8 DUP3 PUSH2 0x4867 JUMP JUMPDEST PUSH1 0x20 DUP3 ADD SWAP1 POP SWAP2 SWAP1 POP JUMP JUMPDEST PUSH1 0x0 PUSH1 0x20 DUP3 ADD SWAP1 POP DUP2 DUP2 SUB PUSH1 0x0 DUP4 ADD MSTORE PUSH2 0x48CC DUP2 PUSH2 0x4890 JUMP JUMPDEST SWAP1 POP SWAP2 SWAP1 POP JUMP JUMPDEST PUSH32 0x4F7065726174696F6E733A2053756D206F6620666565206D75737420696E6665 PUSH1 0x0 DUP3 ADD MSTORE PUSH32 0x72696F7220746F20544F54414C5F4D41585F4645450000000000000000000000 PUSH1 0x20 DUP3 ADD MSTORE POP JUMP JUMPDEST PUSH1 0x0 PUSH2 0x492F PUSH1 0x35 DUP4 PUSH2 0x4436 JUMP JUMPDEST SWAP2 POP PUSH2 0x493A DUP3 PUSH2 0x48D3 JUMP JUMPDEST PUSH1 0x40 DUP3 ADD SWAP1 POP SWAP2 SWAP1 POP JUMP JUMPDEST PUSH1 0x0 PUSH1 0x20 DUP3 ADD SWAP1 POP DUP2 DUP2 SUB PUSH1 0x0 DUP4 ADD MSTORE PUSH2 0x495E DUP2 PUSH2 0x4922 JUMP JUMPDEST SWAP1 POP SWAP2 SWAP1 POP JUMP JUMPDEST PUSH1 0x0 PUSH1 0x60 DUP3 ADD SWAP1 POP PUSH2 0x497A PUSH1 0x0 DUP4 ADD DUP7 PUSH2 0x3AD9 JUMP JUMPDEST PUSH2 0x4987 PUSH1 0x20 DUP4 ADD DUP6 PUSH2 0x3AD9 JUMP JUMPDEST PUSH2 0x4994 PUSH1 0x40 DUP4 ADD DUP5 PUSH2 0x3AD9 JUMP JUMPDEST SWAP5 SWAP4 POP POP POP POP JUMP JUMPDEST PUSH32 0x4F726465723A20546F6B656E206E6F74206C6973746564000000000000000000 PUSH1 0x0 DUP3 ADD MSTORE POP JUMP JUMPDEST PUSH1 0x0 PUSH2 0x49D2 PUSH1 0x17 DUP4 PUSH2 0x4436 JUMP JUMPDEST SWAP2 POP PUSH2 0x49DD DUP3 PUSH2 0x499C JUMP JUMPDEST PUSH1 0x20 DUP3 ADD SWAP1 POP SWAP2 SWAP1 POP JUMP JUMPDEST PUSH1 0x0 PUSH1 0x20 DUP3 ADD SWAP1 POP DUP2 DUP2 SUB PUSH1 0x0 DUP4 ADD MSTORE PUSH2 0x4A01 DUP2 PUSH2 0x49C5 JUMP JUMPDEST SWAP1 POP SWAP2 SWAP1 POP JUMP JUMPDEST PUSH32 0x43726561746F72206E756C6C2061646472657373000000000000000000000000 PUSH1 0x0 DUP3 ADD MSTORE POP JUMP JUMPDEST PUSH1 0x0 PUSH2 0x4A3E PUSH1 0x14 DUP4 PUSH2 0x4436 JUMP JUMPDEST SWAP2 POP PUSH2 0x4A49 DUP3 PUSH2 0x4A08 JUMP JUMPDEST PUSH1 0x20 DUP3 ADD SWAP1 POP SWAP2 SWAP1 POP JUMP JUMPDEST PUSH1 0x0 PUSH1 0x20 DUP3 ADD SWAP1 POP DUP2 DUP2 SUB PUSH1 0x0 DUP4 ADD MSTORE PUSH2 0x4A6D DUP2 PUSH2 0x4A31 JUMP JUMPDEST SWAP1 POP SWAP2 SWAP1 POP JUMP JUMPDEST PUSH32 0x436F6C6C656374696F6E3A204E6F7420666F722074726164696E670000000000 PUSH1 0x0 DUP3 ADD MSTORE POP JUMP JUMPDEST PUSH1 0x0 PUSH2 0x4AAA PUSH1 0x1B DUP4 PUSH2 0x4436 JUMP JUMPDEST SWAP2 POP PUSH2 0x4AB5 DUP3 PUSH2 0x4A74 JUMP JUMPDEST PUSH1 0x20 DUP3 ADD SWAP1 POP SWAP2 SWAP1 POP JUMP JUMPDEST PUSH1 0x0 PUSH1 0x20 DUP3 ADD SWAP1 POP DUP2 DUP2 SUB PUSH1 0x0 DUP4 ADD MSTORE PUSH2 0x4AD9 DUP2 PUSH2 0x4A9D JUMP JUMPDEST SWAP1 POP SWAP2 SWAP1 POP JUMP JUMPDEST PUSH32 0x4275793A204E6F7420666F722073616C65000000000000000000000000000000 PUSH1 0x0 DUP3 ADD MSTORE POP JUMP JUMPDEST PUSH1 0x0 PUSH2 0x4B16 PUSH1 0x11 DUP4 PUSH2 0x4436 JUMP JUMPDEST SWAP2 POP PUSH2 0x4B21 DUP3 PUSH2 0x4AE0 JUMP JUMPDEST PUSH1 0x20 DUP3 ADD SWAP1 POP SWAP2 SWAP1 POP JUMP JUMPDEST PUSH1 0x0 PUSH1 0x20 DUP3 ADD SWAP1 POP DUP2 DUP2 SUB PUSH1 0x0 DUP4 ADD MSTORE PUSH2 0x4B45 DUP2 PUSH2 0x4B09 JUMP JUMPDEST SWAP1 POP SWAP2 SWAP1 POP JUMP JUMPDEST PUSH32 0x4275793A20496E636F7272656374207072696365000000000000000000000000 PUSH1 0x0 DUP3 ADD MSTORE POP JUMP JUMPDEST PUSH1 0x0 PUSH2 0x4B82 PUSH1 0x14 DUP4 PUSH2 0x4436 JUMP JUMPDEST SWAP2 POP PUSH2 0x4B8D DUP3 PUSH2 0x4B4C JUMP JUMPDEST PUSH1 0x20 DUP3 ADD SWAP1 POP SWAP2 SWAP1 POP JUMP JUMPDEST PUSH1 0x0 PUSH1 0x20 DUP3 ADD SWAP1 POP DUP2 DUP2 SUB PUSH1 0x0 DUP4 ADD MSTORE PUSH2 0x4BB1 DUP2 PUSH2 0x4B75 JUMP JUMPDEST SWAP1 POP SWAP2 SWAP1 POP JUMP JUMPDEST PUSH32 0x4275793A2042757965722063616E6E6F742062652073656C6C65720000000000 PUSH1 0x0 DUP3 ADD MSTORE POP JUMP JUMPDEST PUSH1 0x0 PUSH2 0x4BEE PUSH1 0x1B DUP4 PUSH2 0x4436 JUMP JUMPDEST SWAP2 POP PUSH2 0x4BF9 DUP3 PUSH2 0x4BB8 JUMP JUMPDEST PUSH1 0x20 DUP3 ADD SWAP1 POP SWAP2 SWAP1 POP JUMP JUMPDEST PUSH1 0x0 PUSH1 0x20 DUP3 ADD SWAP1 POP DUP2 DUP2 SUB PUSH1 0x0 DUP4 ADD MSTORE PUSH2 0x4C1D DUP2 PUSH2 0x4BE1 JUMP JUMPDEST SWAP1 POP SWAP2 SWAP1 POP JUMP JUMPDEST PUSH1 0x0 DUP2 PUSH1 0x1 SHR SWAP1 POP SWAP2 SWAP1 POP JUMP JUMPDEST PUSH1 0x0 DUP1 DUP3 SWAP2 POP DUP4 SWAP1 POP JUMPDEST PUSH1 0x1 DUP6 GT ISZERO PUSH2 0x4C7B JUMPI DUP1 DUP7 DIV DUP2 GT ISZERO PUSH2 0x4C57 JUMPI PUSH2 0x4C56 PUSH2 0x4502 JUMP JUMPDEST JUMPDEST PUSH1 0x1 DUP6 AND ISZERO PUSH2 0x4C66 JUMPI DUP1 DUP3 MUL SWAP2 POP JUMPDEST DUP1 DUP2 MUL SWAP1 POP PUSH2 0x4C74 DUP6 PUSH2 0x4C24 JUMP JUMPDEST SWAP5 POP PUSH2 0x4C3B JUMP JUMPDEST SWAP5 POP SWAP5 SWAP3 POP POP POP JUMP JUMPDEST PUSH1 0x0 DUP3 PUSH2 0x4C94 JUMPI PUSH1 0x1 SWAP1 POP PUSH2 0x4D50 JUMP JUMPDEST DUP2 PUSH2 0x4CA2 JUMPI PUSH1 0x0 SWAP1 POP PUSH2 0x4D50 JUMP JUMPDEST DUP2 PUSH1 0x1 DUP2 EQ PUSH2 0x4CB8 JUMPI PUSH1 0x2 DUP2 EQ PUSH2 0x4CC2 JUMPI PUSH2 0x4CF1 JUMP JUMPDEST PUSH1 0x1 SWAP2 POP POP PUSH2 0x4D50 JUMP JUMPDEST PUSH1 0xFF DUP5 GT ISZERO PUSH2 0x4CD4 JUMPI PUSH2 0x4CD3 PUSH2 0x4502 JUMP JUMPDEST JUMPDEST DUP4 PUSH1 0x2 EXP SWAP2 POP DUP5 DUP3 GT ISZERO PUSH2 0x4CEB JUMPI PUSH2 0x4CEA PUSH2 0x4502 JUMP JUMPDEST JUMPDEST POP PUSH2 0x4D50 JUMP JUMPDEST POP PUSH1 0x20 DUP4 LT PUSH2 0x133 DUP4 LT AND PUSH1 0x4E DUP5 LT PUSH1 0xB DUP5 LT AND OR ISZERO PUSH2 0x4D26 JUMPI DUP3 DUP3 EXP SWAP1 POP DUP4 DUP2 GT ISZERO PUSH2 0x4D21 JUMPI PUSH2 0x4D20 PUSH2 0x4502 JUMP JUMPDEST JUMPDEST PUSH2 0x4D50 JUMP JUMPDEST PUSH2 0x4D33 DUP5 DUP5 DUP5 PUSH1 0x1 PUSH2 0x4C31 JUMP JUMPDEST SWAP3 POP SWAP1 POP DUP2 DUP5 DIV DUP2 GT ISZERO PUSH2 0x4D4A JUMPI PUSH2 0x4D49 PUSH2 0x4502 JUMP JUMPDEST JUMPDEST DUP2 DUP2 MUL SWAP1 POP JUMPDEST SWAP4 SWAP3 POP POP POP JUMP JUMPDEST PUSH1 0x0 PUSH1 0xFF DUP3 AND SWAP1 POP SWAP2 SWAP1 POP JUMP JUMPDEST PUSH1 0x0 PUSH2 0x4D6F DUP3 PUSH2 0x3884 JUMP JUMPDEST SWAP2 POP PUSH2 0x4D7A DUP4 PUSH2 0x4D57 JUMP JUMPDEST SWAP3 POP PUSH2 0x4DA7 PUSH32 0xFFFFFFFFFFFFFFFFFFFFFFFFFFFFFFFFFFFFFFFFFFFFFFFFFFFFFFFFFFFFFFFF DUP5 DUP5 PUSH2 0x4C84 JUMP JUMPDEST SWAP1 POP SWAP3 SWAP2 POP POP JUMP JUMPDEST PUSH32 0x4E487B7100000000000000000000000000000000000000000000000000000000 PUSH1 0x0 MSTORE PUSH1 0x12 PUSH1 0x4 MSTORE PUSH1 0x24 PUSH1 0x0 REVERT JUMPDEST PUSH1 0x0 PUSH2 0x4DE9 DUP3 PUSH2 0x3884 JUMP JUMPDEST SWAP2 POP PUSH2 0x4DF4 DUP4 PUSH2 0x3884 JUMP JUMPDEST SWAP3 POP DUP3 PUSH2 0x4E04 JUMPI PUSH2 0x4E03 PUSH2 0x4DAF JUMP JUMPDEST JUMPDEST DUP3 DUP3 DIV SWAP1 POP SWAP3 SWAP2 POP POP JUMP JUMPDEST PUSH1 0x0 PUSH2 0x4E1A DUP3 PUSH2 0x3884 JUMP JUMPDEST SWAP2 POP PUSH2 0x4E25 DUP4 PUSH2 0x3884 JUMP JUMPDEST SWAP3 POP DUP3 DUP3 MUL PUSH2 0x4E33 DUP2 PUSH2 0x3884 JUMP JUMPDEST SWAP2 POP DUP3 DUP3 DIV DUP5 EQ DUP4 ISZERO OR PUSH2 0x4E4A JUMPI PUSH2 0x4E49 PUSH2 0x4502 JUMP JUMPDEST JUMPDEST POP SWAP3 SWAP2 POP POP JUMP JUMPDEST PUSH2 0x4E5A DUP2 PUSH2 0x42DF JUMP JUMPDEST DUP3 MSTORE POP POP JUMP JUMPDEST PUSH1 0x0 PUSH1 0x80 DUP3 ADD SWAP1 POP PUSH2 0x4E75 PUSH1 0x0 DUP4 ADD DUP8 PUSH2 0x40E7 JUMP JUMPDEST PUSH2 0x4E82 PUSH1 0x20 DUP4 ADD DUP7 PUSH2 0x3AD9 JUMP JUMPDEST PUSH2 0x4E8F PUSH1 0x40 DUP4 ADD DUP6 PUSH2 0x3AD9 JUMP JUMPDEST PUSH2 0x4E9C PUSH1 0x60 DUP4 ADD DUP5 PUSH2 0x4E51 JUMP JUMPDEST SWAP6 SWAP5 POP POP POP POP POP JUMP JUMPDEST PUSH32 0x4E487B7100000000000000000000000000000000000000000000000000000000 PUSH1 0x0 MSTORE PUSH1 0x31 PUSH1 0x4 MSTORE PUSH1 0x24 PUSH1 0x0 REVERT INVALID LOG2 PUSH5 0x6970667358 0x22 SLT KECCAK256 PUSH5 0xECB2FA3270 PUSH17 0x11ACDF638C2697C8BBEE26341B971DA4FE SGT JUMPI KECCAK256 BLOBHASH DUP1 DUP6 PUSH17 0xB464736F6C634300081800330000000000 "
        },
        "methodIdentifiers": {
          "FUEL()": "98351f3a",
          "TOTAL_MAX_FEE()": "209cbe7e",
          "addCollection(address,address,uint256,uint256,uint256)": "94b1a70f",
          "adminAddress()": "fc6f9468",
          "buyNFTIOTA(address,uint256)": "503fc5cb",
          "calculateNFTDistribution(address,uint256)": "7a62defd",
          "cancelAskOrder(address,uint256)": "95f42098",
          "claimRewards()": "372500ab",
          "claimRoyalties()": "069b7820",
          "createAskOrder(address,uint256,uint256)": "803b64a1",
          "fuelRate()": "dff5f08c",
          "maxAskPrice()": "6df8cd13",
          "minAskPrice()": "d9cc6c0c",
          "modifyAskOrder(address,uint256,uint256)": "9b2adcdc",
          "modifyCollection(address,address,uint256,uint256,uint256)": "c8eba03e",
          "onERC721Received(address,address,uint256,bytes)": "150b7a02",
          "openCollection(address)": "5dce1e76",
          "owner()": "8da5cb5b",
          "pauseCollection(address)": "683514d9",
          "pendingRewards(address)": "31d7a262",
          "pendingRoyalties(address)": "9a2fa9bb",
          "renounceOwnership()": "715018a6",
          "transferOwnership(address)": "f2fde38b",
          "treasuryAddress()": "c5f956af",
          "updateFuelRate(uint256)": "286df8b1",
          "updateMinMax(uint256,uint256)": "3bbd391e",
          "viewAsksByCollection(address,uint256,uint256)": "84a40864",
          "viewAsksByCollectionSeller(address,address,uint256,uint256)": "a3606f89",
          "viewAsksByTokenIds(address,uint256[])": "ea7f47c8",
          "viewCollections(uint256,uint256)": "51c383ea"
        }
      }
    }
  }
}