{
  "_format": "hh-sol-artifact-1",
  "contractName": "EZIOTAMarketV1",
  "sourceName": "contracts/EZIOTAMarketV1.sol",
  "abi": [
    {
      "inputs": [
        {
          "internalType": "address",
          "name": "_adminAddress",
          "type": "address"
        },
        {
          "internalType": "address",
          "name": "_treasuryAddress",
          "type": "address"
        },
        {
          "internalType": "address",
          "name": "_FUELAddress",
          "type": "address"
        },
        {
          "internalType": "uint256",
          "name": "_fuelRate",
          "type": "uint256"
        }
      ],
      "stateMutability": "nonpayable",
      "type": "constructor"
    },
    {
      "inputs": [
        {
          "internalType": "address",
          "name": "owner",
          "type": "address"
        }
      ],
      "name": "OwnableInvalidOwner",
      "type": "error"
    },
    {
      "inputs": [
        {
          "internalType": "address",
          "name": "account",
          "type": "address"
        }
      ],
      "name": "OwnableUnauthorizedAccount",
      "type": "error"
    },
    {
      "inputs": [],
      "name": "ReentrancyGuardReentrantCall",
      "type": "error"
    },
    {
      "anonymous": false,
      "inputs": [
        {
          "indexed": true,
          "internalType": "address",
          "name": "collection",
          "type": "address"
        },
        {
          "indexed": true,
          "internalType": "address",
          "name": "seller",
          "type": "address"
        },
        {
          "indexed": true,
          "internalType": "uint256",
          "name": "tokenId",
          "type": "uint256"
        }
      ],
      "name": "AskCancel",
      "type": "event"
    },
    {
      "anonymous": false,
      "inputs": [
        {
          "indexed": true,
          "internalType": "address",
          "name": "collection",
          "type": "address"
        },
        {
          "indexed": true,
          "internalType": "address",
          "name": "seller",
          "type": "address"
        },
        {
          "indexed": true,
          "internalType": "uint256",
          "name": "tokenId",
          "type": "uint256"
        },
        {
          "indexed": false,
          "internalType": "uint256",
          "name": "askPrice",
          "type": "uint256"
        }
      ],
      "name": "AskNew",
      "type": "event"
    },
    {
      "anonymous": false,
      "inputs": [
        {
          "indexed": true,
          "internalType": "address",
          "name": "collection",
          "type": "address"
        },
        {
          "indexed": true,
          "internalType": "address",
          "name": "seller",
          "type": "address"
        },
        {
          "indexed": true,
          "internalType": "uint256",
          "name": "tokenId",
          "type": "uint256"
        },
        {
          "indexed": false,
          "internalType": "uint256",
          "name": "askPrice",
          "type": "uint256"
        }
      ],
      "name": "AskUpdate",
      "type": "event"
    },
    {
      "anonymous": false,
      "inputs": [
        {
          "indexed": true,
          "internalType": "address",
          "name": "collection",
          "type": "address"
        },
        {
          "indexed": true,
          "internalType": "uint256",
          "name": "tokenId",
          "type": "uint256"
        },
        {
          "indexed": true,
          "internalType": "address",
          "name": "seller",
          "type": "address"
        },
        {
          "indexed": false,
          "internalType": "address",
          "name": "buyer",
          "type": "address"
        },
        {
          "indexed": false,
          "internalType": "uint256",
          "name": "askPrice",
          "type": "uint256"
        },
        {
          "indexed": false,
          "internalType": "uint256",
          "name": "netPrice",
          "type": "uint256"
        }
      ],
      "name": "BuyExecuted",
      "type": "event"
    },
    {
      "anonymous": false,
      "inputs": [
        {
          "indexed": true,
          "internalType": "address",
          "name": "collection",
          "type": "address"
        }
      ],
      "name": "CollectionClose",
      "type": "event"
    },
    {
      "anonymous": false,
      "inputs": [
        {
          "indexed": true,
          "internalType": "address",
          "name": "collection",
          "type": "address"
        },
        {
          "indexed": true,
          "internalType": "address",
          "name": "creator",
          "type": "address"
        },
        {
          "indexed": false,
          "internalType": "uint256",
          "name": "tradingFee",
          "type": "uint256"
        },
        {
          "indexed": false,
          "internalType": "uint256",
          "name": "creatorFee",
          "type": "uint256"
        },
        {
          "indexed": false,
          "internalType": "uint256",
          "name": "tradeReward",
          "type": "uint256"
        }
      ],
      "name": "CollectionNew",
      "type": "event"
    },
    {
      "anonymous": false,
      "inputs": [
        {
          "indexed": true,
          "internalType": "address",
          "name": "collection",
          "type": "address"
        }
      ],
      "name": "CollectionOpen",
      "type": "event"
    },
    {
      "anonymous": false,
      "inputs": [
        {
          "indexed": true,
          "internalType": "address",
          "name": "collection",
          "type": "address"
        },
        {
          "indexed": true,
          "internalType": "address",
          "name": "creator",
          "type": "address"
        },
        {
          "indexed": false,
          "internalType": "uint256",
          "name": "tradingFee",
          "type": "uint256"
        },
        {
          "indexed": false,
          "internalType": "uint256",
          "name": "creatorFee",
          "type": "uint256"
        },
        {
          "indexed": false,
          "internalType": "uint256",
          "name": "tradeReward",
          "type": "uint256"
        }
      ],
      "name": "CollectionUpdate",
      "type": "event"
    },
    {
      "anonymous": false,
      "inputs": [
        {
          "indexed": true,
          "internalType": "address",
          "name": "admin",
          "type": "address"
        },
        {
          "indexed": true,
          "internalType": "address",
          "name": "treasury",
          "type": "address"
        }
      ],
      "name": "NewAdminAndTreasuryAddresses",
      "type": "event"
    },
    {
      "anonymous": false,
      "inputs": [
        {
          "indexed": false,
          "internalType": "uint256",
          "name": "fuelRate",
          "type": "uint256"
        }
      ],
      "name": "NewFUELRate",
      "type": "event"
    },
    {
      "anonymous": false,
      "inputs": [
        {
          "indexed": false,
          "internalType": "uint256",
          "name": "minAskPrice",
          "type": "uint256"
        },
        {
          "indexed": false,
          "internalType": "uint256",
          "name": "maxAskPrice",
          "type": "uint256"
        }
      ],
      "name": "NewMinAndMaxAskPrices",
      "type": "event"
    },
    {
      "anonymous": false,
      "inputs": [
        {
          "indexed": true,
          "internalType": "address",
          "name": "previousOwner",
          "type": "address"
        },
        {
          "indexed": true,
          "internalType": "address",
          "name": "newOwner",
          "type": "address"
        }
      ],
      "name": "OwnershipTransferred",
      "type": "event"
    },
    {
      "anonymous": false,
      "inputs": [
        {
          "indexed": true,
          "internalType": "address",
          "name": "claimer",
          "type": "address"
        },
        {
          "indexed": false,
          "internalType": "uint256",
          "name": "amount",
          "type": "uint256"
        }
      ],
      "name": "RewardsClaim",
      "type": "event"
    },
    {
      "anonymous": false,
      "inputs": [
        {
          "indexed": true,
          "internalType": "address",
          "name": "claimer",
          "type": "address"
        },
        {
          "indexed": false,
          "internalType": "uint256",
          "name": "amount",
          "type": "uint256"
        }
      ],
      "name": "RoyaltyClaim",
      "type": "event"
    },
    {
      "inputs": [],
      "name": "FUEL",
      "outputs": [
        {
          "internalType": "address",
          "name": "",
          "type": "address"
        }
      ],
      "stateMutability": "view",
      "type": "function"
    },
    {
      "inputs": [],
      "name": "TOTAL_MAX_FEE",
      "outputs": [
        {
          "internalType": "uint256",
          "name": "",
          "type": "uint256"
        }
      ],
      "stateMutability": "view",
      "type": "function"
    },
    {
      "inputs": [
        {
          "internalType": "address",
          "name": "_collection",
          "type": "address"
        },
        {
          "internalType": "address",
          "name": "_creator",
          "type": "address"
        },
        {
          "internalType": "uint256",
          "name": "_tradingFee",
          "type": "uint256"
        },
        {
          "internalType": "uint256",
          "name": "_creatorFee",
          "type": "uint256"
        },
        {
          "internalType": "uint256",
          "name": "_tradeReward",
          "type": "uint256"
        }
      ],
      "name": "addCollection",
      "outputs": [],
      "stateMutability": "nonpayable",
      "type": "function"
    },
    {
      "inputs": [],
      "name": "adminAddress",
      "outputs": [
        {
          "internalType": "address",
          "name": "",
          "type": "address"
        }
      ],
      "stateMutability": "view",
      "type": "function"
    },
    {
      "inputs": [
        {
          "internalType": "address",
          "name": "_collection",
          "type": "address"
        },
        {
          "internalType": "uint256",
          "name": "_tokenId",
          "type": "uint256"
        }
      ],
      "name": "buyNFTIOTA",
      "outputs": [],
      "stateMutability": "payable",
      "type": "function"
    },
    {
      "inputs": [
        {
          "internalType": "address",
          "name": "collection",
          "type": "address"
        },
        {
          "internalType": "uint256",
          "name": "price",
          "type": "uint256"
        }
      ],
      "name": "calculateNFTDistribution",
      "outputs": [
        {
          "internalType": "uint256",
          "name": "netPrice",
          "type": "uint256"
        },
        {
          "internalType": "uint256",
          "name": "tradingFee",
          "type": "uint256"
        },
        {
          "internalType": "uint256",
          "name": "creatorFee",
          "type": "uint256"
        },
        {
          "internalType": "uint256",
          "name": "tradeReward",
          "type": "uint256"
        }
      ],
      "stateMutability": "view",
      "type": "function"
    },
    {
      "inputs": [
        {
          "internalType": "address",
          "name": "_collection",
          "type": "address"
        },
        {
          "internalType": "uint256",
          "name": "_tokenId",
          "type": "uint256"
        }
      ],
      "name": "cancelAskOrder",
      "outputs": [],
      "stateMutability": "nonpayable",
      "type": "function"
    },
    {
      "inputs": [],
      "name": "claimRewards",
      "outputs": [],
      "stateMutability": "nonpayable",
      "type": "function"
    },
    {
      "inputs": [],
      "name": "claimRoyalties",
      "outputs": [],
      "stateMutability": "nonpayable",
      "type": "function"
    },
    {
      "inputs": [
        {
          "internalType": "address",
          "name": "_collection",
          "type": "address"
        },
        {
          "internalType": "uint256",
          "name": "_tokenId",
          "type": "uint256"
        },
        {
          "internalType": "uint256",
          "name": "_askPrice",
          "type": "uint256"
        }
      ],
      "name": "createAskOrder",
      "outputs": [],
      "stateMutability": "nonpayable",
      "type": "function"
    },
    {
      "inputs": [
        {
          "internalType": "address",
          "name": "",
          "type": "address"
        }
      ],
      "name": "feesWithFuel",
      "outputs": [
        {
          "internalType": "bool",
          "name": "",
          "type": "bool"
        }
      ],
      "stateMutability": "view",
      "type": "function"
    },
    {
      "inputs": [],
      "name": "fuelRate",
      "outputs": [
        {
          "internalType": "uint256",
          "name": "",
          "type": "uint256"
        }
      ],
      "stateMutability": "view",
      "type": "function"
    },
    {
      "inputs": [],
      "name": "maxAskPrice",
      "outputs": [
        {
          "internalType": "uint256",
          "name": "",
          "type": "uint256"
        }
      ],
      "stateMutability": "view",
      "type": "function"
    },
    {
      "inputs": [],
      "name": "minAskPrice",
      "outputs": [
        {
          "internalType": "uint256",
          "name": "",
          "type": "uint256"
        }
      ],
      "stateMutability": "view",
      "type": "function"
    },
    {
      "inputs": [
        {
          "internalType": "address",
          "name": "_collection",
          "type": "address"
        },
        {
          "internalType": "uint256",
          "name": "_tokenId",
          "type": "uint256"
        },
        {
          "internalType": "uint256",
          "name": "_newPrice",
          "type": "uint256"
        }
      ],
      "name": "modifyAskOrder",
      "outputs": [],
      "stateMutability": "nonpayable",
      "type": "function"
    },
    {
      "inputs": [
        {
          "internalType": "address",
          "name": "_collection",
          "type": "address"
        },
        {
          "internalType": "address",
          "name": "_creator",
          "type": "address"
        },
        {
          "internalType": "uint256",
          "name": "_tradingFee",
          "type": "uint256"
        },
        {
          "internalType": "uint256",
          "name": "_creatorFee",
          "type": "uint256"
        },
        {
          "internalType": "uint256",
          "name": "_tradeReward",
          "type": "uint256"
        }
      ],
      "name": "modifyCollection",
      "outputs": [],
      "stateMutability": "nonpayable",
      "type": "function"
    },
    {
      "inputs": [
        {
          "internalType": "address",
          "name": "",
          "type": "address"
        },
        {
          "internalType": "address",
          "name": "",
          "type": "address"
        },
        {
          "internalType": "uint256",
          "name": "",
          "type": "uint256"
        },
        {
          "internalType": "bytes",
          "name": "",
          "type": "bytes"
        }
      ],
      "name": "onERC721Received",
      "outputs": [
        {
          "internalType": "bytes4",
          "name": "",
          "type": "bytes4"
        }
      ],
      "stateMutability": "nonpayable",
      "type": "function"
    },
    {
      "inputs": [
        {
          "internalType": "address",
          "name": "_collection",
          "type": "address"
        }
      ],
      "name": "openCollection",
      "outputs": [],
      "stateMutability": "nonpayable",
      "type": "function"
    },
    {
      "inputs": [],
      "name": "owner",
      "outputs": [
        {
          "internalType": "address",
          "name": "",
          "type": "address"
        }
      ],
      "stateMutability": "view",
      "type": "function"
    },
    {
      "inputs": [
        {
          "internalType": "address",
          "name": "_collection",
          "type": "address"
        }
      ],
      "name": "pauseCollection",
      "outputs": [],
      "stateMutability": "nonpayable",
      "type": "function"
    },
    {
      "inputs": [],
      "name": "payFeesWithFuel",
      "outputs": [],
      "stateMutability": "nonpayable",
      "type": "function"
    },
    {
      "inputs": [
        {
          "internalType": "address",
          "name": "",
          "type": "address"
        }
      ],
      "name": "pendingRewards",
      "outputs": [
        {
          "internalType": "uint256",
          "name": "",
          "type": "uint256"
        }
      ],
      "stateMutability": "view",
      "type": "function"
    },
    {
      "inputs": [
        {
          "internalType": "address",
          "name": "",
          "type": "address"
        }
      ],
      "name": "pendingRoyalties",
      "outputs": [
        {
          "internalType": "uint256",
          "name": "",
          "type": "uint256"
        }
      ],
      "stateMutability": "view",
      "type": "function"
    },
    {
      "inputs": [],
      "name": "renounceOwnership",
      "outputs": [],
      "stateMutability": "nonpayable",
      "type": "function"
    },
    {
      "inputs": [
        {
          "internalType": "address",
          "name": "newOwner",
          "type": "address"
        }
      ],
      "name": "transferOwnership",
      "outputs": [],
      "stateMutability": "nonpayable",
      "type": "function"
    },
    {
      "inputs": [],
      "name": "treasuryAddress",
      "outputs": [
        {
          "internalType": "address",
          "name": "",
          "type": "address"
        }
      ],
      "stateMutability": "view",
      "type": "function"
    },
    {
      "inputs": [
        {
          "internalType": "uint256",
          "name": "_fuelRate",
          "type": "uint256"
        }
      ],
      "name": "updateFuelRate",
      "outputs": [],
      "stateMutability": "nonpayable",
      "type": "function"
    },
    {
      "inputs": [
        {
          "internalType": "uint256",
          "name": "_minAskPrice",
          "type": "uint256"
        },
        {
          "internalType": "uint256",
          "name": "_maxAskPrice",
          "type": "uint256"
        }
      ],
      "name": "updateMinMax",
      "outputs": [],
      "stateMutability": "nonpayable",
      "type": "function"
    },
    {
      "inputs": [
        {
          "internalType": "address",
          "name": "collection",
          "type": "address"
        },
        {
          "internalType": "uint256",
          "name": "cursor",
          "type": "uint256"
        },
        {
          "internalType": "uint256",
          "name": "size",
          "type": "uint256"
        }
      ],
      "name": "viewAsksByCollection",
      "outputs": [
        {
          "internalType": "uint256[]",
          "name": "tokenIds",
          "type": "uint256[]"
        },
        {
          "components": [
            {
              "internalType": "address",
              "name": "seller",
              "type": "address"
            },
            {
              "internalType": "uint256",
              "name": "price",
              "type": "uint256"
            }
          ],
          "internalType": "struct EZIOTAMarketV1.Ask[]",
          "name": "askInfo",
          "type": "tuple[]"
        },
        {
          "internalType": "uint256",
          "name": "",
          "type": "uint256"
        }
      ],
      "stateMutability": "view",
      "type": "function"
    },
    {
      "inputs": [
        {
          "internalType": "address",
          "name": "collection",
          "type": "address"
        },
        {
          "internalType": "address",
          "name": "seller",
          "type": "address"
        },
        {
          "internalType": "uint256",
          "name": "cursor",
          "type": "uint256"
        },
        {
          "internalType": "uint256",
          "name": "size",
          "type": "uint256"
        }
      ],
      "name": "viewAsksByCollectionSeller",
      "outputs": [
        {
          "internalType": "uint256[]",
          "name": "tokenIds",
          "type": "uint256[]"
        },
        {
          "components": [
            {
              "internalType": "address",
              "name": "seller",
              "type": "address"
            },
            {
              "internalType": "uint256",
              "name": "price",
              "type": "uint256"
            }
          ],
          "internalType": "struct EZIOTAMarketV1.Ask[]",
          "name": "askInfo",
          "type": "tuple[]"
        },
        {
          "internalType": "uint256",
          "name": "",
          "type": "uint256"
        }
      ],
      "stateMutability": "view",
      "type": "function"
    },
    {
      "inputs": [
        {
          "internalType": "address",
          "name": "collection",
          "type": "address"
        },
        {
          "internalType": "uint256[]",
          "name": "tokenIds",
          "type": "uint256[]"
        }
      ],
      "name": "viewAsksByTokenIds",
      "outputs": [
        {
          "internalType": "bool[]",
          "name": "statuses",
          "type": "bool[]"
        },
        {
          "components": [
            {
              "internalType": "address",
              "name": "seller",
              "type": "address"
            },
            {
              "internalType": "uint256",
              "name": "price",
              "type": "uint256"
            }
          ],
          "internalType": "struct EZIOTAMarketV1.Ask[]",
          "name": "askInfo",
          "type": "tuple[]"
        }
      ],
      "stateMutability": "view",
      "type": "function"
    },
    {
      "inputs": [
        {
          "internalType": "uint256",
          "name": "cursor",
          "type": "uint256"
        },
        {
          "internalType": "uint256",
          "name": "size",
          "type": "uint256"
        }
      ],
      "name": "viewCollections",
      "outputs": [
        {
          "internalType": "address[]",
          "name": "collectionAddresses",
          "type": "address[]"
        },
        {
          "components": [
            {
              "internalType": "enum EZIOTAMarketV1.CollectionStatus",
              "name": "status",
              "type": "uint8"
            },
            {
              "internalType": "address",
              "name": "creatorAddress",
              "type": "address"
            },
            {
              "internalType": "uint256",
              "name": "tradingFee",
              "type": "uint256"
            },
            {
              "internalType": "uint256",
              "name": "creatorFee",
              "type": "uint256"
            },
            {
              "internalType": "uint256",
              "name": "tradeReward",
              "type": "uint256"
            }
          ],
          "internalType": "struct EZIOTAMarketV1.Collection[]",
          "name": "collectionDetails",
          "type": "tuple[]"
        },
        {
          "internalType": "uint256",
          "name": "",
          "type": "uint256"
        }
      ],
      "stateMutability": "view",
      "type": "function"
    }
  ],
  "bytecode": "0x60a06040523480156200001157600080fd5b50604051620058d1380380620058d183398181016040528101906200003791906200044c565b83600073ffffffffffffffffffffffffffffffffffffffff168173ffffffffffffffffffffffffffffffffffffffff1603620000ad5760006040517f1e4fbdf7000000000000000000000000000000000000000000000000000000008152600401620000a49190620004cf565b60405180910390fd5b620000be81620002e360201b60201c565b5060018081905550600073ffffffffffffffffffffffffffffffffffffffff168473ffffffffffffffffffffffffffffffffffffffff160362000138576040517f08c379a00000000000000000000000000000000000000000000000000000000081526004016200012f9062000573565b60405180910390fd5b600073ffffffffffffffffffffffffffffffffffffffff168373ffffffffffffffffffffffffffffffffffffffff1603620001aa576040517f08c379a0000000000000000000000000000000000000000000000000000000008152600401620001a1906200060b565b60405180910390fd5b600073ffffffffffffffffffffffffffffffffffffffff168273ffffffffffffffffffffffffffffffffffffffff16036200021c576040517f08c379a00000000000000000000000000000000000000000000000000000000081526004016200021390620006a3565b60405180910390fd5b83600260006101000a81548173ffffffffffffffffffffffffffffffffffffffff021916908373ffffffffffffffffffffffffffffffffffffffff16021790555082600360006101000a81548173ffffffffffffffffffffffffffffffffffffffff021916908373ffffffffffffffffffffffffffffffffffffffff1602179055508173ffffffffffffffffffffffffffffffffffffffff1660808173ffffffffffffffffffffffffffffffffffffffff16815250508060068190555050505050620006c5565b60008060009054906101000a900473ffffffffffffffffffffffffffffffffffffffff169050816000806101000a81548173ffffffffffffffffffffffffffffffffffffffff021916908373ffffffffffffffffffffffffffffffffffffffff1602179055508173ffffffffffffffffffffffffffffffffffffffff168173ffffffffffffffffffffffffffffffffffffffff167f8be0079c531659141344cd1fd0a4f28419497f9722a3daafe3b4186f6b6457e060405160405180910390a35050565b600080fd5b600073ffffffffffffffffffffffffffffffffffffffff82169050919050565b6000620003d982620003ac565b9050919050565b620003eb81620003cc565b8114620003f757600080fd5b50565b6000815190506200040b81620003e0565b92915050565b6000819050919050565b620004268162000411565b81146200043257600080fd5b50565b60008151905062000446816200041b565b92915050565b60008060008060808587031215620004695762000468620003a7565b5b60006200047987828801620003fa565b94505060206200048c87828801620003fa565b93505060406200049f87828801620003fa565b9250506060620004b28782880162000435565b91505092959194509250565b620004c981620003cc565b82525050565b6000602082019050620004e66000830184620004be565b92915050565b600082825260208201905092915050565b7f4f7065726174696f6e733a2041646d696e20616464726573732063616e6e6f7460008201527f206265207a65726f000000000000000000000000000000000000000000000000602082015250565b60006200055b602883620004ec565b91506200056882620004fd565b604082019050919050565b600060208201905081810360008301526200058e816200054c565b9050919050565b7f4f7065726174696f6e733a20547265617375727920616464726573732063616e60008201527f6e6f74206265207a65726f000000000000000000000000000000000000000000602082015250565b6000620005f3602b83620004ec565b9150620006008262000595565b604082019050919050565b600060208201905081810360008301526200062681620005e4565b9050919050565b7f4f7065726174696f6e733a204655454c20616464726573732063616e6e6f742060008201527f6265207a65726f00000000000000000000000000000000000000000000000000602082015250565b60006200068b602783620004ec565b915062000698826200062d565b604082019050919050565b60006020820190508181036000830152620006be816200067c565b9050919050565b6080516151e2620006ef6000396000818161097001528181610f46015261269b01526151e26000f3fe6080604052600436106101e35760003560e01c806384a4086411610102578063b62c773e11610095578063dff5f08c11610064578063dff5f08c146106c4578063ea7f47c8146106ef578063f2fde38b1461072d578063fc6f946814610756576101e3565b8063b62c773e1461062e578063c5f956af14610645578063c8eba03e14610670578063d9cc6c0c14610699576101e3565b806398351f3a116100d157806398351f3a1461055e5780639a2fa9bb146105895780639b2adcdc146105c6578063a3606f89146105ef576101e3565b806384a40864146104a25780638da5cb5b146104e157806394b1a70f1461050c57806395f4209814610535576101e3565b806351c383ea1161017a5780636df8cd13116101495780636df8cd13146103f7578063715018a6146104225780637a62defd14610439578063803b64a114610479576101e3565b806351c383ea14610329578063520532ec146103685780635dce1e76146103a5578063683514d9146103ce576101e3565b806331d7a262116101b657806331d7a26214610290578063372500ab146102cd5780633bbd391e146102e4578063503fc5cb1461030d576101e3565b8063069b7820146101e8578063150b7a02146101ff578063209cbe7e1461023c578063286df8b114610267575b600080fd5b3480156101f457600080fd5b506101fd610781565b005b34801561020b57600080fd5b5061022660048036038101906102219190613ccb565b6108eb565b6040516102339190613d89565b60405180910390f35b34801561024857600080fd5b506102516108ff565b60405161025e9190613db3565b60405180910390f35b34801561027357600080fd5b5061028e60048036038101906102899190613dce565b610905565b005b34801561029c57600080fd5b506102b760048036038101906102b29190613dfb565b61094e565b6040516102c49190613db3565b60405180910390f35b3480156102d957600080fd5b506102e2610966565b005b3480156102f057600080fd5b5061030b60048036038101906103069190613e28565b610b28565b005b61032760048036038101906103229190613e68565b610bbd565b005b34801561033557600080fd5b50610350600480360381019061034b9190613e28565b611495565b60405161035f93929190614103565b60405180910390f35b34801561037457600080fd5b5061038f600480360381019061038a9190613dfb565b611745565b60405161039c9190614163565b60405180910390f35b3480156103b157600080fd5b506103cc60048036038101906103c79190613dfb565b611765565b005b3480156103da57600080fd5b506103f560048036038101906103f09190613dfb565b611871565b005b34801561040357600080fd5b5061040c61197d565b6040516104199190613db3565b60405180910390f35b34801561042e57600080fd5b50610437611983565b005b34801561044557600080fd5b50610460600480360381019061045b9190613e68565b611997565b604051610470949392919061417e565b60405180910390f35b34801561048557600080fd5b506104a0600480360381019061049b91906141c3565b6119b8565b005b3480156104ae57600080fd5b506104c960048036038101906104c491906141c3565b611d5b565b6040516104d8939291906143a3565b60405180910390f35b3480156104ed57600080fd5b506104f6612058565b60405161050391906143f7565b60405180910390f35b34801561051857600080fd5b50610533600480360381019061052e9190614412565b612081565b005b34801561054157600080fd5b5061055c60048036038101906105579190613e68565b61238b565b005b34801561056a57600080fd5b50610573612699565b60405161058091906143f7565b60405180910390f35b34801561059557600080fd5b506105b060048036038101906105ab9190613dfb565b6126bd565b6040516105bd9190613db3565b60405180910390f35b3480156105d257600080fd5b506105ed60048036038101906105e891906141c3565b6126d5565b005b3480156105fb57600080fd5b506106166004803603810190610611919061448d565b61297e565b604051610625939291906143a3565b60405180910390f35b34801561063a57600080fd5b50610643612d33565b005b34801561065157600080fd5b5061065a612dd9565b60405161066791906143f7565b60405180910390f35b34801561067c57600080fd5b5061069760048036038101906106929190614412565b612dff565b005b3480156106a557600080fd5b506106ae6130f3565b6040516106bb9190613db3565b60405180910390f35b3480156106d057600080fd5b506106d96130f9565b6040516106e69190613db3565b60405180910390f35b3480156106fb57600080fd5b5061071660048036038101906107119190614554565b6130ff565b604051610724929190614672565b60405180910390f35b34801561073957600080fd5b50610754600480360381019061074f9190613dfb565b613382565b005b34801561076257600080fd5b5061076b613408565b60405161077891906143f7565b60405180910390f35b61078961342e565b3373ffffffffffffffffffffffffffffffffffffffff166108fc600760003373ffffffffffffffffffffffffffffffffffffffff1673ffffffffffffffffffffffffffffffffffffffff168152602001908152602001600020549081150290604051600060405180830381858888f1935050505015801561080e573d6000803e3d6000fd5b503373ffffffffffffffffffffffffffffffffffffffff167fb8179b03c7934f30968ac9a02b224c0554c475e358d19b8e1a299d7f29fe4e12600760003373ffffffffffffffffffffffffffffffffffffffff1673ffffffffffffffffffffffffffffffffffffffff168152602001908152602001600020546040516108949190613db3565b60405180910390a26000600760003373ffffffffffffffffffffffffffffffffffffffff1673ffffffffffffffffffffffffffffffffffffffff168152602001908152602001600020819055506108e9613474565b565b600063150b7a0260e01b9050949350505050565b610bb881565b61090d61347d565b806006819055507f14f85022c6c3f8388a9826681ad16713dd725c53965e52844cfd110e6bb465c2816040516109439190613db3565b60405180910390a150565b60086020528060005260406000206000915090505481565b61096e61342e565b7f000000000000000000000000000000000000000000000000000000000000000073ffffffffffffffffffffffffffffffffffffffff1663a9059cbb33600860003373ffffffffffffffffffffffffffffffffffffffff1673ffffffffffffffffffffffffffffffffffffffff168152602001908152602001600020546040518363ffffffff1660e01b8152600401610a089291906146a9565b6020604051808303816000875af1158015610a27573d6000803e3d6000fd5b505050506040513d601f19601f82011682018060405250810190610a4b91906146fe565b503373ffffffffffffffffffffffffffffffffffffffff167ff0193af62631cc04f42841d590c093e885b44520cbb14dc573193023f80cb284600860003373ffffffffffffffffffffffffffffffffffffffff1673ffffffffffffffffffffffffffffffffffffffff16815260200190815260200160002054604051610ad19190613db3565b60405180910390a26000600860003373ffffffffffffffffffffffffffffffffffffffff1673ffffffffffffffffffffffffffffffffffffffff16815260200190815260200160002081905550610b26613474565b565b610b3061347d565b808210610b72576040517f08c379a0000000000000000000000000000000000000000000000000000000008152600401610b69906147ae565b60405180910390fd5b81600481905550806005819055507fc0f43814d5418eabe550e8a5e620534a153d7b795dcf2e69d6bfa943c0df16bf8282604051610bb19291906147ce565b60405180910390a15050565b610bc561342e565b60016002811115610bd957610bd8613f92565b5b600e60008473ffffffffffffffffffffffffffffffffffffffff1673ffffffffffffffffffffffffffffffffffffffff16815260200190815260200160002060000160009054906101000a900460ff166002811115610c3b57610c3a613f92565b5b14610c7b576040517f08c379a0000000000000000000000000000000000000000000000000000000008152600401610c7290614843565b60405180910390fd5b610ccc81600d60008573ffffffffffffffffffffffffffffffffffffffff1673ffffffffffffffffffffffffffffffffffffffff16815260200190815260200160002061350490919063ffffffff16565b610d0b576040517f08c379a0000000000000000000000000000000000000000000000000000000008152600401610d02906148af565b60405180910390fd5b6000600c60008473ffffffffffffffffffffffffffffffffffffffff1673ffffffffffffffffffffffffffffffffffffffff16815260200190815260200160002060008381526020019081526020016000206040518060400160405290816000820160009054906101000a900473ffffffffffffffffffffffffffffffffffffffff1673ffffffffffffffffffffffffffffffffffffffff1673ffffffffffffffffffffffffffffffffffffffff168152602001600182015481525050905080602001513414610e10576040517f08c379a0000000000000000000000000000000000000000000000000000000008152600401610e079061491b565b60405180910390fd5b806000015173ffffffffffffffffffffffffffffffffffffffff163373ffffffffffffffffffffffffffffffffffffffff1603610e82576040517f08c379a0000000000000000000000000000000000000000000000000000000008152600401610e7990614987565b60405180910390fd5b600080600080610e92873461351e565b935093509350935060096000866000015173ffffffffffffffffffffffffffffffffffffffff1673ffffffffffffffffffffffffffffffffffffffff16815260200190815260200160002060009054906101000a900460ff1615611032576000701d6329f1c35ca4bfabb9f56100000000006b1d6329f1c35ca4bfabb9f56185610f1c91906149d6565b610f269190614a47565b90508084610f349190614a78565b93508085610f429190614aac565b94507f000000000000000000000000000000000000000000000000000000000000000073ffffffffffffffffffffffffffffffffffffffff166323b872dd8760000151600360009054906101000a900473ffffffffffffffffffffffffffffffffffffffff166006600a610fb69190614c20565b60065489610fc49190614a47565b610fce91906149d6565b6040518463ffffffff1660e01b8152600401610fec93929190614c6b565b6020604051808303816000875af115801561100b573d6000803e3d6000fd5b505050506040513d601f19601f8201168201806040525081019061102f91906146fe565b50505b6110c486600f6000886000015173ffffffffffffffffffffffffffffffffffffffff1673ffffffffffffffffffffffffffffffffffffffff16815260200190815260200160002060008a73ffffffffffffffffffffffffffffffffffffffff1673ffffffffffffffffffffffffffffffffffffffff1681526020019081526020016000206136b590919063ffffffff16565b50600c60008873ffffffffffffffffffffffffffffffffffffffff1673ffffffffffffffffffffffffffffffffffffffff1681526020019081526020016000206000878152602001908152602001600020600080820160006101000a81549073ffffffffffffffffffffffffffffffffffffffff02191690556001820160009055505061119886600d60008a73ffffffffffffffffffffffffffffffffffffffff1673ffffffffffffffffffffffffffffffffffffffff1681526020019081526020016000206136b590919063ffffffff16565b50846000015173ffffffffffffffffffffffffffffffffffffffff166108fc859081150290604051600060405180830381858888f193505050501580156111e3573d6000803e3d6000fd5b508160076000600e60008b73ffffffffffffffffffffffffffffffffffffffff1673ffffffffffffffffffffffffffffffffffffffff16815260200190815260200160002060000160019054906101000a900473ffffffffffffffffffffffffffffffffffffffff1673ffffffffffffffffffffffffffffffffffffffff1673ffffffffffffffffffffffffffffffffffffffff16815260200190815260200160002060008282546112959190614aac565b92505081905550600081111561132f576006600a6112b39190614c20565b600654826112c19190614a47565b6112cb91906149d6565b600860003373ffffffffffffffffffffffffffffffffffffffff1673ffffffffffffffffffffffffffffffffffffffff16815260200190815260200160002060008282546113199190614aac565b92505081905550808361132c9190614aac565b92505b8260076000600360009054906101000a900473ffffffffffffffffffffffffffffffffffffffff1673ffffffffffffffffffffffffffffffffffffffff1673ffffffffffffffffffffffffffffffffffffffff16815260200190815260200160002060008282546113a09190614aac565b925050819055508673ffffffffffffffffffffffffffffffffffffffff166342842e0e3033896040518463ffffffff1660e01b81526004016113e493929190614c6b565b600060405180830381600087803b1580156113fe57600080fd5b505af1158015611412573d6000803e3d6000fd5b50505050846000015173ffffffffffffffffffffffffffffffffffffffff16868873ffffffffffffffffffffffffffffffffffffffff167f859c3ad3c006e0a04cc7afbe3aa104faf6f8c1924f8273610f73ac0a85f9e0c833348960405161147c93929190614ca2565b60405180910390a45050505050611491613474565b5050565b606080600080849050856114a9600a6136cf565b6114b39190614a78565b8111156114d257856114c5600a6136cf565b6114cf9190614a78565b90505b8067ffffffffffffffff8111156114ec576114eb613ba0565b5b60405190808252806020026020018201604052801561151a5781602001602082028036833780820191505090505b5093508067ffffffffffffffff81111561153757611536613ba0565b5b60405190808252806020026020018201604052801561157057816020015b61155d613a56565b8152602001906001900390816115555790505b50925060005b818110156117285761159d818861158d9190614aac565b600a6136e490919063ffffffff16565b8582815181106115b0576115af614cd9565b5b602002602001019073ffffffffffffffffffffffffffffffffffffffff16908173ffffffffffffffffffffffffffffffffffffffff1681525050600e600086838151811061160157611600614cd9565b5b602002602001015173ffffffffffffffffffffffffffffffffffffffff1673ffffffffffffffffffffffffffffffffffffffff1681526020019081526020016000206040518060a00160405290816000820160009054906101000a900460ff16600281111561167357611672613f92565b5b600281111561168557611684613f92565b5b81526020016000820160019054906101000a900473ffffffffffffffffffffffffffffffffffffffff1673ffffffffffffffffffffffffffffffffffffffff1673ffffffffffffffffffffffffffffffffffffffff16815260200160018201548152602001600282015481526020016003820154815250508482815181106117105761170f614cd9565b5b60200260200101819052508080600101915050611576565b50838382886117379190614aac565b935093509350509250925092565b60096020528060005260406000206000915054906101000a900460ff1681565b61176d61347d565b61178181600a6136fe90919063ffffffff16565b6117c0576040517f08c379a00000000000000000000000000000000000000000000000000000000081526004016117b790614d7a565b60405180910390fd5b6001600e60008373ffffffffffffffffffffffffffffffffffffffff1673ffffffffffffffffffffffffffffffffffffffff16815260200190815260200160002060000160006101000a81548160ff0219169083600281111561182657611825613f92565b5b02179055508073ffffffffffffffffffffffffffffffffffffffff167f8aa6bc9d3dfafa0d1ec07c445e64c83d39e5947d50be0418a9b164a721ffc39360405160405180910390a250565b61187961347d565b61188d81600a6136fe90919063ffffffff16565b6118cc576040517f08c379a00000000000000000000000000000000000000000000000000000000081526004016118c390614d7a565b60405180910390fd5b6002600e60008373ffffffffffffffffffffffffffffffffffffffff1673ffffffffffffffffffffffffffffffffffffffff16815260200190815260200160002060000160006101000a81548160ff0219169083600281111561193257611931613f92565b5b02179055508073ffffffffffffffffffffffffffffffffffffffff167ff6df65a3d7d931af345d93f0420a22e8910de36c0d027c1d1ac93d5be509f5a960405160405180910390a250565b60055481565b61198b61347d565b611995600061372e565b565b6000806000806119a7868661351e565b935093509350935092959194509250565b6119c061342e565b60045481101580156119d457506005548111155b611a13576040517f08c379a0000000000000000000000000000000000000000000000000000000008152600401611a0a90614de6565b60405180910390fd5b60016002811115611a2757611a26613f92565b5b600e60008573ffffffffffffffffffffffffffffffffffffffff1673ffffffffffffffffffffffffffffffffffffffff16815260200190815260200160002060000160009054906101000a900460ff166002811115611a8957611a88613f92565b5b14611ac9576040517f08c379a0000000000000000000000000000000000000000000000000000000008152600401611ac090614e52565b60405180910390fd5b8273ffffffffffffffffffffffffffffffffffffffff166342842e0e3330856040518463ffffffff1660e01b8152600401611b0693929190614c6b565b600060405180830381600087803b158015611b2057600080fd5b505af1158015611b34573d6000803e3d6000fd5b50505050611bc682600f60003373ffffffffffffffffffffffffffffffffffffffff1673ffffffffffffffffffffffffffffffffffffffff16815260200190815260200160002060008673ffffffffffffffffffffffffffffffffffffffff1673ffffffffffffffffffffffffffffffffffffffff1681526020019081526020016000206137f290919063ffffffff16565b5060405180604001604052803373ffffffffffffffffffffffffffffffffffffffff16815260200182815250600c60008573ffffffffffffffffffffffffffffffffffffffff1673ffffffffffffffffffffffffffffffffffffffff168152602001908152602001600020600084815260200190815260200160002060008201518160000160006101000a81548173ffffffffffffffffffffffffffffffffffffffff021916908373ffffffffffffffffffffffffffffffffffffffff16021790555060208201518160010155905050611ce782600d60008673ffffffffffffffffffffffffffffffffffffffff1673ffffffffffffffffffffffffffffffffffffffff1681526020019081526020016000206137f290919063ffffffff16565b50813373ffffffffffffffffffffffffffffffffffffffff168473ffffffffffffffffffffffffffffffffffffffff167faa0431463bb62c812c04a1e5310cf43dd9baedc7a8eab71e02f572c741467e8c84604051611d469190613db3565b60405180910390a4611d56613474565b505050565b60608060008084905085611dac600d60008a73ffffffffffffffffffffffffffffffffffffffff1673ffffffffffffffffffffffffffffffffffffffff16815260200190815260200160002061380c565b611db69190614a78565b811115611e125785611e05600d60008a73ffffffffffffffffffffffffffffffffffffffff1673ffffffffffffffffffffffffffffffffffffffff16815260200190815260200160002061380c565b611e0f9190614a78565b90505b8067ffffffffffffffff811115611e2c57611e2b613ba0565b5b604051908082528060200260200182016040528015611e5a5781602001602082028036833780820191505090505b5093508067ffffffffffffffff811115611e7757611e76613ba0565b5b604051908082528060200260200182016040528015611eb057816020015b611e9d613aad565b815260200190600190039081611e955790505b50925060005b8181101561203957611f1a8188611ecd9190614aac565b600d60008b73ffffffffffffffffffffffffffffffffffffffff1673ffffffffffffffffffffffffffffffffffffffff16815260200190815260200160002061382190919063ffffffff16565b858281518110611f2d57611f2c614cd9565b5b602002602001018181525050600c60008973ffffffffffffffffffffffffffffffffffffffff1673ffffffffffffffffffffffffffffffffffffffff1681526020019081526020016000206000868381518110611f8d57611f8c614cd9565b5b602002602001015181526020019081526020016000206040518060400160405290816000820160009054906101000a900473ffffffffffffffffffffffffffffffffffffffff1673ffffffffffffffffffffffffffffffffffffffff1673ffffffffffffffffffffffffffffffffffffffff16815260200160018201548152505084828151811061202157612020614cd9565b5b60200260200101819052508080600101915050611eb6565b50838382886120489190614aac565b9350935093505093509350939050565b60008060009054906101000a900473ffffffffffffffffffffffffffffffffffffffff16905090565b61208961347d565b61209d85600a6136fe90919063ffffffff16565b156120dd576040517f08c379a00000000000000000000000000000000000000000000000000000000081526004016120d490614ee4565b60405180910390fd5b81811115612120576040517f08c379a000000000000000000000000000000000000000000000000000000000815260040161211790614f50565b60405180910390fd5b600073ffffffffffffffffffffffffffffffffffffffff168473ffffffffffffffffffffffffffffffffffffffff160361218f576040517f08c379a000000000000000000000000000000000000000000000000000000000815260040161218690614fbc565b60405180910390fd5b610bb8828461219e9190614aac565b11156121df576040517f08c379a00000000000000000000000000000000000000000000000000000000081526004016121d69061504e565b60405180910390fd5b6121f385600a61383b90919063ffffffff16565b506040518060a001604052806001600281111561221357612212613f92565b5b81526020018573ffffffffffffffffffffffffffffffffffffffff16815260200184815260200183815260200182815250600e60008773ffffffffffffffffffffffffffffffffffffffff1673ffffffffffffffffffffffffffffffffffffffff16815260200190815260200160002060008201518160000160006101000a81548160ff021916908360028111156122ae576122ad613f92565b5b021790555060208201518160000160016101000a81548173ffffffffffffffffffffffffffffffffffffffff021916908373ffffffffffffffffffffffffffffffffffffffff1602179055506040820151816001015560608201518160020155608082015181600301559050508373ffffffffffffffffffffffffffffffffffffffff168573ffffffffffffffffffffffffffffffffffffffff167ff11390a65c0fbc9ceb5cd5107627689a9aef8f91abaf3d88a19205e37779e82085858560405161237c9392919061506e565b60405180910390a35050505050565b61239361342e565b61242181600f60003373ffffffffffffffffffffffffffffffffffffffff1673ffffffffffffffffffffffffffffffffffffffff16815260200190815260200160002060008573ffffffffffffffffffffffffffffffffffffffff1673ffffffffffffffffffffffffffffffffffffffff16815260200190815260200160002061350490919063ffffffff16565b612460576040517f08c379a0000000000000000000000000000000000000000000000000000000008152600401612457906150f1565b60405180910390fd5b6124ee81600f60003373ffffffffffffffffffffffffffffffffffffffff1673ffffffffffffffffffffffffffffffffffffffff16815260200190815260200160002060008573ffffffffffffffffffffffffffffffffffffffff1673ffffffffffffffffffffffffffffffffffffffff1681526020019081526020016000206136b590919063ffffffff16565b50600c60008373ffffffffffffffffffffffffffffffffffffffff1673ffffffffffffffffffffffffffffffffffffffff1681526020019081526020016000206000828152602001908152602001600020600080820160006101000a81549073ffffffffffffffffffffffffffffffffffffffff0219169055600182016000905550506125c281600d60008573ffffffffffffffffffffffffffffffffffffffff1673ffffffffffffffffffffffffffffffffffffffff1681526020019081526020016000206136b590919063ffffffff16565b508173ffffffffffffffffffffffffffffffffffffffff166323b872dd3033846040518463ffffffff1660e01b815260040161260093929190614c6b565b600060405180830381600087803b15801561261a57600080fd5b505af115801561262e573d6000803e3d6000fd5b50505050803373ffffffffffffffffffffffffffffffffffffffff168373ffffffffffffffffffffffffffffffffffffffff167fa5764ea233325154a6388255c54b9f302ec2ed8586af0a9a606cd64e88298eb760405160405180910390a4612695613474565b5050565b7f000000000000000000000000000000000000000000000000000000000000000081565b60076020528060005260406000206000915090505481565b6126dd61342e565b60045481101580156126f157506005548111155b612730576040517f08c379a000000000000000000000000000000000000000000000000000000000815260040161272790614de6565b60405180910390fd5b6001600281111561274457612743613f92565b5b600e60008573ffffffffffffffffffffffffffffffffffffffff1673ffffffffffffffffffffffffffffffffffffffff16815260200190815260200160002060000160009054906101000a900460ff1660028111156127a6576127a5613f92565b5b146127e6576040517f08c379a00000000000000000000000000000000000000000000000000000000081526004016127dd90614e52565b60405180910390fd5b61287482600f60003373ffffffffffffffffffffffffffffffffffffffff1673ffffffffffffffffffffffffffffffffffffffff16815260200190815260200160002060008673ffffffffffffffffffffffffffffffffffffffff1673ffffffffffffffffffffffffffffffffffffffff16815260200190815260200160002061350490919063ffffffff16565b6128b3576040517f08c379a00000000000000000000000000000000000000000000000000000000081526004016128aa906150f1565b60405180910390fd5b80600c60008573ffffffffffffffffffffffffffffffffffffffff1673ffffffffffffffffffffffffffffffffffffffff168152602001908152602001600020600084815260200190815260200160002060010181905550813373ffffffffffffffffffffffffffffffffffffffff168473ffffffffffffffffffffffffffffffffffffffff167f492437c0ade072acdf12e63a19d8df68bb5e414e2098dc470239df87702343ea846040516129699190613db3565b60405180910390a4612979613474565b505050565b60608060008084905085612a0c600f60008a73ffffffffffffffffffffffffffffffffffffffff1673ffffffffffffffffffffffffffffffffffffffff16815260200190815260200160002060008b73ffffffffffffffffffffffffffffffffffffffff1673ffffffffffffffffffffffffffffffffffffffff16815260200190815260200160002061380c565b612a169190614a78565b811115612aaf5785612aa2600f60008a73ffffffffffffffffffffffffffffffffffffffff1673ffffffffffffffffffffffffffffffffffffffff16815260200190815260200160002060008b73ffffffffffffffffffffffffffffffffffffffff1673ffffffffffffffffffffffffffffffffffffffff16815260200190815260200160002061380c565b612aac9190614a78565b90505b8067ffffffffffffffff811115612ac957612ac8613ba0565b5b604051908082528060200260200182016040528015612af75781602001602082028036833780820191505090505b5093508067ffffffffffffffff811115612b1457612b13613ba0565b5b604051908082528060200260200182016040528015612b4d57816020015b612b3a613aad565b815260200190600190039081612b325790505b50925060005b81811015612d1357612bf48188612b6a9190614aac565b600f60008b73ffffffffffffffffffffffffffffffffffffffff1673ffffffffffffffffffffffffffffffffffffffff16815260200190815260200160002060008c73ffffffffffffffffffffffffffffffffffffffff1673ffffffffffffffffffffffffffffffffffffffff16815260200190815260200160002061382190919063ffffffff16565b858281518110612c0757612c06614cd9565b5b602002602001018181525050600c60008a73ffffffffffffffffffffffffffffffffffffffff1673ffffffffffffffffffffffffffffffffffffffff1681526020019081526020016000206000868381518110612c6757612c66614cd9565b5b602002602001015181526020019081526020016000206040518060400160405290816000820160009054906101000a900473ffffffffffffffffffffffffffffffffffffffff1673ffffffffffffffffffffffffffffffffffffffff1673ffffffffffffffffffffffffffffffffffffffff168152602001600182015481525050848281518110612cfb57612cfa614cd9565b5b60200260200101819052508080600101915050612b53565b5083838288612d229190614aac565b935093509350509450945094915050565b600960003373ffffffffffffffffffffffffffffffffffffffff1673ffffffffffffffffffffffffffffffffffffffff16815260200190815260200160002060009054906101000a900460ff1615600960003373ffffffffffffffffffffffffffffffffffffffff1673ffffffffffffffffffffffffffffffffffffffff16815260200190815260200160002060006101000a81548160ff021916908315150217905550565b600360009054906101000a900473ffffffffffffffffffffffffffffffffffffffff1681565b612e0761347d565b612e1b85600a6136fe90919063ffffffff16565b612e5a576040517f08c379a0000000000000000000000000000000000000000000000000000000008152600401612e5190614d7a565b60405180910390fd5b81811115612e9d576040517f08c379a0000000000000000000000000000000000000000000000000000000008152600401612e9490614f50565b60405180910390fd5b600073ffffffffffffffffffffffffffffffffffffffff168473ffffffffffffffffffffffffffffffffffffffff1603612f0c576040517f08c379a0000000000000000000000000000000000000000000000000000000008152600401612f039061515d565b60405180910390fd5b610bb88284612f1b9190614aac565b1115612f5c576040517f08c379a0000000000000000000000000000000000000000000000000000000008152600401612f539061504e565b60405180910390fd5b6040518060a0016040528060016002811115612f7b57612f7a613f92565b5b81526020018573ffffffffffffffffffffffffffffffffffffffff16815260200184815260200183815260200182815250600e60008773ffffffffffffffffffffffffffffffffffffffff1673ffffffffffffffffffffffffffffffffffffffff16815260200190815260200160002060008201518160000160006101000a81548160ff0219169083600281111561301657613015613f92565b5b021790555060208201518160000160016101000a81548173ffffffffffffffffffffffffffffffffffffffff021916908373ffffffffffffffffffffffffffffffffffffffff1602179055506040820151816001015560608201518160020155608082015181600301559050508373ffffffffffffffffffffffffffffffffffffffff168573ffffffffffffffffffffffffffffffffffffffff167f0895422eb4a796b08d7cae4b36cce484ec608964bb6fa3edeaa1b68baab1b26d8585856040516130e49392919061506e565b60405180910390a35050505050565b60045481565b60065481565b60608060008484905090508067ffffffffffffffff81111561312457613123613ba0565b5b6040519080825280602002602001820160405280156131525781602001602082028036833780820191505090505b5092508067ffffffffffffffff81111561316f5761316e613ba0565b5b6040519080825280602002602001820160405280156131a857816020015b613195613aad565b81526020019060019003908161318d5790505b50915060005b81811015613378576132208686838181106131cc576131cb614cd9565b5b90506020020135600d60008a73ffffffffffffffffffffffffffffffffffffffff1673ffffffffffffffffffffffffffffffffffffffff16815260200190815260200160002061350490919063ffffffff16565b1561325157600184828151811061323a57613239614cd9565b5b602002602001019015159081151581525050613279565b600084828151811061326657613265614cd9565b5b6020026020010190151590811515815250505b600c60008873ffffffffffffffffffffffffffffffffffffffff1673ffffffffffffffffffffffffffffffffffffffff16815260200190815260200160002060008787848181106132cd576132cc614cd9565b5b9050602002013581526020019081526020016000206040518060400160405290816000820160009054906101000a900473ffffffffffffffffffffffffffffffffffffffff1673ffffffffffffffffffffffffffffffffffffffff1673ffffffffffffffffffffffffffffffffffffffff1681526020016001820154815250508382815181106133605761335f614cd9565b5b602002602001018190525080806001019150506131ae565b5050935093915050565b61338a61347d565b600073ffffffffffffffffffffffffffffffffffffffff168173ffffffffffffffffffffffffffffffffffffffff16036133fc5760006040517f1e4fbdf70000000000000000000000000000000000000000000000000000000081526004016133f391906143f7565b60405180910390fd5b6134058161372e565b50565b600260009054906101000a900473ffffffffffffffffffffffffffffffffffffffff1681565b60026001540361346a576040517f3ee5aeb500000000000000000000000000000000000000000000000000000000815260040160405180910390fd5b6002600181905550565b60018081905550565b61348561386b565b73ffffffffffffffffffffffffffffffffffffffff166134a3612058565b73ffffffffffffffffffffffffffffffffffffffff1614613502576134c661386b565b6040517f118cdaa70000000000000000000000000000000000000000000000000000000081526004016134f991906143f7565b60405180910390fd5b565b6000613516836000018360001b613873565b905092915050565b600080600080612710600e60008873ffffffffffffffffffffffffffffffffffffffff1673ffffffffffffffffffffffffffffffffffffffff168152602001908152602001600020600101548661357591906149d6565b61357f9190614a47565b9250612710600e60008873ffffffffffffffffffffffffffffffffffffffff1673ffffffffffffffffffffffffffffffffffffffff16815260200190815260200160002060030154600e60008973ffffffffffffffffffffffffffffffffffffffff1673ffffffffffffffffffffffffffffffffffffffff168152602001908152602001600020600201546136149190614a78565b8661361f91906149d6565b6136299190614a47565b9150612710600e60008873ffffffffffffffffffffffffffffffffffffffff1673ffffffffffffffffffffffffffffffffffffffff168152602001908152602001600020600301548661367c91906149d6565b6136869190614a47565b9050808284876136969190614a78565b6136a09190614a78565b6136aa9190614a78565b935092959194509250565b60006136c7836000018360001b613896565b905092915050565b60006136dd826000016139aa565b9050919050565b60006136f383600001836139bb565b60001c905092915050565b6000613726836000018373ffffffffffffffffffffffffffffffffffffffff1660001b613873565b905092915050565b60008060009054906101000a900473ffffffffffffffffffffffffffffffffffffffff169050816000806101000a81548173ffffffffffffffffffffffffffffffffffffffff021916908373ffffffffffffffffffffffffffffffffffffffff1602179055508173ffffffffffffffffffffffffffffffffffffffff168173ffffffffffffffffffffffffffffffffffffffff167f8be0079c531659141344cd1fd0a4f28419497f9722a3daafe3b4186f6b6457e060405160405180910390a35050565b6000613804836000018360001b6139e6565b905092915050565b600061381a826000016139aa565b9050919050565b600061383083600001836139bb565b60001c905092915050565b6000613863836000018373ffffffffffffffffffffffffffffffffffffffff1660001b6139e6565b905092915050565b600033905090565b600080836001016000848152602001908152602001600020541415905092915050565b6000808360010160008481526020019081526020016000205490506000811461399e5760006001826138c89190614a78565b90506000600186600001805490506138e09190614a78565b905080821461394f57600086600001828154811061390157613900614cd9565b5b906000526020600020015490508087600001848154811061392557613924614cd9565b5b90600052602060002001819055508387600101600083815260200190815260200160002081905550505b856000018054806139635761396261517d565b5b6001900381819060005260206000200160009055905585600101600086815260200190815260200160002060009055600193505050506139a4565b60009150505b92915050565b600081600001805490509050919050565b60008260000182815481106139d3576139d2614cd9565b5b9060005260206000200154905092915050565b60006139f28383613873565b613a4b578260000182908060018154018082558091505060019003906000526020600020016000909190919091505582600001805490508360010160008481526020019081526020016000208190555060019050613a50565b600090505b92915050565b6040518060a0016040528060006002811115613a7557613a74613f92565b5b8152602001600073ffffffffffffffffffffffffffffffffffffffff1681526020016000815260200160008152602001600081525090565b6040518060400160405280600073ffffffffffffffffffffffffffffffffffffffff168152602001600081525090565b6000604051905090565b600080fd5b600080fd5b600073ffffffffffffffffffffffffffffffffffffffff82169050919050565b6000613b1c82613af1565b9050919050565b613b2c81613b11565b8114613b3757600080fd5b50565b600081359050613b4981613b23565b92915050565b6000819050919050565b613b6281613b4f565b8114613b6d57600080fd5b50565b600081359050613b7f81613b59565b92915050565b600080fd5b600080fd5b6000601f19601f8301169050919050565b7f4e487b7100000000000000000000000000000000000000000000000000000000600052604160045260246000fd5b613bd882613b8f565b810181811067ffffffffffffffff82111715613bf757613bf6613ba0565b5b80604052505050565b6000613c0a613add565b9050613c168282613bcf565b919050565b600067ffffffffffffffff821115613c3657613c35613ba0565b5b613c3f82613b8f565b9050602081019050919050565b82818337600083830152505050565b6000613c6e613c6984613c1b565b613c00565b905082815260208101848484011115613c8a57613c89613b8a565b5b613c95848285613c4c565b509392505050565b600082601f830112613cb257613cb1613b85565b5b8135613cc2848260208601613c5b565b91505092915050565b60008060008060808587031215613ce557613ce4613ae7565b5b6000613cf387828801613b3a565b9450506020613d0487828801613b3a565b9350506040613d1587828801613b70565b925050606085013567ffffffffffffffff811115613d3657613d35613aec565b5b613d4287828801613c9d565b91505092959194509250565b60007fffffffff0000000000000000000000000000000000000000000000000000000082169050919050565b613d8381613d4e565b82525050565b6000602082019050613d9e6000830184613d7a565b92915050565b613dad81613b4f565b82525050565b6000602082019050613dc86000830184613da4565b92915050565b600060208284031215613de457613de3613ae7565b5b6000613df284828501613b70565b91505092915050565b600060208284031215613e1157613e10613ae7565b5b6000613e1f84828501613b3a565b91505092915050565b60008060408385031215613e3f57613e3e613ae7565b5b6000613e4d85828601613b70565b9250506020613e5e85828601613b70565b9150509250929050565b60008060408385031215613e7f57613e7e613ae7565b5b6000613e8d85828601613b3a565b9250506020613e9e85828601613b70565b9150509250929050565b600081519050919050565b600082825260208201905092915050565b6000819050602082019050919050565b613edd81613b11565b82525050565b6000613eef8383613ed4565b60208301905092915050565b6000602082019050919050565b6000613f1382613ea8565b613f1d8185613eb3565b9350613f2883613ec4565b8060005b83811015613f59578151613f408882613ee3565b9750613f4b83613efb565b925050600181019050613f2c565b5085935050505092915050565b600081519050919050565b600082825260208201905092915050565b6000819050602082019050919050565b7f4e487b7100000000000000000000000000000000000000000000000000000000600052602160045260246000fd5b60038110613fd257613fd1613f92565b5b50565b6000819050613fe382613fc1565b919050565b6000613ff382613fd5565b9050919050565b61400381613fe8565b82525050565b61401281613b4f565b82525050565b60a08201600082015161402e6000850182613ffa565b5060208201516140416020850182613ed4565b5060408201516140546040850182614009565b5060608201516140676060850182614009565b50608082015161407a6080850182614009565b50505050565b600061408c8383614018565b60a08301905092915050565b6000602082019050919050565b60006140b082613f66565b6140ba8185613f71565b93506140c583613f82565b8060005b838110156140f65781516140dd8882614080565b97506140e883614098565b9250506001810190506140c9565b5085935050505092915050565b6000606082019050818103600083015261411d8186613f08565b9050818103602083015261413181856140a5565b90506141406040830184613da4565b949350505050565b60008115159050919050565b61415d81614148565b82525050565b60006020820190506141786000830184614154565b92915050565b60006080820190506141936000830187613da4565b6141a06020830186613da4565b6141ad6040830185613da4565b6141ba6060830184613da4565b95945050505050565b6000806000606084860312156141dc576141db613ae7565b5b60006141ea86828701613b3a565b93505060206141fb86828701613b70565b925050604061420c86828701613b70565b9150509250925092565b600081519050919050565b600082825260208201905092915050565b6000819050602082019050919050565b600061424e8383614009565b60208301905092915050565b6000602082019050919050565b600061427282614216565b61427c8185614221565b935061428783614232565b8060005b838110156142b857815161429f8882614242565b97506142aa8361425a565b92505060018101905061428b565b5085935050505092915050565b600081519050919050565b600082825260208201905092915050565b6000819050602082019050919050565b6040820160008201516143076000850182613ed4565b50602082015161431a6020850182614009565b50505050565b600061432c83836142f1565b60408301905092915050565b6000602082019050919050565b6000614350826142c5565b61435a81856142d0565b9350614365836142e1565b8060005b8381101561439657815161437d8882614320565b975061438883614338565b925050600181019050614369565b5085935050505092915050565b600060608201905081810360008301526143bd8186614267565b905081810360208301526143d18185614345565b90506143e06040830184613da4565b949350505050565b6143f181613b11565b82525050565b600060208201905061440c60008301846143e8565b92915050565b600080600080600060a0868803121561442e5761442d613ae7565b5b600061443c88828901613b3a565b955050602061444d88828901613b3a565b945050604061445e88828901613b70565b935050606061446f88828901613b70565b925050608061448088828901613b70565b9150509295509295909350565b600080600080608085870312156144a7576144a6613ae7565b5b60006144b587828801613b3a565b94505060206144c687828801613b3a565b93505060406144d787828801613b70565b92505060606144e887828801613b70565b91505092959194509250565b600080fd5b600080fd5b60008083601f84011261451457614513613b85565b5b8235905067ffffffffffffffff811115614531576145306144f4565b5b60208301915083602082028301111561454d5761454c6144f9565b5b9250929050565b60008060006040848603121561456d5761456c613ae7565b5b600061457b86828701613b3a565b935050602084013567ffffffffffffffff81111561459c5761459b613aec565b5b6145a8868287016144fe565b92509250509250925092565b600081519050919050565b600082825260208201905092915050565b6000819050602082019050919050565b6145e981614148565b82525050565b60006145fb83836145e0565b60208301905092915050565b6000602082019050919050565b600061461f826145b4565b61462981856145bf565b9350614634836145d0565b8060005b8381101561466557815161464c88826145ef565b975061465783614607565b925050600181019050614638565b5085935050505092915050565b6000604082019050818103600083015261468c8185614614565b905081810360208301526146a08184614345565b90509392505050565b60006040820190506146be60008301856143e8565b6146cb6020830184613da4565b9392505050565b6146db81614148565b81146146e657600080fd5b50565b6000815190506146f8816146d2565b92915050565b60006020828403121561471457614713613ae7565b5b6000614722848285016146e9565b91505092915050565b600082825260208201905092915050565b7f4f7065726174696f6e733a205f6d696e41736b5072696365203c205f6d61784160008201527f736b507269636500000000000000000000000000000000000000000000000000602082015250565b600061479860278361472b565b91506147a38261473c565b604082019050919050565b600060208201905081810360008301526147c78161478b565b9050919050565b60006040820190506147e36000830185613da4565b6147f06020830184613da4565b9392505050565b7f436f6c6c656374696f6e3a204e6f7420666f722074726164696e670000000000600082015250565b600061482d601b8361472b565b9150614838826147f7565b602082019050919050565b6000602082019050818103600083015261485c81614820565b9050919050565b7f4275793a204e6f7420666f722073616c65000000000000000000000000000000600082015250565b600061489960118361472b565b91506148a482614863565b602082019050919050565b600060208201905081810360008301526148c88161488c565b9050919050565b7f4275793a20496e636f7272656374207072696365000000000000000000000000600082015250565b600061490560148361472b565b9150614910826148cf565b602082019050919050565b60006020820190508181036000830152614934816148f8565b9050919050565b7f4275793a2042757965722063616e6e6f742062652073656c6c65720000000000600082015250565b6000614971601b8361472b565b915061497c8261493b565b602082019050919050565b600060208201905081810360008301526149a081614964565b9050919050565b7f4e487b7100000000000000000000000000000000000000000000000000000000600052601160045260246000fd5b60006149e182613b4f565b91506149ec83613b4f565b92508282026149fa81613b4f565b91508282048414831517614a1157614a106149a7565b5b5092915050565b7f4e487b7100000000000000000000000000000000000000000000000000000000600052601260045260246000fd5b6000614a5282613b4f565b9150614a5d83613b4f565b925082614a6d57614a6c614a18565b5b828204905092915050565b6000614a8382613b4f565b9150614a8e83613b4f565b9250828203905081811115614aa657614aa56149a7565b5b92915050565b6000614ab782613b4f565b9150614ac283613b4f565b9250828201905080821115614ada57614ad96149a7565b5b92915050565b60008160011c9050919050565b6000808291508390505b6001851115614b3757808604811115614b1357614b126149a7565b5b6001851615614b225780820291505b8081029050614b3085614ae0565b9450614af7565b94509492505050565b600082614b505760019050614c0c565b81614b5e5760009050614c0c565b8160018114614b745760028114614b7e57614bad565b6001915050614c0c565b60ff841115614b9057614b8f6149a7565b5b8360020a915084821115614ba757614ba66149a7565b5b50614c0c565b5060208310610133831016604e8410600b8410161715614be25782820a905083811115614bdd57614bdc6149a7565b5b614c0c565b614bef8484846001614aed565b92509050818404811115614c0657614c056149a7565b5b81810290505b9392505050565b600060ff82169050919050565b6000614c2b82613b4f565b9150614c3683614c13565b9250614c637fffffffffffffffffffffffffffffffffffffffffffffffffffffffffffffffff8484614b40565b905092915050565b6000606082019050614c8060008301866143e8565b614c8d60208301856143e8565b614c9a6040830184613da4565b949350505050565b6000606082019050614cb760008301866143e8565b614cc46020830185613da4565b614cd16040830184613da4565b949350505050565b7f4e487b7100000000000000000000000000000000000000000000000000000000600052603260045260246000fd5b7f4f7065726174696f6e733a20436f6c6c656374696f6e206e6f74206c6973746560008201527f6400000000000000000000000000000000000000000000000000000000000000602082015250565b6000614d6460218361472b565b9150614d6f82614d08565b604082019050919050565b60006020820190508181036000830152614d9381614d57565b9050919050565b7f4f726465723a205072696365206e6f742077697468696e2072616e6765000000600082015250565b6000614dd0601d8361472b565b9150614ddb82614d9a565b602082019050919050565b60006020820190508181036000830152614dff81614dc3565b9050919050565b7f436f6c6c656374696f6e3a204e6f7420666f72206c697374696e670000000000600082015250565b6000614e3c601b8361472b565b9150614e4782614e06565b602082019050919050565b60006020820190508181036000830152614e6b81614e2f565b9050919050565b7f4f7065726174696f6e733a20436f6c6c656374696f6e20616c7265616479206c60008201527f6973746564000000000000000000000000000000000000000000000000000000602082015250565b6000614ece60258361472b565b9150614ed982614e72565b604082019050919050565b60006020820190508181036000830152614efd81614ec1565b9050919050565b7f54726164652072657761726420657863656564732063726561746f7220666565600082015250565b6000614f3a60208361472b565b9150614f4582614f04565b602082019050919050565b60006020820190508181036000830152614f6981614f2d565b9050919050565b7f4164647265737320307830300000000000000000000000000000000000000000600082015250565b6000614fa6600c8361472b565b9150614fb182614f70565b602082019050919050565b60006020820190508181036000830152614fd581614f99565b9050919050565b7f4f7065726174696f6e733a2053756d206f6620666565206d75737420696e666560008201527f72696f7220746f20544f54414c5f4d41585f4645450000000000000000000000602082015250565b600061503860358361472b565b915061504382614fdc565b604082019050919050565b600060208201905081810360008301526150678161502b565b9050919050565b60006060820190506150836000830186613da4565b6150906020830185613da4565b61509d6040830184613da4565b949350505050565b7f4f726465723a20546f6b656e206e6f74206c6973746564000000000000000000600082015250565b60006150db60178361472b565b91506150e6826150a5565b602082019050919050565b6000602082019050818103600083015261510a816150ce565b9050919050565b7f43726561746f72206e756c6c2061646472657373000000000000000000000000600082015250565b600061514760148361472b565b915061515282615111565b602082019050919050565b600060208201905081810360008301526151768161513a565b9050919050565b7f4e487b7100000000000000000000000000000000000000000000000000000000600052603160045260246000fdfea2646970667358221220a868805c5d4809d8c81be5ad2d5c3801f5c3128dc89577cec9f1874477c336f764736f6c63430008180033",
  "linkReferences": {},
  "deployedLinkReferences": {}
}